:041000006F10C04E5F
:10100400000000000000000090200020442C00207C
:10101400A9BDF9F3942000200000000000000000A6
:10102400962000209820002000000000000000000E
:101034009A200020000000009C20002000000000F6
:101044009E200020A0200020A2200020A420002018
:10105400A6200020A8200020AA200020AC200020E8
:10106400AE200020B0200020B2200020B4200020B8
:101074004C2D0020B8200020BA200020BC200020E5
:10108400BE200020C0200020C2200020C420002058
:1010940001A001A001A001A001A001A001A001A044
:1010A40001A001A001A001A001A001A001A001A034
:1010B40001A001A001A001A001A001A001A001A024
:1010C40001A001A001A04111B7170040985F3AC6E2
:1010D400945F3247E39CE6FE324541018280411130
:1010E400814601468145114506C6EF009054B72755
:1010F400004011472383E780B7F700E003A707D137
:101104006D9B23A8E7D003A707D15D9B23A8E7D055
:101114007300501001000100B2404101828041116E
:10112400814601468145114506C6EF009050B72718
:10113400004011472383E780B717004003C7E70245
:1011440003C6E70483D7870391661377F70F136603
:10115400360063E5D700719B13671700F326008000
:10116400A18A972700009387A79F99CAF326008036
:101174009725000023A6D59E9443DD9A739006809C
:101184000F100000B7160040930570052380B604C5
:10119400930580FA2380B6040F1000002382060210
:1011A40023800604F32500809443A18ACD8E739096
:1011B40006809726000023A5069A0F100000F32648
:1011C4000080A18A99CAF32600809725000023A9EC
:1011D400D5989443DD9A739006800F100000B716DB
:1011E4000040930570052380B604930580FA23809C
:1011F400B6040F1000002387E6022387C604238069
:101204000604F32600809843218B558F73100780C2
:1012140017270000232607940F100000732700806F
:10122400218B19CB732700809726000023AAE6920E
:1012340098435D9B731007800F1000003717004020
:10124400930670052300D704930680FA2300D7047D
:101254000F1000008346B70493E60602A305D704E3
:1012640023000704F32600809843218B558F7310C5
:101274000780172700002325078E0F10000037F77B
:1012840000E0832607D193E646002328D7D083269F
:1012940007D1DD9A2328D7D0730050100100010034
:1012A40073270080218B19CB7327008097260000B9
:1012B40023A8E68A98435D9B731007800F100000F3
:1012C40037170040930670052300D704930680FA6D
:1012D4002300D7040F1000008346B70493F6F60DDD
:1012E400A305D70423000704732700809C43A18B24
:1012F400D98F739007809727000023A307860F10C8
:101304000000B240410182800111B7F5070026CAEE
:101314008146AA840A86E105194506CE22CC4AC82C
:1013240002C023120100EF00D030B717004003C7FA
:10133400E70413673700F3270080A18B172400000C
:101344001304048299CBF32700809726000023A975
:10135400F6801C40DD9B739007800F100000B717C8
:101364000040930670052380D704930680FA2380F7
:10137400D7040F1000002382070223800704F326FA
:1013840000801C40A18BD58F7390078097170000B5
:1013940023A8077C0F100000F3270080A18B99CBB2
:1013A400F32700809716000023ACF67A1C40DD9BDF
:1013B400739007800F100000B71700409306700564
:1013C4002380D704930680FA2380D7040F100000EB
:1013D4002387E70423800704F32600801840218B29
:1013E400558F7310078017170000232B07760F10F3
:1013F4000000B7F600E003A706D11367470023A84F
:10140400E6D003D50702E577910713750560458D8E
:101414005D8D420541810100F3270080A18B99CBAA
:10142400F327008017170000232CF7721C40DD9B64
:10143400739007800F100000B71700401307700562
:101444002380E704130780FA2380E7040F100000C9
:1014540003C7F70013670704A387E70003C7B704AC
:1014640013670702A385E7042390A70223800704D8
:10147400732700801C40A18BD98F73900780971726
:10148400000023AF076C0F100000B7F4070037F912
:1014940000E0E104832709D1DD9B2328F9D0730000
:1014A4005010010001001305C012EF00D006814660
:1014B4003000A685194502C423160100EF007017F9
:1014C40022478247E318F7FCF3270080A18B99CBCE
:1014D400F3270080171700002324F7681C40DD9BC6
:1014E400739007800F100000B717004013077005B2
:1014F4002380E704130780FA2380E7040F10000019
:1015040003D70702460745832390E7022380070495
:10151400732700801C40A18BD98F73900780971785
:10152400000023AF07620F100000F3270080A18B97
:1015340099CBF3270080171700002323F7621C4080
:10154400DD9B739007800F100000B717004013074E
:1015540070052380E704130780FA2380E7040F1043
:10156400000003C7B7041377F70DA385E7042380AE
:101574000704732700801C40A18BD98F73900780C8
:101584009717000023AE075C0F1000005145612738
:10159400F2406244D244424905618280411126C22C
:1015A40081460146AA848145114506C622C4EF003E
:1015B4005008371700408347E7028346E704035780
:1015C4008703116693F7F70F93E636006365C70048
:1015D400F19B93E7170073270080218B17140000F9
:1015E4001304045819CB732700801716000023290D
:1015F400E65618405D9B731007800F1000003717E4
:101604000040130670052300C704130680FA230064
:10161400C7040F10000023020702230007047326E7
:1016240000801840218B518F73100780171700001A
:10163400232807520F10000073270080218B19CB39
:101644007327008017160000232CE65018405D9B7A
:10165400731007800F100000371700401306700541
:101664002300C704130680FA2300C7040F100000E8
:101674002307F7022307D7042300070473270080F6
:101684001C40A18BD98F739007809717000023A962
:10169400074C0F10000013055002B92A37F700E079
:1016A400832707D193E747002328F7D0F327008047
:1016B400A18B99CBF3270080171700002322F74A48
:1016C4001C40DD9B739007800F100000B71700408B
:1016D400130770052380E704130780FA2380E704C7
:1016E4000F10000003C7F70013670704A387E70080
:1016F40023800704732700801C40A18BD98F73902B
:1017040007809717000023AD07440F100000F3274C
:101714000080A18B99CBF3270080171700002321A9
:10172400F7441C40DD9B739007800F100000B7172F
:101734000040130770052380E704130780FA238011
:10174400E7040F1000002567D98C239097022380AB
:101754000704732700801C40A18BD98F73900780E6
:101764009717000023AE073E0F10000037F700E084
:10177400832707D1DD9B2328F7D073005010010085
:10178400010081460146814511456525F327008006
:10179400A18B99CBF3270080171700002322F73C75
:1017A4001C40DD9B739007800F100000B7170040AA
:1017B400130770052380E704130780FA2380E704E6
:1017C4000F10000003C76704136717002383E7049F
:1017D40023800704732700801C40A18BD98F73904A
:1017E40007809717000023AD07360F100000B240A2
:1017F400224492444101828073270080218B9717F1
:1018040000009387E73519CB7327008097160000F3
:1018140023A8E63498435D9B731007800F100000E3
:1018240037170040930670052300D704930680FA07
:101834002300D7040F1000008346B70493F6F60D77
:10184400A305D70423000704732600809443A18AC8
:10185400D18E739006809716000023A306300F10D4
:101864000000937605026384061A0347A700118BD0
:1018740025EB73270080218B19CB732700809716E3
:10188400000023AFE62C98435D9B731007800F1074
:10189400000037170040930670052300D704930611
:1018A40080FA2300D7040F1000008346A70093E6B4
:1018B40046002305D70023000704F326008098433D
:1018C400218B558F7310078017170000232A0728D0
:1018D4000F1000001307004B010001007D176DFF7E
:1018E40073270080218B19CB732700809716000083
:1018F40023A8E62698435D9B731007800F10000011
:1019040037170040930670052300D704930680FA26
:101914002300D7040F1000007D892314A7000100C1
:1019240001000100010023000704F326008098430E
:10193400218B558F7310078017170000232207226D
:101944000F10000073270080218B19CB73270080B0
:101954009716000023A6E62098435D9B731007802A
:101964000F10000037170040930670052300D704BA
:10197400930680FA2300D7040F1000000F10000014
:10198400B726004013061005A383C680230007046E
:10199400F32600809843218B558F73100780171707
:1019A4000000232F071A0F10000073270080218BDB
:1019B40019CB732700809716000023A3E61A9843D7
:1019C4005D9B731007800F100000371700409306CB
:1019D40070052300D704930680FA2300D7040F1060
:1019E40000008346B70493E60608A305D704230042
:1019F4000704732700809C43A18BD98F73900780C1
:101A04009717000023AE07140F100000828093760E
:101A14000504638706160347A700418B25EB73274C
:101A24000080218B19CB732700809716000023A90F
:101A3400E61298435D9B731007800F100000371760
:101A44000040930670052300D704930680FA230010
:101A5400D7040F1000008346A70093E60601230570
:101A6400D70023000704F32600809843218B558F69
:101A740073100780171700002324070E0F100000AF
:101A84001307007D010001007D176DFF732700809F
:101A9400218B19CB732700809716000023A2E60C34
:101AA40098435D9B731007800F10000037170040A8
:101AB400930670052300D704930680FA2300D70405
:101AC4000F1000009376F50193E606042314D70063
:101AD400010001000100010023000704F326008037
:101AE4009843218B558F7310078017170000232903
:101AF40007060F100000130760046312E504732740
:101B04000080218B19CB732700809716000023A92E
:101B1400E60498435D9B731007800F10000037178D
:101B24000040930670052300D704930680FA23002F
:101B3400D7040F100000B72600400946B1B573273B
:101B44000080218B19CB732700809716000023A9EE
:101B5400E60098435D9B731007800F100000371751
:101B64000040930670052300D704930680FA2300EF
:101B7400D7040F100000B72600401306200529B52E
:101B840073270080218B19CB7327008097160000E0
:101B940023A8E6FC98435D9B731007800F10000098
:101BA40037170040930670052300D704930680FA84
:101BB4002300D7040F1000008356870093E6060C19
:101BC4002314D700E1B341118146014681451145F3
:101BD40006C68524F3270080A18B97160000938600
:101BE40026F899CBF327008017170000232AF7F66D
:101BF4009C42DD9B739007800F100000B7170040D4
:101C0400130770052380E704130780FA2380E70491
:101C14000F10000003C76704136717002383E7044A
:101C240023800704732700809C42A18BD98F739073
:101C340007809717000023A507F20F100000B24099
:101C4400410182808146014681451145DD22F32709
:101C54000080A18B17170000130787F099CBF32797
:101C640000809716000023ADF6EE1C43DD9B7390B5
:101C740007800F100000B7170040930670052380FB
:101C8400D704930680FA2380D7040F100000FD5672
:101C94002396D70223800704F32600801C43A18BDC
:101CA400D58F739007809717000023AB07EA0F10B6
:101CB4000000F3270080A18B99CBF32700809716AF
:101CC400000023AFF6E81C43DD9B739007800F10E0
:101CD4000000B7170040930670052380D7049306CD
:101CE40080FA2380D7040F10000083C6670493E6AC
:101CF40016002383D70423800704F32600801C43A3
:101D0400A18BD58F739007809717000023AA07E44F
:101D14000F10000001A0BD473305F50201007D1539
:101D240075FD8280411122C426C206C6AA840144DC
:101D340063179400B2402244924441018280050416
:101D44001305803E4204C13F4180DDB7B717004010
:101D5400130700032388E702854717170000232F82
:101D6400F7E073002030411122C406C63704002076
:101D74001C408297F5BF2303048015472303E480A6
:101D840001002302A480828083076480E3CE07FEDF
:101D940023030480828083076480E3CE07FE034527
:101DA4004480828083076480E3CE07FE2302A480FC
:101DB4008280411126C44AC24EC006C61377F50B71
:101DC400AD47AA892E8995446306F70019456537FE
:101DD400653F8D444E854537FD59FD1463983401A4
:101DE400B240A2441249824941018280135509013B
:101DF4001375F50F453F2209CDB7011126CC06CE48
:101E0400B704080051371545BD37713769372AC6FD
:101E1400A53F32459377150089EB136515001375BB
:101E2400F50FF240E24405618280FD14E9FC0145AE
:101E3400CDBF397126DC4ADA4ED852D656D45AD29E
:101E44005ED006DE62CE66CCB7E700E07D5783AA9B
:101E5400070022C603AA470023A0E71823A2E71815
:101E6400B7170040130770052380E704130780FAAF
:101E74002380E70483C74704930B75FFB684E20706
:101E840093FBFB0F8546AA892E8B328937240040A9
:101E9400E187015763FA76016308D5008946130781
:101EA40000026313D5000157D98F93F7F70FB71CBE
:101EB40000402382FC0411472303E4801305F00F40
:101EC4005D3D094CD135636D7C11B7050700DA958A
:101ED40037870700795563F2E504B3879500636E8D
:101EE400F702370B0800A94733EB65016399F9063C
:101EF40089E48144513D26850DA0DA850945553D87
:101F040005090345F9FFFD14050B693D81C4937769
:101F1400FB0FFDF7DD3569FD7D55B717004013074D
:101F240070052380E704130780FA2380E70403C7BE
:101F34004704418B2382E704F250B7E700E023A073
:101F4400571123A24711E25432445259C259325A0A
:101F5400A25A125B825B724CE24C21618280A547DB
:101F64006395F90685691309F00FB3069900B374F4
:101F74002B01B6941349F9FFB3749900856B337937
:101F84006901416B9387F9FFB3F7270199E363FC78
:101F9400340193D94900C147E3E637FF99BF056986
:101FA400C1697D19D9B71305800D638869011305CB
:101FB40000026384790113051008CA85DD3B353DB1
:101FC40021DD4E99B3843441D9B7DA852D45D53313
:101FD400CA94E30099F205097D3BA30FA9FED5BF7E
:101FE4009387F9FF93F7F70F6361FC0C83C71C0415
:101FF40013073008631FF70437070800636BEB040B
:10200400B3079B00B706100063F5D704334BEB000E
:1020140089476393F9068980D549E38C04ECDA8512
:102024000945413B11090327C9FF91472320E48057
:1020340003076480E34E07FE23033481FD17EDFBA1
:10204400FD14110B81C49377FB0FE9FF7D3371F508
:10205400E1B5B717004003C75704B7070800137763
:10206400070219E3B78707007955E378FBEA3307DA
:102074009B00E3FFE7F855B58547E382F9F2DA857B
:102084002D45053B9389F4FFE38504E6293393F753
:10209400390091EB83260480032709009307490044
:1020A400E39AE6E43E89CE84F1BFB5476396F9002E
:1020B4001305900BC93135BDB1471305B00AE38B45
:1020C400F9FE99476391F904B7050800B365BB00AD
:1020D4002D45C53181448D4BA149753963967401F1
:1020E400832704802320F9008504E39834FF8327A1
:1020F400048013172B01635507002312F900D5BB85
:102104002322F900FDB39D476399F9028145130524
:10211400B0044531BD442320090023220900FD59A0
:102124009D3993F77400CA9703C70700FD14398DCE
:102134002380A700E39634FF6DBBA1476392F904A3
:102144006D398144630D0B008D479304C00363080C
:10215400FB009304000563048B019304400413758E
:10216400C507E30895D81945393139390545213171
:1021740026850D3909453D314931E31C05D669BB36
:1021840091476399F90013056006F536F53E13058A
:1021940090090DB7E38F09D4F154A9BBBD6601477B
:1021A400173600001306867B938606A6854583476B
:1021B400060093F7F70F91C382800507E3F9E6FE63
:1021C40097370000238CB778DDB77D1662066186E9
:1021D40093178601E18763D4070001458280931732
:1021E40026003307F500AE9718439C4363E7E700E6
:1021F4007D16E37FF7FC7D55828005458280FD15C1
:10220400E205E18513978501618793F7F50F63482C
:102214000700FD15139725002A97584365D71385A2
:1022240017006205618582803308B5021C4283A8C9
:102234000600B335B502C29733B50701AE9846958B
:1022440085486367B5006394A50063E3070181488B
:102254000C43C6950CC388C21CC282808147139765
:10226400870161876343B7008280139727002A9709
:10227400232007008507E5B7814701479396870127
:10228400E18663C5B6001335170082809396270054
:10229400AA9694428507558FD5B793D755408A0798
:1022A400AA979C4305453315B5007D8D828017F3AD
:1022B400FFDFE702C3352A84993705C59317250044
:1022C4003E940327C4FF814711EB7D1516053E9507
:1022D4004205418517F3FFDF6700A33505838507B2
:1022E400E5B70145C5BF81471397870161876343FC
:1022F400C700828013972700B386E50094422A978B
:10230400850714C3D5B77D16620661860147931706
:102314008601E18763D50700133517008280931780
:102324002600B306F500AE9794429C437D16B58F04
:102334005D8FF1BF8A05AA9501476363B50082806A
:1023440083A6C5FFF11593D71600D98F9CC11397A7
:10235400F601E5B72A830148014701456343D700E5
:102364008280B387050183A80700B30706019C4355
:10237400C697AA976384F80033B517010507B30815
:102384000301620723A0F80061871108C1BF2A83F3
:1023940001478147014563C3D70082803388E50044
:1023A40083280800330EE600032E0E003388A8406D
:1023B4003308C8416384080133B508018507B308AD
:1023C400E300E20723A00801E1871107E9B717F347
:1023D400FFDFE702C3230111B286B2842E86AA85E9
:1023E4000A8575372A84A6850A85793533348000B1
:1023F400060413351500018D056117F3FFDF67002F
:10240400432317F3FFDFE702031E4111AA89AE8AB3
:10241400328BB68402C202C402C60144131C840176
:10242400135C8C4163499C02939B1400FD1B05497A
:10243400138CF4FFF15C3304890162046184634DFD
:10244400740592478E04CE9423AEF4FE410117F333
:10245400FFDF6700C31C13192400B30B2B01014ACF
:1024640093172A00D69783A50B008843780034007D
:1024740050005D3B050A93178A01E187F11BE35184
:10248400FCFE92474E9905042320F900A2473EC260
:10249400B24702C63EC459B7131A8901135A8A4176
:1024A400131D240093178A01E18763CF9700924795
:1024B4000A044E941CC0A24705091379F90F3EC2C1
:1024C400B24702C63EC485BFB3079A0313152A0058
:1024D40056950841780034005000050AEA97DA97C7
:0824E4008C439933C1B70000DD
:1024EC0097010020938141B1176100201301C1B005
:1024FC0017F5FFFF130585B0970500209385C5AF31
:10250C00171600201306C6FD63FAC50083220500CA
:10251C0023A0550011059105E3EAC5FE17D501006E
:10252C001305051097150020938585FB17160020C1
:10253C001306866163FAC5008322050023A05500AB
:10254C0011059105E3EAC5FE171500201305C55FBB
:10255C00975500209385C58F6377B5002320050020
:10256C001105E36DB5FEFD42739002BC8D42739074
:10257C004280B722000093828288739002309702C7
:10258C000020938262A793E2320073905230371787
:10259C000040930770052300F704930780FA23008B
:1025AC00F7040F1000003C47B70600FAE116F58F50
:1025BC00B70600069506D58F3CC79742000093825C
:1025CC008255739012346FB0F4227300203039713D
:1025DC0001436EC619A0397141536AC866CA62CCF0
:1025EC005ECE19A0397101535AD056D252D44ED660
:1025FC004AD826DA22DC06DE3301614082824111A0
:10260C004AC026C222C406C68282B24D4101024D86
:10261C00924C224CB24B4101024B924A224AB24993
:10262C004101024992442244B240410182803D431F
:10263C002A876373C3029377F700BDEFADE59376FA
:10264C0006FF3D8ABA960CC34CC30CC74CC7410756
:10265C00E36BD7FE11E28280B306C3408A06970271
:10266C00000096966780A6002307B700A306B70064
:10267C002306B700A305B7002305B700A304B700D2
:10268C002304B700A303B7002303B700A302B700CA
:10269C002302B700A301B7002301B700A300B700C2
:1026AC002300B700828093F5F50F93968500D58DA6
:1026BC0093960501D58D61B793962700970200007C
:1026CC0096968682E78086FA9680C1171D8F3E9675
:1026DC00E374C3F8A5B73367B500FD530D8B79E7E9
:1026EC00B7877F7F9387F7F710419441B372F60059
:1026FC003363F600BE92B3E262006397720C631808
:10270C00D6065041D441B372F6003363F600BE9244
:10271C00B3E262006398720A631BD60410459445B9
:10272C00B372F6003363F600BE92B3E262006391BB
:10273C00720A631ED6025045D445B372F600336359
:10274C00F600BE92B3E26200639A72086311D6027D
:10275C0010499449B372F6003363F600BE92B3E2AB
:10276C006200639372085105D105E30FD6F6131777
:10277C00060193970601631CF7001357060193D7C4
:10278C0006013305F7409375F50F91E9828041837B
:10279C00C1833305F7409375F50F91E18280137770
:1027AC00F70F93F7F70F3305F740828003460500C8
:1027BC0083C60500050585056313D60065FA330548
:1027CC00D640828011059105E312D6FE0145828028
:1027DC002105A105E31CD6FC014582803105B1051C
:1027EC00E316D6FC014582804105C105E310D6FCF9
:1027FC000145828017150020034505350589828027
:10280C00171500200355453405810589828017155D
:10281C000020035565330981058982801715002036
:10282C00035585320D8105898280171500200355CB
:10283C00A531118105898280171500200355C530FB
:10284C00158105898280171500200355E52F198104
:10285C0005898280171500200355052F1D810589D8
:10286C008280171500200355252E21810589828031
:10287C00171500200355452D2581058982801715D4
:10288C0000200355652C29810589828017150020AD
:10289C000355852B2D81058982809717002083C7CE
:1028AC00373A171700201307A7353E9785072300E3
:1028BC00A70093F7F70F1307F0036367F7001717D9
:1028CC000020A30FF736828097170020A38A0736C3
:1028DC0082809717002083C7A7361717002003475D
:1028EC00373601456309F7021717002013074731E4
:1028FC003E9785070345070093F7F70F1307F0037F
:10290C006367F70017170020230CF73282809717A4
:10291C000020238707328280411106C6EF90410FB9
:10292C00EF90A12A971700202390A72219C593078F
:10293C00200317170020230EF720971700209387EA
:10294C00272B9C4382970547AA876316E508171720
:10295C0000200347872A11E717170020230FF728B9
:10296C002D3F171700200357272921CF9717002039
:10297C0083D7672863F3E7028507C207C1839716DD
:10298C000020239AF626631EF702894717170020AA
:10299C002305F7260D4511372DA0171700200347E7
:1029AC00D72505C3971700209387872483C7C700B3
:1029BC00850793F7F70F63FAE70017170020230F2B
:1029CC00F722B24041016F80917A9717002023873C
:1029DC0007220545C9B79717002083C7072299C757
:1029EC00094597170020238A0720453D971700209B
:1029FC00239307209717002023820720D9B7971716
:102A0C0000209387A7149443B717004003A6070B25
:102A1C0013C7F6FF798E23A8C70A03A6470B718F3D
:102A2C0023AAE70A03A7070A558F23A0E70A03A7DF
:102A3C00C70A558F23A6E70A828097170020938731
:102A4C00E7109C435971A6D28564C58F17170020D7
:102A5C00232EF70E9717002083D7870F93E71700C5
:102A6C0086D6171700202315F70ECAD0A2D4CECEC7
:102A7C00D2CCD6CA231F0102231001042311010456
:102A8C0023120104231301049D3F8D47A30FF10270
:102A9C009D472300F1041307803E93071010514605
:102AAC006C18231EF102BAC42312F10405479717C0
:102ABC000020938767120808A301E104BEC6EF90BB
:102ACC00913A0808EF80315B314697B50100938548
:102ADC0025F30A85EF9031390A85EF70517D930605
:102AEC00803E0D4685450945EF80B1797D79930788
:102AFC00892BAA97C207C183130700196363F70CCC
:102B0C00AA850145EF80810EEF8071669717002032
:102B1C0023980712854717170020230DF70C9717DA
:102B2C00002023AB070C971700202389070C97175D
:102B3C0000209387E79A9C43B65026541717002021
:102B4C002328F70A96540659F649664AD64A65610F
:102B5C00828063FDB4007D141374F40FA285D146FA
:102B6C000D460945EF80F171AA853DA0050413744B
:102B7C00F40F630B3403A2859306803E0D46094582
:102B8C00EF803170AA8519E063E0AA02B3872501B2
:102B9C00C207C183E36FFAFA0145EF8021050D46A8
:102BAC00A2850145EF8041098D450565EF00B052C6
:102BBC00371700408327C70A8566D58F2326F70A67
:102BCC00A1B7353D81450565938A84EDEF00B05082
:102BDC0001441309F937130A6025938474ED9309A2
:102BEC00000251BF17150020035585F61345F5FF5C
:102BFC00930720034205411117170020230BF7F40C
:102C0C004181854706C617170020A304F7F4EF800F
:102C1C000102EF80D155B2404101D5B3411106C636
:102C2C00EF80F154E93BB24097170020A38307F2E1
:102C3C00171500200355C5F141016F70517FB7176F
:102C4C00004003C777051377E70FA38BE70413073F
:102C5C0000F8A38DE7043D47238CE70413075003CA
:102C6C00A38CE7048280B717004083C7E7040D8963
:102C7C0093F7C70FC98F73270080218B97160020FD
:102C8C00938646ED19CB732700801716002023235B
:102C9C00E6EC98425D9B731007800F10000037170D
:102CAC000040130670052300C704130680FA2300A6
:102CBC00C7040F1000002307F70423000704732731
:102CCC0000809C42A18BD98F7390078097170020AE
:102CDC0023A207E80F1000008280B717004083C7BB
:102CEC00E7020D8993F7C70FC98F73270080218BDB
:102CFC0097160020938606E619CB732700801716CB
:102D0C0000202329E6E498425D9B731007800F1086
:102D1C00000037170040130670052300C704130684
:102D2C0080FA2300C7040F1000002307F7022300CA
:102D3C000704732700809C42A18BD98F7390078066
:102D4C009717002023A807E00F1000008280411184
:102D5C002A83014E930E407E130F0019930F4006E9
:102D6C0063EE6E149308001913034006B378150331
:102D7C00854E0D4FA14F337365020D891335150028
:102D8C0063E8BE161308F6FF79467298420813588A
:102D9C0008013307C70213D61700BE0732976146E6
:102DAC00B3F6C60213068070B386C6023697A166C8
:102DBC00F58F42075D8FB716004083C7F60293F775
:102DCC000708A307F1000346F10083C7F60293F747
:102DDC000708E394C7FE8347F100B716004093F74A
:102DEC00F70F63810716F3270080A18B971600203D
:102DFC00938646D6639E07140F100000B717004049
:102E0C00130670052380C704130680FA2380C704B9
:102E1C000F10000023AA070303C617031366060846
:102E2C00A388C70223800704732600809C42A18BD1
:102E3C00D18F739007809717002023AD07D00F1008
:102E4C0000001166B71500407D16DC59C85DA98FCE
:102E5C00F18FE5FFF3270080A18B99CBF32700803E
:102E6C00171600202328F6CE9C42DD9B739007801A
:102E7C000F100000B7170040130670052380C7041D
:102E8C00130680FA2380C7040F100000D8DB03C799
:102E9C00170313670704A388E7022380070473272B
:102EAC0000809C42A18BD98F7390078097170020CC
:102EBC0023A207CA0F100000410182807D133368E2
:102ECC00E3039308E016630E08003368F3039308DA
:102EDC00D016630808009378330093B818009388D1
:102EEC00D81633081E01131E0801135E0E018DBD8A
:102EFC006393E503054863860800014863030300F8
:102F0C002A8871087298FD15131E0801C205135EFC
:102F1C000E01C181B5B513F8150063F4BF00790833
:102F2C00D5B713381800E5BF83C7F60293F7070827
:102F3C00A307F1000346F10083C7F60293F70708D5
:102F4C00E394C7FE8347F10093F7F70FF1DF61BD00
:102F5C00F327008017160020232EF6BE9C42DD9B23
:102F6C007390078051BD5971E2C486D6A2D4A6D203
:102F7C00CAD0CECED2CCD6CADAC8DEC6E6C2EAC039
:102F8C006EDE2A8C02D6EF00B04DF3270080A18BA9
:102F9C00171D0020130D0DBC81CFF32700801717D0
:102FAC0000202329F7BA83270D00DD9B739007803F
:102FBC000F100000B7170040130770052380E704BB
:102FCC00130780FA2380E7040F10000003C7F702F1
:102FDC001377770FA387E70203C7F70213678700FE
:102FEC00A387E702238007047327008083270D0043
:102FFC00A18BD98F739007809717002023AC07B44F
:10300C000F100000F3270080A18B81CFF3270080E5
:10301C00171700202320F7B483270D00DD9B739036
:10302C0007800F100000B7170040130770052380AE
:10303C00E704130780FA2380E7040F10000003C78E
:10304C00E7021377C70F2387E70203C7E70213676B
:10305C0017002387E7022380070473270080832748
:10306C000D00A18BD98F739007809717002023A395
:10307C0007AE0F1000001308803E3346050393077C
:10308C00007D2167930550023D6937440F001304FE
:10309C000424856B130BA004916A8149014A9304A3
:1030AC007005FD1AB307F602B3C7E702130780C118
:1030BC003347E5023EC2930709A605493319890136
:1030CC00135939403307B7023347F70233458502AA
:1030DC003AC413840BFA33148401811BB305B60272
:1030EC0033C7F50233048502130500103AC6330BBF
:1030FC0066033344A4023347FB02130B80FA3304F8
:10310C0004033AC8130700083347E4023309C90221
:10311C003ACA130760553309E902B347F902371964
:10312C000040130409043ECC73260080218A01CE92
:10313C00732600809717002023AEC7A003260D002E
:10314C005D9A731006800F10000093077005230022
:10315C00F400230064010F100000034639051376B8
:10316C00860FA309C9040346390513661600A30983
:10317C00C904230004007325008003260D00218A56
:10318C00498E731006809717002023A5079C0F10FB
:10319C000000916CE17D73260080218A01CE73269C
:1031AC0000809717002023A7C79A03260D005D9A6D
:1031BC00731006800F100000930770052300F400B5
:1031CC00230064010F100000034639051366060244
:1031DC00A309C90403560905336696012318C904CB
:1031EC00035609053366B601420641822318C90409
:1031FC00230004007325008003260D00218A498ECC
:10320C00731006809717002023A607940F10000058
:10321C000346390513760602630F06160346390575
:10322C00218A6DDE6810EF00D02773260080218A7A
:10323C0001CE732600809717002023ADC79003267C
:10324C000D005D9A731006800F100000230094008F
:10325C00230064010F100000034639051376F60DA8
:10326C00A309C9040346390513660602A309C90458
:10327C0003560905336696012318C904035609053C
:10328C003366B601420641822318C90423000400A8
:10329C007325008003260D00218A498E7310068049
:1032AC009717002023A8078A0F1000000346390542
:1032BC0013760602630F061003463905218A6DFE4C
:1032CC0097F0FF1FE780A0DF2A8632CE97F0FF1F12
:1032DC00E780E0DE7246E30AC5FE03560905325567
:1032EC00336696012318C904EF00B01D0346390557
:1032FC00218A6DDE0355090503462905924733F5EE
:10330C00AA003386CA0232951D8DA24763D5A70049
:10331C00B247634EF50E0946636D460FC247050A68
:10332C0013161500137AFA0F3346F6026352A03EB9
:10333C00050609453346A60273250080218901CD77
:10334C00732500809717002023A6A78003250D0066
:10335C005D99731005800F1000002300940023006A
:10336C0064010F1000000355C9022A9642064182DF
:10337C002316C902230004007325008003260D00C8
:10338C00218A498E731006809707002023A4077C9E
:10339C000F10000009B573260080218A01CE732618
:1033AC0000809707002023A7C77A03260D005D9A9B
:1033BC00731006800F10000023009400230064019A
:1033CC000F1000000346390513660602A309C90451
:1033DC0005B573260080218A01CE732600809707DD
:1033EC00002023A9C77603260D005D9A7310068072
:1033FC000F10000023009400230064010F10000044
:10340C000346390513660602A309C90441B5E3074F
:10341C000AF073260080218A01CE7326008097075C
:10342C00002023A9C77203260D005D9A7310068035
:10343C000F10000023009400230064010F10000003
:10344C00034639051375FC0F1376860FA309C904BF
:10345C0003463905498EA309C904230004007328C7
:10346C00008003260D00218A336606017310068046
:10347C009707002023A0076E0F10000003463905A4
:10348C001D8A6319862973260080218A01CE732632
:10349C0000809707002023AFC76A03260D005D9AB2
:1034AC00731006800F1000002300940023006401A9
:1034BC000F1000000346390511651376F60DA309AC
:1034CC00C9040346390513660602A309C904035649
:1034DC000905498E2318C904035609052165498E2F
:1034EC002318C904230004007325008003260D0053
:1034FC00218A498E731006809707002023AC07643D
:10350C000F1000000346390513760602630E0622DF
:10351C0003463905218A6DDE681061277326008009
:10352C00218A01CE732600809707002023A4C7624E
:10353C0003260D005D9A731006800F100000230007
:10354C009400230064010F10000003463905116537
:10355C001376F60DA309C904034639051366060252
:10356C00A309C90403560905498E2318C904035637
:10357C0009052165498E2318C9042300040073250D
:10358C00008003260D00218A498E73100680970750
:10359C00002023A1075C0F100000034639051376A9
:1035AC0006026301061E03463905218A6DFE97F05B
:1035BC00FF1FE780C0B0AA8C97F0FF1FE78020B0F8
:1035CC00E30C95FF035609051165498E32552318F6
:1035DC00C904C52D03463905218A6DDE732600808A
:1035EC00218A170500201305E55619CA7326008099
:1035FC009707002023A0C75610415D9A73100680D0
:10360C000F10000023009400230064010F10000031
:10361C00034639051376F60DA309C90423000400EB
:10362C00732800801041218A3366060173100680CE
:10363C009707002023A007520F100000035809051C
:10364C0003462905D24733F80A013386CA02329859
:10365C003308F8401306800C3306C802E2473346A1
:10366C00F602635F00150506094833460603635BE3
:10367C00C0140358C9029308F00F1358580032981D
:10368C0063D608210946637F3619F3270080A18B86
:10369C0099CBF327008017070020232DF74A1C41F4
:1036AC00DD9B739007800F100000371700409307C5
:1036BC0070052300F704930780FA2300F7040F101A
:1036CC0000008356C70289678117D58FC207C18353
:1036DC002316F70223000704732700801C41A18BDB
:1036EC00D98F739007809707002023A507460F10EA
:1036FC000000B650265496540659F649664AD64AE6
:10370C00464BB64B264C964C064DF25D656182805D
:10371C007D1605B173260080218A01CE73260080A8
:10372C009707002023A8C74203260D005D9A73104B
:10373C0006800F10000023009400230064010F107A
:10374C0000000346390539B373260080218A01CE67
:10375C00732600809707002023AEC73E03260D007A
:10376C005D9A731006800F10000023009400230054
:10377C0064010F1000000346390513660602A30905
:10378C00C9048DB373260080218A01CE7326008074
:10379C009707002023A0C73C03260D005D9A7310E9
:1037AC0006800F10000023009400230064010F100A
:1037BC0000000346390513660602A309C90475BB4C
:1037CC007D165DB561C60358C902B308C0401358D5
:1037DC005800635D180B094663763605F3270080A5
:1037EC00A18B99CBF3270080170700202324F736F1
:1037FC001C41DD9B739007800F100000B717004031
:10380C00130770052380E704130780FA2380E7046D
:10381C000F10000003D7C7027D8B2396E70223808D
:10382C0007045DBD73260080218A19CA73260080A7
:10383C009707002023A0C73210415D9A73100680B1
:10384C000F10000023009400230064010F100000EF
:10385C000356C9021376F60F33667601420641828F
:10386C002316C90223000400732800801041218A0A
:10387C0033660601731006809707002023AC072CD3
:10388C000F100000850993F9F90F79B8F327008020
:10389C00A18B99CBF327008017070020232CF72A44
:1038AC001C41DD9B739007800F100000B717004080
:1038BC00130770052380E704130780FA2380E704BD
:1038CC000F10000003D7C70216063A964206418233
:1038DC002396C702A9B7914763EEB70217A7010059
:1038EC001307071B8A05BA959C41BA978287B717AD
:1038FC00004003A7470B1345F5FF698F23AAE70A7E
:10390C0003A7070B698F23A8E70A03A7070A798D7A
:10391C0023A0A70A8280B717004083A6470B134742
:10392C00F5FFF98E23AAD70A83A6070B558D23A87A
:10393C00A70A83A6070A758F23A0E70A8280B71708
:10394C00004003A7470B498F23AAE70A03A7070BDD
:10395C001345F5FF45BFB717004083A6470B134728
:10396C00F5FF758F23AAE70A03A7070A598D4DB7F0
:10397C00B717004003A7470B498FEDB7914763EE8C
:10398C00B70217A701001307E7118A05BA959C41E6
:10399C00BA978287B717004003A7470D1345F5FF69
:1039AC00698F23AAE70C03A7070D698F23A8E70CDF
:1039BC0003A7070C798D23A0A70C8280B7170040B2
:1039CC0083A6470D1347F5FFF98E23AAD70C83A6C0
:1039DC00070D558D23A8A70C83A6070C758F23A064
:1039EC00E70C8280B717004003A7470D498F23AA25
:1039FC00E70C03A7070D1345F5FF45BFB7170040AC
:103A0C0083A6470D1347F5FF758F23AAE70C03A771
:103A1C00070C598D4DB7B717004003A7470D498FB9
:103A2C00EDB79D4763E3A70217A701001307C7086B
:103A3C000A053A951C41BA9737570040828783474D
:103A4C00270093F7070F2301F70082808347270095
:103A5C0093F7070F93E71700FDB78347270093F7FA
:103A6C00070F93E74700C5B78347270093F7070F66
:103A7C0093E75700C9BF8347270093F7070F93E7D6
:103A8C008700D1B78347270093F7070F93E7970079
:103A9C005DBF8347270093F7070F93E7C70065B710
:103AAC008347270093F7070F93E7D70069BF99EA7D
:103ABC00B757004003C707001345F5FF798D2380E6
:103ACC00A70082803757004005CE83471700C98F67
:103ADC00A300F70037570040814711072146B35622
:103AEC00F540858A89C6B386E7002380B600850732
:103AFC00E397C7FEB757004003C70700598DC1B7FE
:103B0C00834617009347F5FFF58FD9B7411122C4AF
:103B1C003717004006C683472702035707021704CE
:103B2C0000201304240393F7F70F4207418325ED7C
:103B3C001377F79F420793F7F7074183F32600802B
:103B4C00A18A99CAF3260080170600202324D600E8
:103B5C001440DD9A739006800F100000B7160040D9
:103B6C00130670052380C604130680FA2380C6044E
:103B7C000F10000093F7F70F2381F6022390E60253
:103B8C0023800604732700801C40A18BD98F73906F
:103B9C0007809707002023AF07FA0F100000B240F0
:103BAC0022444101828093E7070813670740F326FC
:103BBC000080A18A99CAF326008017060020232BC7
:103BCC00D6F81440DD9A739006800F100000B716DB
:103BDC000040130670052380C604130680FA238068
:103BEC00C6040F1000002381F6022390E602238006
:103BFC000604732700801C40A18BD98F739007801B
:103C0C009707002023A807F40F100000294597F010
:103C1C00FF1FE780C00FF3270080A18B99CBF32700
:103C2C000080170700202327F7F21C40DD9B7390C0
:103C3C0007800F100000B717004013077005238092
:103C4C00E704130780FA2380E7040F10000003D762
:103C5C000702136707202390E702238007041DB790
:103C6C00B717004003D587004205418193770504BF
:103C7C0091EB9377F5013755E80113050580334532
:103C8C00F50282809377050C130700046397E70015
:103C9C009377F50137459C1CCDB72165130505D0ED
:103CAC00828037E700E01C435443A183E206D58FA2
:103CBC001CC1FD572320F7182322F7180F10000002
:103CCC00828013178500B7E700E023A0E71061811D
:103CDC0023A2A7108280B7F700E08847CC478280E8
:103CEC00970700209387C7E29C43173700201307E0
:103CFC0027163E95636EE500174700201307C70F84
:103D0C006368A700170700202324A7E03E85828064
:103D1C00FD57EDBF2D4559EF03C505000947631746
:103D2C00E50803A84500411106C603471800328573
:103D3C000346080022074168518F930828FE630848
:103D4C00170363E9E80005186303070523900600D1
:103D5C0029451DA8130648FE630BC7021518E31767
:103D6C0007FF15463E87637BF602154705A83E867E
:103D7C0091C30546B7E70400FC472390C6004206F2
:103D8C00CC45418282970145B240410182801306A5
:103D9C00700F3E876374F6001307700FB7E70400CB
:103DAC002390E600FC4713160701D9BF23900600A9
:103DBC00054582808280416779176304E5044111CF
:103DCC0022C406C685472A84639FF500B7E7040022
:103DDC0022852244B24003A38713970500209385C4
:103DEC00E5D74101028389476399F500B7E70400E1
:103DFC0083A7070B8545829771D9B24022444101B4
:103E0C0082808280797122D452CC2E842A8A97A502
:103E1C0001009385A5CD17A501001305E5CE06D6A7
:103E2C003AC626D24AD0B68432894ECEEF80110FD4
:103E3C00A68517A50100130525CEEF80310E294567
:103E4C00EF80F1118347840093F70702F1E3834974
:103E5C0004008947054532476396F908544083C7E7
:103E6C00160083C60600A207D58FC166138616FE00
:103E7C00638CC7028D16638FD7068D66938626904A
:103E8C0029456391D706B7E70400A285225403A302
:103E9C004714B250F249A6864A869254025952856A
:103EAC00624A8547456102832D450DEF9307700FDC
:103EBC00354563E99702B7E70400FC47484413060D
:103ECC00700FCA8582978149970700209387C7C9CD
:103EDC009C43014581CB9C4391C74E852686CA8560
:103EEC0082970145B250225492540259F249624AC7
:103EFC00456182802D457DF7D5473545E3E497FE36
:103F0C00B7E70400FC4748445546CA8582976DBF05
:103F1C002145C9BF411122C437E40400832784130F
:103F2C0026C2AA84416506C697050020938505C361
:103F3C007D1582978327C40A170500001305E5E752
:103F4C008588829795C0032304132244B24092447F
:103F5C0097F6FF1F9386466D4146C54517F5FF1F23
:103F6C001305855B41010283B24022449244014512
:103F7C004101828019C59707002023A7A7BE0145E0
:103F8C0082804545828011476368A70A97A6010085
:103F9C00938686B40A0536951841411106C63697A4
:103FAC00AE87B28502871307700F6145639DE700EA
:103FBC00B7E70400FC471306700F17050020130524
:103FCC0065C882970145B240410182800547614531
:103FDC00E39BE7FEB7E70400FC4705461705002006
:103FEC00130585B7F9BF55476145E39EE7FCB7E775
:103FFC000400FC47554617050020130525D4D1B7FE
:10400C001307700F6145E390E7FCB7E70400FC472A
:10401C001306700F170500201305C5D35DB71547A0
:10402C006145E392E7FAB7E70400FC47154617052C
:10403C0000201305E5B271B709458280411126C2F3
:10404C00B7E4040083A7C41322C44AC006C62E8456
:10405C0097050020938585B02A898297058905C527
:10406C0097F7FF1F9387474B83D7A70BA28503A313
:10407C00440D2310F4002244B24092444A85024974
:10408C00014641010283B24022449244024949450F
:10409C004101828011456FE01FED4111939625007F
:1040AC00AA852D4506C697F0FF1FE78000D8B240C1
:1040BC00014541018280411126C29394250022C4FE
:1040CC004AC02A843289A686AA850146254506C699
:1040DC0097F0FF1FE78060D5A6864A86A285294502
:1040EC0097F0FF1FE78060D4B2402244924402490B
:1040FC00014541018280011122CC06CE37140040CB
:10410C0026CA4AC84EC652C483447405034AB40531
:10411C008349840503499405EFE07FB28347A405E6
:10412C0093F4F40F137AFA0F93E71700230DF404AA
:10413C0093F9F90F1379F90FB717004003C7A705C7
:10414C00058B6DFF03D5C705A38D4705238C37055C
:10415C00A38C2705A38B9704F2406244D2444249B6
:10416C00B249224A0561828041119397050122C40C
:10417C0006C626C2C1872E8463D00702B7E40400AA
:10418C00FC54829719C1BC5482972165218DB24091
:10419C00224492444101828093F7150013C5150007
:1041AC00FDF79397250163D50702B7E4040083A7B5
:1041BC00C41E8297C535BC4C37F60200130606E0C8
:1041CC008965170500200345659A829709657DBFAF
:1041DC00939715010145E3DC07FAB7E70400BC4FE0
:1041EC0013060064916517050020034525988297F6
:1041FC00116569BF1D71A2CC37E404005C5C4858A2
:10420C0086CE494697A5010093854593829711E187
:10421C0001A0B7F600E0795798CAFD57DCCA0567CC
:10422C00B7E700E023A0E7101306F00290C223A02A
:10423C00E7180F1000003C441306C00381454808E2
:10424C00829797170020938767983ECA8967938750
:10425C0007BD231CF100A167938707E03ECEB7078B
:10426C000105938707103ED09307B00F2312F1027C
:10427C0085472303F10297070000938747E2BEC4EA
:10428C0097070000938767E3BEC6970700009387E4
:10429C00C7A43EDA97070000938727E63EDE970710
:1042AC000000938767DFBEC0B737020D9387D7E353
:1042BC00B7F507003ED48146970700009387072087
:1042CC007000E10519453EDC97F0FF1FE780E0B573
:1042DC0058088147994670003E96034606008507AC
:1042EC000507A30CC700E398D7FED24791C7035725
:1042FC00810185676373F70001A0B7E7040083A70A
:10430C00470A4808829711C101A0F640664425610E
:10431C008280411126C2B7E4040083A7040806C6B4
:10432C0022C417050000130565E4829717040020CA
:10433C001304C4832300A4005920212C034504003A
:10434C00224403A38405B2409244130600328965CB
:10435C0041010283F3270080A18B17F7FF1F13077E
:10436C00677F99CBF327008097F6FF1F23A4F67E77
:10437C001C43DD9B739007800F100000B7170040A3
:10438C00930670052380D704930680FA2380D70404
:10439C000F100000C8DB23800704F32600801C43A9
:1043AC00A18BD58F7390078097F7FF1F23A4077AF3
:1043BC000F10000097F7FF1F23AC077A8280411182
:1043CC0006C6F3270080A18B17F7FF1F130787780A
:1043DC0099CBF327008097F6FF1F23ADF6761C438D
:1043EC00DD9B739007800F100000B71700409306F9
:1043FC0070052380D704930680FA2380D7040F100E
:10440C00000083C6F70293F6A60FA387D70223807A
:10441C000704F32600801C43A18BD58F7390078073
:10442C0097F7FF1F23A807720F100000F3270080D7
:10443C00A18B99CBF327008097F6FF1F23ACF67066
:10444C001C43DD9B739007800F100000B7170040D2
:10445C00930670052380D704930680FA2380D70433
:10446C000F10000083C6F70293E62600A387D7023D
:10447C0023800704F32600801C43A18BD58F7390F7
:10448C00078097F7FF1F23A7076C0F100000054547
:10449C00EFE0BF84013181471305407E014781461F
:1044AC0005468545EFE0BF8AB7E70400B24003A399
:1044BC004707014541010283011122CC2A8468007F
:1044CC0006CE26CAEFF0EFFD97E0FF1FE78020BF76
:1044DC00B307A4406376A400B707C0A8A297898F3E
:1044EC003707B8A19387F7FD1307F7FD637BF70038
:1044FC003245EFF00FFD0945F2406244D2440561AC
:10450C0082802285813D324597F4FF1F9384446657
:10451C00EFF02FFB9C400D45E5F3694597E0FF1F3D
:10452C00E78000DE9C408DC31305E402B707C0A8EA
:10453C0063F7A700370540571305E5022295193D8F
:10454C0097E0FF1FE78020B90545EFE0CFF101456B
:10455C0065B7F3270080A18B17F7FF1F1307875F41
:10456C0099CBF327008097F6FF1F23A5F65E1C431B
:10457C00DD9B739007800F100000B7170040930667
:10458C0070052380D704930680FA2380D7040F107C
:10459C00000083C6E70093E686002387D7002380BC
:1045AC000704F32600801C43A18BD58F73900780E2
:1045BC0097F7FF1F23A0075A0F100000F327008066
:1045CC00A18B99CBF327008097F6FF1F23A4F658F5
:1045DC001C43DD9B739007800F100000B717004041
:1045EC00930670052380D704930680FA2380D704A2
:1045FC000F10000083C6170393E60602A388D702A8
:10460C0023800704F32600801C43A18BD58F739065
:10461C00078097F7FF1F23AF07520F100000B7E773
:10462C0000E03707001023A0E71082804111979516
:10463C0001009385A567179501001305E54C06C687
:10464C00EF80C10D179501001305057DEF80010D5D
:10465C00B240294541016F808110411197950100AD
:10466C0093850566179501001305054A06C6EF806C
:10467C00E10A179501001305E578EF80210AB24095
:10468C00294541016F80A10D411122C406C6834703
:10469C0005002A849DC3979501009385256817957D
:1046AC00010013056546EF8061074C4017A501001A
:1046BC001305C584EF8081061DA058411DE7979511
:1046CC0001009385A565179501001305E543EF805F
:1046DC00E10417A501001305E583EF8021042244B2
:1046EC00B240294541016F808107A1679386D703AA
:1046FC006311D702979501009385456217950100C8
:10470C0013058540EF80810117A5010013058581F4
:10471C00E9B7ED0797950100938545601795010062
:10472C001305853E6319F700EF70517F17A5010043
:10473C00130585805DB7EF70717E4C4017A50100A5
:10474C001305858185BF4111979501009385855887
:10475C00179501001305453B06C6EF70317CB2403E
:10476C00294541016F70B17F411106C61707002022
:10477C000347C72D9307F00A631FF7009307F00850
:10478C008945170500201305652C17070020231FEA
:10479C00F72AEF30605EEF30806D8145014597F769
:1047AC00FF1F23A5073E97F7FF1F239E073C97F794
:1047BC00FF1F238B073C97F7FF1F2394073C97F7AA
:1047CC00FF1F239F073A97F7FF1F239D073A97F781
:1047DC00FF1F239F073AEF20C0200145EF30C05F39
:1047EC009795010093858551179501001305C531E7
:1047FC00EF70D17217A501001305C580EF7011720F
:10480C00B240294541016F709175411122C406C611
:10481C0026C293F715002E846387070E814617F680
:10482C00FF1F130626FD854517F5FF1F035505359C
:10483C00EF80502605C5979501009385E54C17959B
:10484C0001001305652CEF70716D179501001305B0
:10485C00E536EF70B16C2945EF70717097950100DA
:10486C009385854A179501001305052AEF70116B86
:10487C00179501001305C535EF70516A2945EF7086
:10488C00116E17F5FF1F130565F95C45054723905D
:10489C00E700EF00014C979501009385E5461795CD
:1048AC00010013056526EF7071671795010013055C
:1048BC006533EF70B1662945EF70716A930710F894
:1048CC00170700202304F71897F7FF1F83D7C72A71
:1048DC0017070020A30CF716170500201305051762
:1048EC00A1839145170700202303F7169707002093
:1048FC00A38F0714EF30404813451400B2402244F4
:10490C0092444101828093F72500D5C717F7FF1F0A
:10491C000357672751CF97F6FF1F9386262794429C
:10492C00979701009387077017F6FF1F0346C6255C
:10493C008145170500201305A527EF40F022AA8416
:10494C0025C99795010093852545179501001305F9
:10495C00A51BEF70B15CA685179501001305052A00
:10496C00EF70D15B2945EF70915F97F7FF1F239C88
:10497C000720930710F8170700202309F70C97F767
:10498C00FF1F83D7671F17070020A301F70CA18314
:10499C0017070020230DF70A91458D4717050020B6
:1049AC001305C50A17070020A303F70AEF30C03C14
:1049BC0013452400A1B793F74500A5CB97950100AB
:1049CC009385853D1795010013050514EF7011555E
:1049DC001795010013054524EF7051542945EF70CC
:1049EC001158930720F8170700202301F70697F7B3
:1049FC00FF1F83D7071917070020A309F704A1830A
:104A0C00170700202305F704854717070020A3008C
:104A1C00F704EF20103B17050020130525039145E3
:104A2C00EF30803513454400D1BD93F785008DCF11
:104A3C009795010093854536179501001305C50C14
:104A4C00EF70D14D179501001305451EEF70114DF8
:104A5C002945EF70D15097F7FF1F23960712EF40AF
:104A6C00901D1345840059BD93F70501A5CB8545D1
:104A7C0017F5FF1F0355E510EF10D17C979501003A
:104A8C00938585311795010013050508EF701149C1
:104A9C00179501001305C51AEF7051482945EF70A1
:104AAC00114C930730F8170700202301F7FA97F7FA
:104ABC00FF1F83D7070D17070020A309F7F8170569
:104ACC0000201305A5F8A1838D45170700202300AE
:104ADC00F7F8EF30602A134504010DB593F7050282
:104AEC00A5CF979501009385252B179501001305EC
:104AFC00A501EF70B142179501001305A516EF70D3
:104B0C00F1412945EF70B145930740F81707002094
:104B1C00230EF7F297F7FF1F83D78706170700209E
:104B2C00A306F7F2A183170700202302F7F28547AB
:104B3C0017070020A30DF7F097F7FF1F2392070428
:104B4C00EF20302817050020130545F09145EF3074
:104B5C00A022134504025DB393F70504E9CB9795A6
:104B6C00010093856523179501001305E5F9EF7096
:104B7C00F13A1795010013056510EF70313A29458C
:104B8C00EF70F13D9707002083C747EC1307700ABD
:104B9C006382E7061307800A6388E7081307600A35
:104BAC006391E704930720F8170700202300F7EA26
:104BBC0097F7FF1F83D707FD17070020A308F7E817
:104BCC00A183170700202304F7E885471707002067
:104BDC00A303F7E8B14517050020130525E7EF30CF
:104BEC00A019EF20101E1345040497F7FF1F239BF9
:104BFC0007F829B3930770F8170700202308F7E488
:104C0C0097F7FF1F83D707F817070020A300F7E4D7
:104C1C00A18317070020230CF7E285471707002014
:104C2C00A308F7E2994545BF930780F8F1B793F7CE
:104C3C000508A5CF979501009385051617950100DA
:104C4C00130585ECEF70912D179501001305850464
:104C5C00EF70D12C2945EF7091309307A0F817070E
:104C6C0000202305F7DE97F7FF1F83D767F217079E
:104C7C000020A30DF7DCA183170700202309F7DC24
:104C8C00854717070020A304F7DC97F7FF1F239134
:104C9C0007F0EF20101317050020130525DB9145B5
:104CAC00EF30800D1345040891B993F7051095C3A7
:104CBC00EF20C031B7E70400BC4F13064006930544
:104CCC00001017F5FF1F0345E5EA82971345041002
:104CDC0035B193F7052099C70145EF200011134515
:104CEC00042029B993F705400145E38907C0054520
:104CFC00EF20A00F1345044011B1411122C4979528
:104D0C0001009385E5022A84179501001305C5DF80
:104D1C0006C6EF70B1204C40179501001305851B9A
:104D2C00EF70D11F2945EF709123034704009307BF
:104D3C00F00F6319F70297950100938565FF17959E
:104D4C000100130565DCEF70711D4C4017950100D7
:104D5C0013054519EF70911C2244B24029454101BD
:104D6C006F70F11FB24022444101828085CD411108
:104D7C0022C417950100130525D92E84979501009F
:104D8C00938505F606C6EF707119A285179501007B
:104D9C0013058526EF7091182244B2402945410134
:104DAC006F70F11B8280411126C206C622C4854752
:104DBC00AA84639AF502979501009385A5FA179535
:104DCC000100130565D4EF707115A68517950100C8
:104DDC001305051AEF7091142244B24092442945F0
:104DEC0041016F70D1172E848947979501009385E7
:104DFC0065F717950100130525D1631AF400EF70C0
:104E0C00F111A6851795010013058519E1B7EF700F
:104E1C00F110A285179501001305851B65BF411183
:104E2C0022C426C22E84AA8497950100938505EC92
:104E3C0017950100130545CD06C6EF70310E2945B7
:104E4C00EF70F11197F7FF1F239A97D297F7FF1F77
:104E5C00239487D285478545014517F7FF1F231EED
:104E6C00F7D0EF1010380545EF20107797F7FF1F9C
:104E7C009387C79ADC4703D70700C167FD176312F6
:104E8C00F7022244B7E70400B240924403A387051B
:104E9C0017F5FF1F034505CE1306000A8545410192
:104EAC000283B2402244924441018280397106DE71
:104EBC0022DC26DAEF30C02459C5930750FAA3063A
:104ECC00A10021812306F1002307A100930720F8FC
:104EDC0089440545A307F10023089100EF10B03D6C
:104EEC003335A000A308A1000545EF10103B2309A2
:104EFC00A100EFC0C06221C5714681454808EFD0C2
:104F0C000FF397F7FF1F93876791DC477D5483D787
:104F1C000700231C8100231BF100EF20405893074E
:104F2C004006230DA100A30D91003ECE2302810269
:104F3C00EF2020691D466C004808EF2020599D4544
:104F4C006800EF207063F2506254D2542161828069
:104F5C00011122CC37E404005C5C06CE35469795F3
:104F6C0001009385A5EC17A501001305E5C78297F1
:104F7C0011E101A097F7FF1F938747ED3EC48567AA
:104F8C00938707C097050000938525E217A50000BD
:104F9C001305056D3EC6EFA0406BB7F507008146C3
:104FAC000A86E105194597E0FF1FE78000E87C447D
:104FBC0019468A85170500201305C5B88297340059
:104FCC000A8697A501009385A58A17A501001305EC
:104FDC00A58BEF40E0112A840DC9979501009385AC
:104FEC0065D917950100130525B2EF702173A285C1
:104FFC0017950100130585E4EF7041722945EF7098
:10500C000176F240624405618280EFB0202C179546
:10501C0001001305A5D9EF30A02CEF702017EF106D
:10502C00314B17E5FF1F1305257CEF101138179531
:10503C0001001305A5D8EF10714B2A84EF305007EF
:10504C00EFD08070EF30D16AEF401024EF309066D3
:10505C00EFF0704D979501009385C5D11795010020
:10506C00130585AA09C8EF70616BA285179501001D
:10507C00130505DF51B7EF70616A17950100130531
:10508C0065E0EF70A1692945EF70616DEFF01030AC
:10509C00EFC0E04829C985450145EF10901497955C
:1050AC000100938525CD179501001305E5A5EF703B
:1050BC00E16617950100130565DEEF702166294541
:1050CC00EF70E169979501009385C5CA17950100AA
:1050DC00130585A3EF70816417950100130545DE58
:1050EC00EF70C16321BF8145EF10B00F97950100A0
:1050FC00938545C817950100130505A1EF70016252
:10510C0017950100130505F0EF7041612945EF700B
:10511C0001650145EF20504C75B7011122CC37E4E5
:10512C0004008327041A06CE8297EF20F0248327ED
:10513C00040817F5FFFF1305856D829797F7FF1F7E
:10514C00238AA7A217E5FF1F1305456DEF20807476
:10515C000135EF20F07A2A84EFC0603C979501006E
:10516C00938545C255C5179501001305E599EF7058
:10517C00E15AA285179501001305859DEF70015A20
:10518C002945EF70C15DB7F5070030008146E10598
:10519C00194597E0FF1FE78040C99795010093855B
:1051AC0065BE1795010013052596EF70215703482E
:1051BC00D1008347C1000347B1008346A1000346D9
:1051CC00910083458100179501001305659CEF70D4
:1051DC00E1542945EF70A158EF100075EF10F0362F
:1051EC00EF10903E17250000130545B3EF10701B10
:1051FC00B7E70400BC4F130620039305001017F506
:10520C00FF1F034525978297F24062440561828017
:10521C00179501001305458FEF704150179501004C
:10522C0013050595EF70814FA1BF9946AA872E876C
:10523C00328863F5B602834805009306500A639FD3
:10524C00D80083483500930620086399D80083481A
:10525C00450089466394D8008146CDA2814642869A
:10526C00BA853E8595AE411122C406C6834705001A
:10527C002A849DC3979501009385C5AC17950100B1
:10528C0013058588EF7081494C4017950100130573
:10529C0065DAEF70A148D9A05841B707CF009387C2
:1052AC00777D6310F708979501009385A5A917954D
:1052BC00010013056585EF7061461C448356E400BC
:1052CC008355C40003C6070017950100130505D8C4
:1052DC00EF70C1442945EF7081480356E4008355B3
:1052EC00C40008449937EF20B0618357E40063830E
:1052FC00A70A4DC118449307500A83460700639BC5
:10530C00F6088347270083461700A207D58F63034F
:10531C00F5088355C4002244B2403A8541016F2000
:10532C00B025B707CC009387777D631FF70297955D
:10533C000100938525A1178501001305E57CEF700D
:10534C00E13D1C448356E4008355C40003C60700AA
:10535C0017950100130585CFEF70413C2244B240F4
:10536C00294541016F70A13FB707CE009387777D28
:10537C006302F702979501009385C59C1785010080
:10538C0013058578EF7081394C4017950100130592
:10539C00A5BC01B7B2402244410182809946AA873C
:1053AC002E8763F6B602034605009306500A631077
:1053BC00D6020346350093062008631AD60003462E
:1053CC00450089466315D6008546014685A8854665
:1053DC000146BA853E8509A4797122D426D24AD0D9
:1053EC002E842A898145B2844800714606D6EFD0B6
:1053FC000FA497E7FF1F93876742DC4783D707000B
:10540C00231421012313F100EF2060098947A30520
:10541C00F100930740063EC6FD572305A100230A61
:10542C00F100EF20001A2686A2854800EF20000A22
:10543C00B25022549254025945618280994763FCC0
:10544C00B718797106D622D426D24AD04ECE52CC79
:10545C0056CA5AC8034B05009307500A6312FB0641
:10546C000347350093072008631CF70403474500E6
:10547C0089476317F7048344250083471500B689D1
:10548C00A204B28A2E8A2A84DD8CEF2070472A89E6
:10549C006391090C6310550597950100938585CB95
:1054AC001785010013054566EF704127CA851795CE
:1054BC0001001305A5CDEF7061262945EF70212A57
:1054CC00B250225492540259F249624AD24A424B87
:1054DC0045618280639EA404834734009795010044
:1054EC00938545C717850100130505622306F10056
:1054FC0083474400A306F100834754002307F100BF
:10550C0083476400A307F100EF7041215686A685FE
:10551C0017950100130585C9EF7041202945EF70DF
:10552C000124A686568691456800EF10B02D49BF20
:10553C0083470400E39667F983472400034714006C
:10554C00A207D98FE30EF5F6D2852285EF20D00283
:10555C0085BF6399A4048347340097950100938514
:10556C0065BF178501001305255A2306F1008347F3
:10557C004400A306F100834754002307F10083473E
:10558C006400A307F100EF706119A685179501005F
:10559C00130585C5EF7081182945EF70411CA6864F
:1055AC00014651B7979501009385C5BA178501003F
:1055BC0013058555EF708116A68517950100130507
:1055CC00E5C5EF70A1152945EF7061195286A285CA
:1055DC0026851935F5B5828099E16F102015B7E74E
:1055EC0004001171FC47A2DD2E8486DFAA85A6DBA0
:1055FC00CAD9CED717F5FF1F13054545D2D5D6D33B
:10560C00DAD1B2842286B689829797950100938568
:10561C0065B6178501001305254F17F9FF1F0349C0
:10562C00E942EF70A10F179701001307E7C16386DA
:10563C000900179701001307A7C1A6862286CA8501
:10564C0017950100130545C1EF70410D2945EF7009
:10565C000111E39F091C9307E90793F7F70F130751
:10566C009002E366F71A17970100130727A08A0721
:10567C00BA979C43BA9782878D476303F402979538
:10568C000100938525AF178501001305E547EF70E1
:10569C00E10817950100130525BFEF702108A9A695
:1056AC0097950100938505AD178501001305C54538
:1056BC00EF70C10617950100130585BEEF7001064A
:1056CC002945EF70C109930720F8114697F5FF1F84
:1056DC009385C537268517F7FF1F2309F73697F7EC
:1056EC00FF1FA3860736CD392A840DC59795010077
:1056FC00938545A81785010013050541EF7001023C
:10570C00A28517950100130565BDEF702101294590
:10571C00EF70E104979501009385C5A517850100ED
:10572C001305853EEF60917F17950100130545BC6D
:10573C00EF60D17E2945EF7081024165930730FA05
:10574C00054697F5FF1F938565307D1517F7FF1FED
:10575C00230EF72E51312A840DC5979501009385A0
:10576C0065A1178501001305253AEF60317BA285F1
:10577C0017950100130585B6EF60517A2945EF6046
:10578C00117EB7E70400BC4F0566130606C8A14599
:10579C0017E5FF1F0345053E829785A891476301D6
:1057AC00F402979501009385E59C1785010013057C
:1057BC00A535EF60B176179501001305A5B6F1BDBF
:1057CC00B7E70400FC4F914517E5FF1F0345853AE9
:1057DC008297979501009385E5991785010013052C
:1057EC00A532EF60B17317950100130565B5EF6035
:1057FC00F1722945EF60B176EF10B05C914517F569
:10580C00FF1F1305A524EF202057FE506E54DE54C5
:10581C004E59BE592E5A9E5A0E5B11618280854795
:10582C006301F402979501009385C59417850100D7
:10583C001305852DEF60916E179501001305C5B109
:10584C00A9BD97E7FF1F239E9732B7E704000566B3
:10585C00BC4F130606C8C14525BF8D476301F40232
:10586C009795010093850591178501001305C529AE
:10587C00EF60D16A179501001305C5AF39BD9307C9
:10588C0040F8114697F5FF1F9385451C268517F7A1
:10589C00FF1F230DF71A97F7FF1FA38A071AEFF0C4
:1058AC00BFB32A843DD1979501009385A58C1785AC
:1058BC00010013056525EF607166A285179501003F
:1058CC001305C5A1EF60916505A291476301F40230
:1058DC00979501009385058A178501001305C5224C
:1058EC00EF60D16317950100130545AA7DB3B7E7A7
:1058FC000400FC4F9305000217E5FF1F03458527A5
:10590C008297979501009385E5861785010013050D
:10591C00A51FEF60B160179501001305E5A8C1BD87
:10592C00894763E18702979501009385A5841785C4
:10593C0001001305651DEF60715E179501001305DD
:10594C00E5A7A1BB17F9FF1F0349691097F7FF1FC4
:10595C0083C7D70F979501009385C58122091785B9
:10596C0001001305651A3369F900EF60315BA285FC
:10597C00179501001305C5A5EF60515A4209294539
:10598C0013590941EF60B15D131A09019D47135A70
:10599C000A0163F9870817F7FF1F0347570B930793
:1059AC00500A6311F70817FBFF1F034B6B0A97F99B
:1059BC00FF1F83C9F909EF20A074AA8A635A200338
:1059CC006302AA06978501009385C57A17850100A5
:1059DC0013058513EF6091545686D28517950100F7
:1059EC001305C5A0EF6091532945EF60515731BDA8
:1059FC00C167FD176318FA02A209B3E96901639341
:105A0C00A902978501009385E5761785010013059A
:105A1C00A50FEF60B1504E86CE851795010013058A
:105A2C00E59FC9B79305D4FFD286268693F5F50F6B
:105A3C0017F5FF1F1305B501EF10C05C635020096B
:105A4C00930750F817F7FF1F2302F70097F7FF1F74
:105A5C009387C7FF83C73700228697F5FF1F93856F
:105A6C00E5FE8507268517F7FF1FA302F7FEEFF06B
:105A7C00BF962A840DC5978501009385A56F178560
:105A8C00010013056508EF607149A28517950100A7
:105A9C001305459DEF6091482945EF60514C978562
:105AAC0001009385256D178501001305E505EF6051
:105ABC00F146179501001305E59BC5B697850100C6
:105ACC009385456B1785010013050504EF6011459F
:105ADC00179501001305859AC9B6894763E18702BA
:105AEC009785010093850569178501001305C5018C
:105AFC00EF60D142179501001305C59879BEEF10E0
:105B0C00502CA285EDB98D476301F40297850100F5
:105B1C009385456617850100130505FFEF6011405D
:105B2C00179501001305C5978DBEB7660200014697
:105B3C00B7750200054597D0FF1FE780002F93072C
:105B4C0060F817F7FF1F2303F7F097F7FF1FA380E9
:105B5C0007F09307000617F7FF1F230BF7EE894793
:105B6C0017F7FF1FA306F7EE97F7FF1F238307EE28
:105B7C0097F7FF1FA38F07ECC14717F7FF1F230BE6
:105B8C00F7EC930730F817F7FF1FA305F7EC314636
:105B9C0097F7FF1FA381A7EC97F5FF1F938505EBE4
:105BAC00268597F7FF1F238807EAEFF0FF822A84E8
:105BBC00E30D05C4978501009385C55B178501002E
:105BCC00130585F4EF609135A28517950100130537
:105BDC00A58ECDB9B1476301F40297850100938579
:105BEC00655917850100130525F2EF6031331795C0
:105BFC0001001305258E55B4B7E70400FC4F93053F
:105C0C00000417E5FF1F0345E5F68297EF10701BA4
:105C1C00B145F5B6914763E18702978501009385FD
:105C2C00655517850100130525EEEF60312F17958B
:105C3C0001001305E58B95B417F9FF1F034949E1E2
:105C4C0097F7FF1F83C7B7E022093369F900B7E75D
:105C5C000400FC476D14228697F5FF1F938555DFD2
:105C6C0028008297931604010E09B7650200C182C1
:105C7C003000CA95094597D0FF1FE780001B93079A
:105C8C0070F817F7FF1F2303F7DC194697F7FF1F70
:105C9C00A380A7DC97F5FF1F938545DB2685EFF0E6
:105CAC00AFF32A84E30305B6978501009385854CF1
:105CBC0017850100130545E5EF605126A285179560
:105CCC00010013052584FDBE9947630EF40E9785DC
:105CDC0001009385254A178501001305E5E2EF6065
:105CEC00F123179501001305658345BA914763E1CC
:105CFC008702978501009385E547178501001305F9
:105D0C00A5E0EF60B121179501001305A58271B2D2
:105D1C0017F9FF1F0349C9D397F7FF1F83C737D361
:105D2C0022093369F900B7E70400FC476D14228699
:105D3C0097F5FF1F9385D5D1280082979316040100
:105D4C000E09B7650200C1823000CA950D4597D087
:105D5C00FF1FE780800D930780F817F7FF1F2307BD
:105D6C00F7CE194697F7FF1FA384A7CE97F5FF1F11
:105D7C009385C5CD2685EFF02FE62A84E30705A889
:105D8C00978501009385053F178501001305C5D73D
:105D9C00EF60D118A285178501001305E57A1DB6B1
:105DAC0099476302F402978501009385A53C1785FA
:105DBC000100130565D5EF607116178501001305F9
:105DCC00257A6FF09F8DB7E70400FC4F9305000414
:105DDC0017E5FF1F034505DA8297EF10807E994582
:105DEC0039BC8D476302F402978501009385853891
:105DFC0017850100130545D1EF605112178501007D
:105E0C00130585776FF07F890145EFD09FE930004E
:105E1C0091469D652D4597D0FF1FE78000019306A5
:105E2C00001001469D65254597D0FF1FE780E0FFD8
:105E3C00914630009D6529452304810097D0FF1FB2
:105E4C00E780A0FE294597D0FF1FE78020ED97D073
:105E5C00FF1FE780C0D655BA99476302F4029785B5
:105E6C00010093852531178501001305E5C9EF6005
:105E7C00F10A17850100130525716FF01F8217F7C2
:105E8C00FF1F0347F7BC97F7FF1F83C767BC2207A9
:105E9C005D8F9166BA96C2061166C1821306F6EF43
:105EAC008D476366D60297E7FF1F938727979C4B16
:105EBC0017F6FF1F0346B6B99386C70031CE03D63B
:105ECC000700E30006008907E39BD7FE8947130709
:105EDC00A0F8114697F5FF1F938545B7268597F6D1
:105EEC00FF1F2385E6B617F7FF1FA302F7B6EFF0E7
:105EFC00AFCE2A84E30B0590978501009385852707
:105F0C0017850100130545C0EF605101A285178567
:105F1C0001001305A5687DB203D607006301E67E78
:105F2C008907E39BF6FE8D475DB791476302F40248
:105F3C009785010093850524178501001305C5BCC1
:105F4C00EF60C17D178501001305C5666FF0EFF496
:105F5C00B7E70400FC4F9305000817E5FF1F034546
:105F6C0065C182976FF05F898D476302F402978554
:105F7C00010093852520178501001305E5B8EF6016
:105F8C00E17917850100130565646FF00FF1930734
:105F9C00B0F8194697F5FF1F938545AB268517F783
:105FAC00FF1F2305F7AA97F7FF1FA38287AA97F76E
:105FBC00FF1F238F87A897F7FF1FA38B07A8EFF06E
:105FCC00AFC12A84E3030584978501009385851A64
:105FDC0017850100130545B3EF604174A285178541
:105FEC00010013052560F9B89947E308F4DE97859D
:105FFC00010093852518178501001305E5B0EF60A6
:10600C00E171178501001305A55F6FF00FE9978506
:10601C00010093852516178501001305E5AEEF6089
:10602C00E16FCA85178501001305455F6FF09F89E5
:10603C009307090693F7F70F3D476363F7661787D6
:10604C0001001307270D8A07BA979C43BA978287DA
:10605C009D476302F402978501009385A51117856E
:10606C000100130565AAEF60616B1785010013052C
:10607C00A55C6FF08FE297F7FF1F83C7379DD1CFD9
:10608C0017F7FF1F0347B79C97F7FF1F83C7279C82
:10609C0022075D8F97F7FF1F83C7879BC2075D8F12
:1060AC0097F7FF1F83C7D79AE207D98F17E7FF1F10
:1060BC00232EF7AC97F7FF1F9387479983C7670089
:1060CC00978501009385050B178501001305C5A362
:1060DC0017E7FF1F230AF7AAEF60416497E7FF1F3A
:1060EC009387C7AA8C4317E6FF1F0346E6A91785BB
:1060FC00010013052556EF6061622945EF602166AA
:10610C0097F7FF1FA3840794930700F817F7FF1F57
:10611C00230EF7929D456FF08FEEEF30603D97F7B1
:10612C00FF1F2386A7929357850017F7FF1FA30025
:10613C00F792935705012A8417F7FF1F230AF7904C
:10614C0093578501179501000355A54C17F7FF1FB1
:10615C00A300F790EF30803A97F7FF1F238BA78EA1
:10616C009785010093850501178501001305C599D5
:10617C00EF60C15A17F6FF1F0346A68DA28517853F
:10618C0001001305A54E85BFCD476302F402978528
:10619C000100938525FE178501001305E596EF6038
:1061AC00E157178501001305E54D6FF00FCF37E46C
:1061BC0004007C44414697F5FF1F9385358917F5FC
:1061CC00FF1F1305E59E829797F7FF1F83C727894B
:1061DC0017F7FF1F03479788A207D98F17E7FF1FF1
:1061EC002313F79A1306000A3C4C89456FF04FDADB
:1061FC008D476316F4C817F4FF1F0344448597F7C3
:10620C00FF1F83C7B784978501009385A5F62204E9
:10621C00178501001305458F5D8CEF602150A28519
:10622C001785010013058547EF60414F2945EF6045
:10623C0001530D4697F5FF1F938545812285EFF09D
:10624C00AF99AA8415C1978501009385A5F217858E
:10625C0001001305658BEF60614CA6851785010065
:10626C00130545456FF00FE697E7FF1F239B8790BB
:10627C00B7E704001166BC4F130606E891456FF0B2
:10628C002FD18D47631EF4DC17E4FF1F0344247CDD
:10629C0097E7FF1F83C7977B97850100938585ED53
:1062AC00220417850100130525865D8CEF600147DC
:1062BC00A2851785010013052541EF60214629456C
:1062CC00EF60E1490D4697E5FF1F93852578228500
:1062DC00EFF08F90AA8415C197850100938585E90D
:1062EC001785010013054582EF604143A68517858C
:1062FC0001001305E53E6FF0EFDC97E7FF1F2391DC
:10630C008788B7E704001166BC4F130606E89305AF
:10631C0000026FF0EFC7894763F787E097E4FF1F30
:10632C0083C4E47297E7FF1F83C7577297850100F8
:10633C00938545E4A204177501001305E57CDD8CFB
:10634C00EF60C13DA685178501001305E53AEF60A6
:10635C00E13C2945EF60A140228697E5FF1F93851C
:10636C00E56E2685EFF04F872A84630005CA978572
:10637C000100938525E0177501001305E578EF60A2
:10638C00E139A28517850100130585386FF08FD38D
:10639C008D47631DF4F617E4FF1F0344446B97E726
:1063AC00FF1F83C7B76A978501009385A5DC22047C
:1063BC0017750100130545755D8CEF602136A285BC
:1063CC001785010013050536EF6041352945EF604F
:1063DC0001390D4697E5FF1F938545672285EFE050
:1063EC00BFFFAA8415C1978501009385A5D81775A1
:1063FC00010013056571EF606132A68517850100F8
:10640C001305C5336FF00FCC97D7FF1F239C8776EE
:10641C00B7E704001166BC4F130606E893050004A9
:10642C006FF00FB79147978501009385A5D4177529
:10643C0001001305656D63FA87FEEF60212EA285BE
:10644C001785010013050531EF60412D2945EF60DB
:10645C00013197E4FF1F83C4845F97E7FF1F83C755
:10646C00F75EA204DD8C228697E5FF1F9385055EFF
:10647C002685EFE07FF62A8435C997850100938540
:10648C0065CF1775010013052568EF602129A285DA
:10649C00178501001305452D6FF0CFC29147E3FA24
:1064AC00878497E4FF1F83C4845A97E7FF1F83C731
:1064BC00F759A204DD8C228697E5FF1F93850559B9
:1064CC002685EFE07FF12A8415C19785010093851D
:1064DC0065CA1775010013052563EF602124A28599
:1064EC0017850100130585296FF0CFBD97D7FF1FC6
:1064FC00239A976831BF8D47E318F48E97E7FF1FF7
:10650C0083C7E754A20717E5FF1F034535540D4613
:10651C0097E5FF1F938585535D8DEFE0FFEB2A8494
:10652C00630505AE978501009385C5C417750100F9
:10653C001305855DEF60811EA2851785010013058B
:10654C0025256FF02FB89947E31BF49017E4FF1F34
:10655C000344E44F97E7FF1F83C7574F978501000C
:10656C00938545C12204177501001305E5595D8C0F
:10657C00EF60C11AA2851785010013056522EF6033
:10658C00E1192945EF60A11D194697E5FF1F938579
:10659C00E54B2285EFE05FE4AA8415C197850100E5
:1065AC00938545BD1775010013050556EF6001175E
:1065BC00A685178501001305E51F6FF0AFB097D7BF
:1065CC00FF1F2397875CB7E704001166BC4F1306C7
:1065DC0006E8930500086FF0AF9B8D47E319F4981C
:1065EC0017E4FF1F0344A44697E7FF1F83C7174612
:1065FC0097850100938505B82204177501001305D2
:10660C00A5505D8CEF608111A285178501001305E3
:10661C00A51BEF60A1102945EF60611422850D4682
:10662C0097E5FF1F93858542EFE01FDB2A84630EFD
:10663C00059C978501009385E5B31775010013053B
:10664C00A54CEF60A10DA285178501001305451916
:10665C006FF04FA78547978501009385A5B11775F6
:10666C0001001305654A630AF400EF60210B1785DE
:10667C000100130565186FF04F82EF60210A178532
:10668C0001001305E518EF6061092945EF60210D44
:10669C0097D7FF1F2399074EEF20F0596FF0EF9615
:1066AC0097850100938505AD177501001305C54548
:1066BC00EF60C106CA85178501001305A5166FF09A
:1066CC006FA02390E70017D5FF1F13052515EFE0EA
:1066DC00E069978501009385E5A9177501001305FD
:1066EC00A542EF60A1031785010013056515EF6046
:1066FC00E1022945EF60A10681476FF04FFD239021
:10670C00070017D5FF1F13056511EFE0206697856D
:10671C000100938525A6177501001305E53EEF5082
:10672C00F17F1785010013052513D1B78280411124
:10673C0026C217D7FF1F1307671093144500B30722
:10674C009700944706C622C405466382C60889CAC8
:10675C0009476386E610B24022449244410182808C
:10676C00038547003A847D57630CE50003C6570048
:10677C0081468145133616001375F50FEFD02FB3F4
:10678C0033059400834615000347550083572500B5
:10679C0085E2B716004019C703A7C60AD98F23A6EE
:1067AC00F60A55BF03A7860AD98F23A4F60A65B744
:1067BC00B716004019C703A7C60CD98F23A6F60C31
:1067CC0059BF03A7860CD98F23A4F60C69B7038590
:1067DC0047007D5783C65700630CE50283C5C7008D
:1067EC009307F00F1375F50FB385F5029307400669
:1067FC00B3C5F50293F5F50F89CA854601462244C7
:10680C00B240924441016FD08FAA85460546C5BF60
:10681C0003D7270083C7170095E389CAB716004032
:10682C0083A7860A5D8F23A4E60A35B7B716004006
:10683C0083A7C60A5D8F23A6E60A31BF89CAB7169D
:10684C00004083A7860C5D8F23A4E60C29B7B716EE
:10685C00004083A7C60C5D8F23A6E60CEDBD038517
:10686C0047007D57E309E5EE83C5C7001307F00F1A
:10687C0083C75700B385E502130740061375F50F60
:10688C008546B3C5E50293F5F50FC9D385BF93F7DC
:10689C001500C9CB797122D426D24AD04ECE52CC17
:1068AC0056CA5AC85EC606D6AE892A8917D4FF1FA7
:1068BC001304C4F88144894A130B3006854B0D4AE6
:1068CC001C44639257030347D4008347C40029E751
:1068DC006366FB0085072306F40019A0A306740168
:1068EC0013F5F40FA93585044104E39B44FDB7E788
:1068FC000400BC4F4A851306000285458297B250AE
:10690C00225413C5190092540259F249624AD24AD0
:10691C00424BB24B4561828099C3FD176DBFA306F4
:10692C0004007DBF01458280411122C426C24AC0A9
:10693C0006C617D4FF1F130464F017D9FF1F1309E1
:10694C00E9F2B714004083471400035524008D4529
:10695C00B5E7EFC05FF8034754008357240029CBF9
:10696C0003A7C40AD98F23A6F40A4104E31D24FD0E
:10697C00B75700403547A381E7000145EFD06F8A38
:10698C0037E404008327040817050000130565F09D
:10699C00829797D7FF1FA38EA71E0323840522443B
:1069AC00B24092440249130600028545410102831C
:1069BC0003A7840AD98F23A4F40A45BFEFC01FFC98
:1069CC00034754008357240019C703A7C40CD98F5D
:1069DC0023A6F40C59BF03A7840CD98F23A4F40C61
:1069EC0069B70947636DA7069316450097D7FF1F34
:1069FC009387C7E4B6974111944722C406C68CC747
:106A0C002A8497D7FF1F83C7C71817D5FF1F0345C5
:106A1C005518639CE6026388D50085CFFD1717D700
:106A2C00FF1F2308F71697D7FF1F83C7871695C339
:106A3C00B7E70400BC4F13060002854582972285F8
:106A4C002244B24041016FF09FCEE39EE5FC8507E6
:106A5C00F9B7B7E70400FC4F85458297CDB7828024
:106A6C00894763EBA70297D7FF1F938727DD13177F
:106A7C004500130840063386E700AE866374B80001
:106A8C0093064006BA979C472306D6000547FD1788
:106A9C006364F7006FF0BFC98280894763EBA7007E
:106AAC0097D7FF1F938787D912053E950345C500DD
:106ABC00828001458280894763EAA70097D7FF1F30
:106ACC009387C7D712053E95084582800145828081
