:041000006F10C04E5F
:10100400000000000000000090200020442C00207C
:10101400A9BDF9F3942000200000000000000000A6
:10102400962000209820002000000000000000000E
:101034009A200020000000009C20002000000000F6
:101044009E200020A0200020A2200020A420002018
:10105400A6200020A8200020AA200020AC200020E8
:10106400AE200020B0200020B2200020B4200020B8
:101074004C2D0020B8200020BA200020BC200020E5
:10108400BE200020C0200020C2200020C420002058
:1010940001A001A001A001A001A001A001A001A044
:1010A40001A001A001A001A001A001A001A001A034
:1010B40001A001A001A001A001A001A001A001A024
:1010C40001A001A001A04111B7170040985F3AC6E2
:1010D400945F3247E39CE6FE324541018280411130
:1010E400814601468145114506C6EF009054B72755
:1010F400004011472383E780B7F700E003A707D137
:101104006D9B23A8E7D003A707D15D9B23A8E7D055
:101114007300501001000100B2404101828041116E
:10112400814601468145114506C6EF009050B72718
:10113400004011472383E780B717004003C7E70245
:1011440003C6E70483D7870391661377F70F136603
:10115400360063E5D700719B13671700F326008000
:10116400A18A972700009387A79F99CAF326008036
:101174009725000023A6D59E9443DD9A739006809C
:101184000F100000B7160040930570052380B604C5
:10119400930580FA2380B6040F1000002382060210
:1011A40023800604F32500809443A18ACD8E739096
:1011B40006809726000023A5069A0F100000F32648
:1011C4000080A18A99CAF32600809725000023A9EC
:1011D400D5989443DD9A739006800F100000B716DB
:1011E4000040930570052380B604930580FA23809C
:1011F400B6040F1000002387E6022387C604238069
:101204000604F32600809843218B558F73100780C2
:1012140017270000232607940F100000732700806F
:10122400218B19CB732700809726000023AAE6920E
:1012340098435D9B731007800F1000003717004020
:10124400930670052300D704930680FA2300D7047D
:101254000F1000008346B70493E60602A305D704E3
:1012640023000704F32600809843218B558F7310C5
:101274000780172700002325078E0F10000037F77B
:1012840000E0832607D193E646002328D7D083269F
:1012940007D1DD9A2328D7D0730050100100010034
:1012A40073270080218B19CB7327008097260000B9
:1012B40023A8E68A98435D9B731007800F100000F3
:1012C40037170040930670052300D704930680FA6D
:1012D4002300D7040F1000008346B70493F6F60DDD
:1012E400A305D70423000704732700809C43A18B24
:1012F400D98F739007809727000023A307860F10C8
:101304000000B240410182800111B7F5070026CAEE
:101314008146AA840A86E105194506CE22CC4AC82C
:1013240002C023120100EF00D030B717004003C7FA
:10133400E70413673700F3270080A18B172400000C
:101344001304048299CBF32700809726000023A975
:10135400F6801C40DD9B739007800F100000B717C8
:101364000040930670052380D704930680FA2380F7
:10137400D7040F1000002382070223800704F326FA
:1013840000801C40A18BD58F7390078097170000B5
:1013940023A8077C0F100000F3270080A18B99CBB2
:1013A400F32700809716000023ACF67A1C40DD9BDF
:1013B400739007800F100000B71700409306700564
:1013C4002380D704930680FA2380D7040F100000EB
:1013D4002387E70423800704F32600801840218B29
:1013E400558F7310078017170000232B07760F10F3
:1013F4000000B7F600E003A706D11367470023A84F
:10140400E6D003D50702E577910713750560458D8E
:101414005D8D420541810100F3270080A18B99CBAA
:10142400F327008017170000232CF7721C40DD9B64
:10143400739007800F100000B71700401307700562
:101444002380E704130780FA2380E7040F100000C9
:1014540003C7F70013670704A387E70003C7B704AC
:1014640013670702A385E7042390A70223800704D8
:10147400732700801C40A18BD98F73900780971726
:10148400000023AF076C0F100000B7F4070037F912
:1014940000E0E104832709D1DD9B2328F9D0730000
:1014A4005010010001001305C012EF00D006814660
:1014B4003000A685194502C423160100EF007017F9
:1014C40022478247E318F7FCF3270080A18B99CBCE
:1014D400F3270080171700002324F7681C40DD9BC6
:1014E400739007800F100000B717004013077005B2
:1014F4002380E704130780FA2380E7040F10000019
:1015040003D70702460745832390E7022380070495
:10151400732700801C40A18BD98F73900780971785
:10152400000023AF07620F100000F3270080A18B97
:1015340099CBF3270080171700002323F7621C4080
:10154400DD9B739007800F100000B717004013074E
:1015540070052380E704130780FA2380E7040F1043
:10156400000003C7B7041377F70DA385E7042380AE
:101574000704732700801C40A18BD98F73900780C8
:101584009717000023AE075C0F1000005145612738
:10159400F2406244D244424905618280411126C22C
:1015A40081460146AA848145114506C622C4EF003E
:1015B4005008371700408347E7028346E704035780
:1015C4008703116693F7F70F93E636006365C70048
:1015D400F19B93E7170073270080218B17140000F9
:1015E4001304045819CB732700801716000023290D
:1015F400E65618405D9B731007800F1000003717E4
:101604000040130670052300C704130680FA230064
:10161400C7040F10000023020702230007047326E7
:1016240000801840218B518F73100780171700001A
:10163400232807520F10000073270080218B19CB39
:101644007327008017160000232CE65018405D9B7A
:10165400731007800F100000371700401306700541
:101664002300C704130680FA2300C7040F100000E8
:101674002307F7022307D7042300070473270080F6
:101684001C40A18BD98F739007809717000023A962
:10169400074C0F10000013055002B92A37F700E079
:1016A400832707D193E747002328F7D0F327008047
:1016B400A18B99CBF3270080171700002322F74A48
:1016C4001C40DD9B739007800F100000B71700408B
:1016D400130770052380E704130780FA2380E704C7
:1016E4000F10000003C7F70013670704A387E70080
:1016F40023800704732700801C40A18BD98F73902B
:1017040007809717000023AD07440F100000F3274C
:101714000080A18B99CBF3270080171700002321A9
:10172400F7441C40DD9B739007800F100000B7172F
:101734000040130770052380E704130780FA238011
:10174400E7040F1000002567D98C239097022380AB
:101754000704732700801C40A18BD98F73900780E6
:101764009717000023AE073E0F10000037F700E084
:10177400832707D1DD9B2328F7D073005010010085
:10178400010081460146814511456525F327008006
:10179400A18B99CBF3270080171700002322F73C75
:1017A4001C40DD9B739007800F100000B7170040AA
:1017B400130770052380E704130780FA2380E704E6
:1017C4000F10000003C76704136717002383E7049F
:1017D40023800704732700801C40A18BD98F73904A
:1017E40007809717000023AD07360F100000B240A2
:1017F400224492444101828073270080218B9717F1
:1018040000009387E73519CB7327008097160000F3
:1018140023A8E63498435D9B731007800F100000E3
:1018240037170040930670052300D704930680FA07
:101834002300D7040F1000008346B70493F6F60D77
:10184400A305D70423000704732600809443A18AC8
:10185400D18E739006809716000023A306300F10D4
:101864000000937605026384061A0347A700118BD0
:1018740025EB73270080218B19CB732700809716E3
:10188400000023AFE62C98435D9B731007800F1074
:10189400000037170040930670052300D704930611
:1018A40080FA2300D7040F1000008346A70093E6B4
:1018B40046002305D70023000704F326008098433D
:1018C400218B558F7310078017170000232A0728D0
:1018D4000F1000001307004B010001007D176DFF7E
:1018E40073270080218B19CB732700809716000083
:1018F40023A8E62698435D9B731007800F10000011
:1019040037170040930670052300D704930680FA26
:101914002300D7040F1000007D892314A7000100C1
:1019240001000100010023000704F326008098430E
:10193400218B558F7310078017170000232207226D
:101944000F10000073270080218B19CB73270080B0
:101954009716000023A6E62098435D9B731007802A
:101964000F10000037170040930670052300D704BA
:10197400930680FA2300D7040F1000000F10000014
:10198400B726004013061005A383C680230007046E
:10199400F32600809843218B558F73100780171707
:1019A4000000232F071A0F10000073270080218BDB
:1019B40019CB732700809716000023A3E61A9843D7
:1019C4005D9B731007800F100000371700409306CB
:1019D40070052300D704930680FA2300D7040F1060
:1019E40000008346B70493E60608A305D704230042
:1019F4000704732700809C43A18BD98F73900780C1
:101A04009717000023AE07140F100000828093760E
:101A14000504638706160347A700418B25EB73274C
:101A24000080218B19CB732700809716000023A90F
:101A3400E61298435D9B731007800F100000371760
:101A44000040930670052300D704930680FA230010
:101A5400D7040F1000008346A70093E60601230570
:101A6400D70023000704F32600809843218B558F69
:101A740073100780171700002324070E0F100000AF
:101A84001307007D010001007D176DFF732700809F
:101A9400218B19CB732700809716000023A2E60C34
:101AA40098435D9B731007800F10000037170040A8
:101AB400930670052300D704930680FA2300D70405
:101AC4000F1000009376F50193E606042314D70063
:101AD400010001000100010023000704F326008037
:101AE4009843218B558F7310078017170000232903
:101AF40007060F100000130760046312E504732740
:101B04000080218B19CB732700809716000023A92E
:101B1400E60498435D9B731007800F10000037178D
:101B24000040930670052300D704930680FA23002F
:101B3400D7040F100000B72600400946B1B573273B
:101B44000080218B19CB732700809716000023A9EE
:101B5400E60098435D9B731007800F100000371751
:101B64000040930670052300D704930680FA2300EF
:101B7400D7040F100000B72600401306200529B52E
:101B840073270080218B19CB7327008097160000E0
:101B940023A8E6FC98435D9B731007800F10000098
:101BA40037170040930670052300D704930680FA84
:101BB4002300D7040F1000008356870093E6060C19
:101BC4002314D700E1B341118146014681451145F3
:101BD40006C68524F3270080A18B97160000938600
:101BE40026F899CBF327008017170000232AF7F66D
:101BF4009C42DD9B739007800F100000B7170040D4
:101C0400130770052380E704130780FA2380E70491
:101C14000F10000003C76704136717002383E7044A
:101C240023800704732700809C42A18BD98F739073
:101C340007809717000023A507F20F100000B24099
:101C4400410182808146014681451145DD22F32709
:101C54000080A18B17170000130787F099CBF32797
:101C640000809716000023ADF6EE1C43DD9B7390B5
:101C740007800F100000B7170040930670052380FB
:101C8400D704930680FA2380D7040F100000FD5672
:101C94002396D70223800704F32600801C43A18BDC
:101CA400D58F739007809717000023AB07EA0F10B6
:101CB4000000F3270080A18B99CBF32700809716AF
:101CC400000023AFF6E81C43DD9B739007800F10E0
:101CD4000000B7170040930670052380D7049306CD
:101CE40080FA2380D7040F10000083C6670493E6AC
:101CF40016002383D70423800704F32600801C43A3
:101D0400A18BD58F739007809717000023AA07E44F
:101D14000F10000001A0BD473305F50201007D1539
:101D240075FD8280411122C426C206C6AA840144DC
:101D340063179400B2402244924441018280050416
:101D44001305803E4204C13F4180DDB7B717004010
:101D5400130700032388E702854717170000232F82
:101D6400F7E073002030411122C406C63704002076
:101D74001C408297F5BF2303048015472303E480A6
:101D840001002302A480828083076480E3CE07FEDF
:101D940023030480828083076480E3CE07FE034527
:101DA4004480828083076480E3CE07FE2302A480FC
:101DB4008280411126C44AC24EC006C61377F50B71
:101DC400AD47AA892E8995446306F70019456537FE
:101DD400653F8D444E854537FD59FD1463983401A4
:101DE400B240A2441249824941018280135509013B
:101DF4001375F50F453F2209CDB7011126CC06CE48
:101E0400B704080051371545BD37713769372AC6FD
:101E1400A53F32459377150089EB136515001375BB
:101E2400F50FF240E24405618280FD14E9FC0145AE
:101E3400CDBF397126DC4ADA4ED852D656D45AD29E
:101E44005ED006DE62CE66CCB7E700E07D5783AA9B
:101E5400070022C603AA470023A0E71823A2E71815
:101E6400B7170040130770052380E704130780FAAF
:101E74002380E70483C74704930B75FFB684E20706
:101E840093FBFB0F8546AA892E8B328937240040A9
:101E9400E187015763FA76016308D5008946130781
:101EA40000026313D5000157D98F93F7F70FB71CBE
:101EB40000402382FC0411472303E4801305F00F40
:101EC4005D3D094CD135636D7C11B7050700DA958A
:101ED40037870700795563F2E504B3879500636E8D
:101EE400F702370B0800A94733EB65016399F9063C
:101EF40089E48144513D26850DA0DA850945553D87
:101F040005090345F9FFFD14050B693D81C4937769
:101F1400FB0FFDF7DD3569FD7D55B717004013074D
:101F240070052380E704130780FA2380E70403C7BE
:101F34004704418B2382E704F250B7E700E023A073
:101F4400571123A24711E25432445259C259325A0A
:101F5400A25A125B825B724CE24C21618280A547DB
:101F64006395F90685691309F00FB3069900B374F4
:101F74002B01B6941349F9FFB3749900856B337937
:101F84006901416B9387F9FFB3F7270199E363FC78
:101F9400340193D94900C147E3E637FF99BF056986
:101FA400C1697D19D9B71305800D638869011305CB
:101FB40000026384790113051008CA85DD3B353DB1
:101FC40021DD4E99B3843441D9B7DA852D45D53313
:101FD400CA94E30099F205097D3BA30FA9FED5BF7E
:101FE4009387F9FF93F7F70F6361FC0C83C71C0415
:101FF40013073008631FF70437070800636BEB040B
:10200400B3079B00B706100063F5D704334BEB000E
:1020140089476393F9068980D549E38C04ECDA8512
:102024000945413B11090327C9FF91472320E48057
:1020340003076480E34E07FE23033481FD17EDFBA1
:10204400FD14110B81C49377FB0FE9FF7D3371F508
:10205400E1B5B717004003C75704B7070800137763
:10206400070219E3B78707007955E378FBEA3307DA
:102074009B00E3FFE7F855B58547E382F9F2DA857B
:102084002D45053B9389F4FFE38504E6293393F753
:10209400390091EB83260480032709009307490044
:1020A400E39AE6E43E89CE84F1BFB5476396F9002E
:1020B4001305900BC93135BDB1471305B00AE38B45
:1020C400F9FE99476391F904B7050800B365BB00AD
:1020D4002D45C53181448D4BA149753963967401F1
:1020E400832704802320F9008504E39834FF8327A1
:1020F400048013172B01635507002312F900D5BB85
:102104002322F900FDB39D476399F9028145130524
:10211400B0044531BD442320090023220900FD59A0
:102124009D3993F77400CA9703C70700FD14398DCE
:102134002380A700E39634FF6DBBA1476392F904A3
:102144006D398144630D0B008D479304C00363080C
:10215400FB009304000563048B019304400413758E
:10216400C507E30895D81945393139390545213171
:1021740026850D3909453D314931E31C05D669BB36
:1021840091476399F90013056006F536F53E13058A
:1021940090090DB7E38F09D4F154A9BBBD6601477B
:1021A400173600001306867B938606A6854583476B
:1021B400060093F7F70F91C382800507E3F9E6FE63
:1021C40097370000238CB778DDB77D1662066186E9
:1021D40093178601E18763D4070001458280931732
:1021E40026003307F500AE9718439C4363E7E700E6
:1021F4007D16E37FF7FC7D55828005458280FD15C1
:10220400E205E18513978501618793F7F50F63482C
:102214000700FD15139725002A97584365D71385A2
:1022240017006205618582803308B5021C4283A8C9
:102234000600B335B502C29733B50701AE9846958B
:1022440085486367B5006394A50063E3070181488B
:102254000C43C6950CC388C21CC282808147139765
:10226400870161876343B7008280139727002A9709
:10227400232007008507E5B7814701479396870127
:10228400E18663C5B6001335170082809396270054
:10229400AA9694428507558FD5B793D755408A0798
:1022A400AA979C4305453315B5007D8D828017F3AD
:1022B400FFDFE702C3352A84993705C59317250044
:1022C4003E940327C4FF814711EB7D1516053E9507
:1022D4004205418517F3FFDF6700A33505838507B2
:1022E400E5B70145C5BF81471397870161876343FC
:1022F400C700828013972700B386E50094422A978B
:10230400850714C3D5B77D16620661860147931706
:102314008601E18763D50700133517008280931780
:102324002600B306F500AE9794429C437D16B58F04
:102334005D8FF1BF8A05AA9501476363B50082806A
:1023440083A6C5FFF11593D71600D98F9CC11397A7
:10235400F601E5B72A830148014701456343D700E5
:102364008280B387050183A80700B30706019C4355
:10237400C697AA976384F80033B517010507B30815
:102384000301620723A0F80061871108C1BF2A83F3
:1023940001478147014563C3D70082803388E50044
:1023A40083280800330EE600032E0E003388A8406D
:1023B4003308C8416384080133B508018507B308AD
:1023C400E300E20723A00801E1871107E9B717F347
:1023D400FFDFE702C3230111B286B2842E86AA85E9
:1023E4000A8575372A84A6850A85793533348000B1
:1023F400060413351500018D056117F3FFDF67002F
:10240400432317F3FFDFE702031E4111AA89AE8AB3
:10241400328BB68402C202C402C60144131C840176
:10242400135C8C4163499C02939B1400FD1B05497A
:10243400138CF4FFF15C3304890162046184634DFD
:10244400740592478E04CE9423AEF4FE410117F333
:10245400FFDF6700C31C13192400B30B2B01014ACF
:1024640093172A00D69783A50B008843780034007D
:1024740050005D3B050A93178A01E187F11BE35184
:10248400FCFE92474E9905042320F900A2473EC260
:10249400B24702C63EC459B7131A8901135A8A4176
:1024A400131D240093178A01E18763CF9700924795
:1024B4000A044E941CC0A24705091379F90F3EC2C1
:1024C400B24702C63EC485BFB3079A0313152A0058
:1024D40056950841780034005000050AEA97DA97C7
:0824E4008C439933C1B70000DD
:1024EC0097010020938141B1176100201301C1B005
:1024FC0017F5FFFF130585B0970500209385C5AF31
:10250C00171600201306C6FD63FAC50083220500CA
:10251C0023A0550011059105E3EAC5FE17D501006E
:10252C00130545F497150020938585FB171600209D
:10253C001306866163FAC5008322050023A05500AB
:10254C0011059105E3EAC5FE171500201305C55FBB
:10255C00975500209385C58F6377B5002320050020
:10256C001105E36DB5FEFD42739002BC8D42739074
:10257C004280B722000093828288739002309702C7
:10258C000020938262A793E2320073905230371787
:10259C000040930770052300F704930780FA23008B
:1025AC00F7040F1000003C47B70600FAE116F58F50
:1025BC00B70600069506D58F3CC79742000093825C
:1025CC006242739012346FB0F42273002030397170
:1025DC0001436EC619A0397141536AC866CA62CCF0
:1025EC005ECE19A0397101535AD056D252D44ED660
:1025FC004AD826DA22DC06DE3301614082824111A0
:10260C004AC026C222C406C68282B24D4101024D86
:10261C00924C224CB24B4101024B924A224AB24993
:10262C004101024992442244B240410182803D431F
:10263C002A876373C3029377F700BDEFADE59376FA
:10264C0006FF3D8ABA960CC34CC30CC74CC7410756
:10265C00E36BD7FE11E28280B306C3408A06970271
:10266C00000096966780A6002307B700A306B70064
:10267C002306B700A305B7002305B700A304B700D2
:10268C002304B700A303B7002303B700A302B700CA
:10269C002302B700A301B7002301B700A300B700C2
:1026AC002300B700828093F5F50F93968500D58DA6
:1026BC0093960501D58D61B793962700970200007C
:1026CC0096968682E78086FA9680C1171D8F3E9675
:1026DC00E374C3F8A5B73367B500FD530D8B79E7E9
:1026EC00B7877F7F9387F7F710419441B372F60059
:1026FC003363F600BE92B3E262006397720C631808
:10270C00D6065041D441B372F6003363F600BE9244
:10271C00B3E262006398720A631BD60410459445B9
:10272C00B372F6003363F600BE92B3E262006391BB
:10273C00720A631ED6025045D445B372F600336359
:10274C00F600BE92B3E26200639A72086311D6027D
:10275C0010499449B372F6003363F600BE92B3E2AB
:10276C006200639372085105D105E30FD6F6131777
:10277C00060193970601631CF7001357060193D7C4
:10278C0006013305F7409375F50F91E9828041837B
:10279C00C1833305F7409375F50F91E18280137770
:1027AC00F70F93F7F70F3305F740828003460500C8
:1027BC0083C60500050585056313D60065FA330548
:1027CC00D640828011059105E312D6FE0145828028
:1027DC002105A105E31CD6FC014582803105B1051C
:1027EC00E316D6FC014582804105C105E310D6FCF9
:1027FC000145828017150020034505350589828027
:10280C00171500200355453405810589828017155D
:10281C000020035565330981058982801715002036
:10282C00035585320D8105898280171500200355CB
:10283C00A531118105898280171500200355C530FB
:10284C00158105898280171500200355E52F198104
:10285C0005898280171500200355052F1D810589D8
:10286C008280171500200355252E21810589828031
:10287C00171500200355452D2581058982801715D4
:10288C0000200355652C29810589828017150020AD
:10289C000355852B2D81058982809717002083C7CE
:1028AC00373A171700201307A7353E9785072300E3
:1028BC00A70093F7F70F1307F0036367F7001717D9
:1028CC000020A30FF736828097170020A38A0736C3
:1028DC0082809717002083C7A7361717002003475D
:1028EC00373601456309F7021717002013074731E4
:1028FC003E9785070345070093F7F70F1307F0037F
:10290C006367F70017170020230CF73282809717A4
:10291C000020238707328280411106C6EF80F17BAD
:10292C00EF904117971700202390A72219C5930702
:10293C00200317170020230EF720971700209387EA
:10294C00272B9C4382970547AA876316E508171720
:10295C0000200347872A11E717170020230FF728B9
:10296C002D3F171700200357272921CF9717002039
:10297C0083D7672863F3E7028507C207C1839716DD
:10298C000020239AF626631EF702894717170020AA
:10299C002305F7260D4511372DA0171700200347E7
:1029AC00D72505C3971700209387872483C7C700B3
:1029BC00850793F7F70F63FAE70017170020230F2B
:1029CC00F722B24041016F803167971700202387AF
:1029DC0007220545C9B79717002083C7072299C757
:1029EC00094597170020238A0720453D971700209B
:1029FC00239307209717002023820720D9B7971716
:102A0C0000209387A7149443B717004003A6070B25
:102A1C0013C7F6FF798E23A8C70A03A6470B718F3D
:102A2C0023AAE70A03A7070A558F23A0E70A03A7DF
:102A3C00C70A558F23A6E70A828097170020938731
:102A4C00E7109C435971A6D28564C58F17170020D7
:102A5C00232EF70E9717002083D7870F93E71700C5
:102A6C0086D6171700202315F70ECAD0A2D4CECEC7
:102A7C00D2CCD6CA231F0102231001042311010456
:102A8C0023120104231301049D3F8D47A30FF10270
:102A9C009D472300F10493071010231EF1029307A6
:102AAC00803E51466C18BEC40808971700209387C7
:102ABC00A712BEC6EF90D1270808EF8071483146A7
:102ACC0097B50100938545E00A85EF9071260A853C
:102ADC00EF70916A9306803E0D4685450945EF805F
:102AEC00F1667D799307892BAA97C207C1831307D7
:102AFC0000196363F70CAA850145EF70D17BEF8059
:102B0C00B15397170020239D0712854717170020F4
:102B1C002302F70E9717002023A0070E971700200B
:102B2C00238E070C971700209387879B9C43B650E6
:102B3C00265417170020232DF70A96540659F649E8
:102B4C00664AD64A6561828063FDB4007D141374B5
:102B5C00F40FA285D1460D460945EF80315FAA8559
:102B6C003DA005041374F40F630B3403A285930684
:102B7C00803E0D460945EF80715DAA8519E063E042
:102B8C00AA02B3872501C207C183E36FFAFA014594
:102B9C00EF7071720D46A2850145EF7091768D45EF
:102BAC000565EF00B052371700408327C70A8566CA
:102BBC00D58F2326F70AA1B7993581450565938AE8
:102BCC0084EDEF00B05001441309F937130A602566
:102BDC00938474ED9309000251BF1715002003551F
:102BEC0025F71345F5FF93072003420541111717ED
:102BFC0000202300F7F64181854706C617170020F1
:102C0C00A309F7F4EF70516FEF801143B24041010B
:102C1C00FDB3411106C6EF803142D533B240971750
:102C2C000020A38807F217150020035565F2410117
:102C3C006F70916CB717004003C777051377E70FD8
:102C4C00A38BE704130700F8A38DE7043D47238CFF
:102C5C00E70413075003A38CE7048280B7170040E6
:102C6C0083C7E7040D8993F7C70FC98F73270080BB
:102C7C00218B971600209386E6ED19CB73270080E5
:102C8C00171600202328E6EC98425D9B73100780F2
:102C9C000F10000037170040130670052300C704FF
:102CAC00130680FA2300C7040F1000002307F70453
:102CBC0023000704732700809C42A18BD98F73904B
:102CCC0007809717002023A707E80F1000008280C9
:102CDC00B717004083C7E7020D8993F7C70FC98F59
:102CEC0073270080218B971600209386A6E619CBBC
:102CFC007327008017160020232EE6E498425D9B74
:102D0C00731007800F100000371700401306700572
:102D1C002300C704130680FA2300C7040F10000019
:102D2C002307F70223000704732700809C42A18B22
:102D3C00D98F739007809717002023AD07E00F10F1
:102D4C000000828041112A83014E930E407E130FA6
:102D5C000019930F400663EE6E14930800191303C9
:102D6C004006B3781503854E0D4FA14F33736502A2
:102D7C000D891335150063E8BE161308F6FF794666
:102D8C0072984208135808013307C70213D617006C
:102D9C00BE0732976146B3F6C60213068070B3863F
:102DAC00C6023697A166F58F42075D8FB7160040B5
:102DBC0083C7F60293F70708A307F1000346F10057
:102DCC0083C7F60293F70708E394C7FE8347F10025
:102DDC00B716004093F7F70F63810716F3270080AF
:102DEC00A18B971600209386E6D6639E07140F10CE
:102DFC000000B7170040130670052380C7041306A4
:102E0C0080FA2380C7040F10000023AA070303C60F
:102E1C00170313660608A388C702238007047326CA
:102E2C0000809C42A18BD18F739007809717002054
:102E3C0023A207D20F1000001166B71500407D16B3
:102E4C00DC59C85DA98FF18FE5FFF3270080A18BBA
:102E5C0099CBF327008017160020232DF6CE9C4229
:102E6C00DD9B739007800F100000B717004013060E
:102E7C0070052380C704130680FA2380C7040F1043
:102E8C000000D8DB03C7170313670704A388E70206
:102E9C0023800704732700809C42A18BD98F7390E9
:102EAC0007809717002023A707CA0F1000004101C5
:102EBC0082807D133368E3039308E016630E0800E9
:102ECC003368F3039308D016630808009378330033
:102EDC0093B818009388D81633081E01131E0801E6
:102EEC00135E0E018DBD6393E503054863860800F0
:102EFC000148630303002A8871087298FD15131E9C
:102F0C000801C205135E0E01C181B5B513F8150099
:102F1C0063F4BF007908D5B713381800E5BF83C731
:102F2C00F60293F70708A307F1000346F10083C7E5
:102F3C00F60293F70708E394C7FE8347F10093F773
:102F4C00F70FF1DF61BDF327008017160020232354
:102F5C00F6C09C42DD9B7390078051BD5971E2C451
:102F6C0086D6A2D4A6D2CAD0CECED2CCD6CADAC8F5
:102F7C00DEC6E6C2EAC06EDE2A8C02D6EF00B04D89
:102F8C00F3270080A18B171D0020130DADBC81CF42
:102F9C00F327008017170020232EF7BA83270D0084
:102FAC00DD9B739007800F100000B71700401307CC
:102FBC0070052380E704130780FA2380E7040F10C1
:102FCC00000003C7F7021377770FA387E70203C745
:102FDC00F70213678700A387E70223800704732790
:102FEC00008083270D00A18BD98F739007809717D2
:102FFC00002023A107B60F100000F3270080A18B3F
:10300C0081CFF3270080171700202325F7B48327DF
:10301C000D00DD9B739007800F100000B717004068
:10302C00130770052380E704130780FA2380E70455
:10303C000F10000003C7E7021377C70F2387E702BF
:10304C0003C7E702136717002387E70223800704EF
:10305C007327008083270D00A18BD98F7390078075
:10306C009717002023A807AE0F1000001308803E0E
:10307C00334605039307007D2167930550023D6994
:10308C0037440F0013040424856B130BA004916ABE
:10309C008149014A93047005FD1AB307F602B3C7C0
:1030AC00E702130780C13347E5023EC2930709A626
:1030BC00054933198901135939403307B70233478E
:1030CC00F702334585023AC413840BFA3314840196
:1030DC00811BB305B60233C7F50233048502130511
:1030EC0000103AC6330B66033344A4023347FB0289
:1030FC00130B80FA330404033AC813070008334750
:10310C00E4023309C9023ACA130760553309E902CC
:10311C00B347F90237190040130409043ECC732657
:10312C000080218A01CE732600809717002023A3EC
:10313C00C7A203260D005D9A731006800F100000C5
:10314C00930770052300F400230064010F100000A6
:10315C00034639051376860FA309C90403463905BE
:10316C0013661600A309C90423000400732500800C
:10317C0003260D00218A498E7310068097170020B4
:10318C0023AA079C0F100000916CE17D7326008030
:10319C00218A01CE732600809717002023ACC79A92
:1031AC0003260D005D9A731006800F100000930724
:1031BC0070052300F400230064010F100000034687
:1031CC00390513660602A309C904035609053366BB
:1031DC0096012318C904035609053366B601420645
:1031EC0041822318C90423000400732500800326A0
:1031FC000D00218A498E731006809717002023AB8F
:10320C0007940F1000000346390513760602630F6E
:10321C00061603463905218A6DDE6810EF00D027AB
:10322C0073260080218A01CE732600809717002018
:10323C0023A2C79203260D005D9A731006800F100F
:10324C00000023009400230064010F1000000346CB
:10325C0039051376F60DA309C9040346390513661F
:10326C000602A309C90403560905336696012318FF
:10327C00C904035609053366B60142064182231878
:10328C00C904230004007325008003260D00218A45
:10329C00498E731006809717002023AD078A0F10F4
:1032AC0000000346390513760602630F0610034629
:1032BC003905218A6DFE97F0FF1FE78040E02A86D2
:1032CC0032CE97F0FF1FE78080DF7246E30AC5FE1F
:1032DC00035609053255336696012318C904EF00CD
:1032EC00B01D03463905218A6DDE035509050346D9
:1032FC002905924733F5AA003386CA0232951D8DF3
:10330C00A24763D5A700B247634EF50E0946636D1D
:10331C00460FC247050A13161500137AFA0F3346E7
:10332C00F6026352A03E050609453346A6027325F4
:10333C000080218901CD732500809717002023ABD5
:10334C00A78003250D005D99731005800F100000F8
:10335C0023009400230064010F1000000355C902E0
:10336C002A96420641822316C902230004007325C3
:10337C00008003260D00218A498E73100680970762
:10338C00002023A9077C0F10000009B573260080CC
:10339C00218A01CE732600809707002023ACC77AC0
:1033AC0003260D005D9A731006800F100000230099
:1033BC009400230064010F100000034639051366C6
:1033CC000602A309C90405B573260080218A01CE23
:1033DC00732600809707002023AEC77603260D00C6
:1033EC005D9A731006800F100000230094002300D8
:1033FC0064010F1000000346390513660602A30989
:10340C00C90441B5E3070AF073260080218A01CE76
:10341C00732600809707002023AEC77203260D0089
:10342C005D9A731006800F10000023009400230097
:10343C0064010F100000034639051375FC0F137659
:10344C00860FA309C90403463905498EA309C9048B
:10345C00230004007328008003260D00218A3366A4
:10346C000601731006809707002023A5076E0F1026
:10347C000000034639051D8A6319862973260080CE
:10348C00218A01CE732600809707002023A4C76CE5
:10349C0003260D005D9A731006800F1000002300A8
:1034AC009400230064010F100000034639051165D8
:1034BC001376F60DA309C9040346390513660602F3
:1034CC00A309C90403560905498E2318C9040356D8
:1034DC0009052165498E2318C904230004007325AE
:1034EC00008003260D00218A498E731006809707F1
:1034FC00002023A107660F10000003463905137640
:10350C000602630E062203463905218A6DDE681019
:10351C00612773260080218A01CE732600809707CD
:10352C00002023A9C76203260D005D9A7310068044
:10353C000F10000023009400230064010F10000002
:10354C000346390511651376F60DA309C904034624
:10355C00390513660602A309C90403560905498EE9
:10356C002318C904035609052165498E2318C9047B
:10357C00230004007325008003260D00218A498E48
:10358C00731006809707002023A6075C0F1000001D
:10359C0003463905137606026301061E03463905F8
:1035AC00218A6DFE97F0FF1FE78060B1AA8C97F01F
:1035BC00FF1FE780C0B0E30C95FF035609051165AA
:1035CC00498E32552318C904C52D03463905218A65
:1035DC006DDE73260080218A1705002013058557A0
:1035EC0019CA732600809707002023A5C7561041DF
:1035FC005D9A731006800F100000230094002300C6
:10360C0064010F100000034639051376F60DA3096B
:10361C00C90423000400732800801041218A3366FA
:10362C000601731006809707002023A507520F1080
:10363C0000000358090503462905D24733F80A014F
:10364C003386CA0232983308F8401306800C3306CE
:10365C00C802E2473346F602635F001505060948C7
:10366C0033460603635BC0140358C9029308F00F7A
:10367C0013585800329863D608210946637F3619CF
:10368C00F3270080A18B99CBF3270080170700202C
:10369C002322F74C1C41DD9B739007800F10000018
:1036AC0037170040930770052300F704930780FA3F
:1036BC002300F7040F1000008356C7028967811797
:1036CC00D58FC207C1832316F70223000704732783
:1036DC0000801C41A18BD98F739007809707002025
:1036EC0023AA07460F100000B650265496540659CC
:1036FC00F649664AD64A464BB64B264C964C064D76
:10370C00F25D656182807D1605B173260080218A89
:10371C0001CE732600809707002023ADC7420326F5
:10372C000D005D9A731006800F10000023009400AA
:10373C00230064010F1000000346390539B37326CA
:10374C000080218A01CE732600809707002023A3D6
:10375C00C74003260D005D9A731006800F10000001
:10376C0023009400230064010F1000000346390568
:10377C0013660602A309C9048DB373260080218A3F
:10378C0001CE732600809707002023A5C73C032693
:10379C000D005D9A731006800F100000230094003A
:1037AC00230064010F10000003463905136606025E
:1037BC00A309C90475BB7D165DB561C60358C90262
:1037CC00B308C04013585800635D180B0946637664
:1037DC003605F3270080A18B99CBF32700801707C0
:1037EC0000202329F7361C41DD9B739007800F10B6
:1037FC000000B7170040130770052380E704130778
:10380C0080FA2380E7040F10000003D7C7027D8BDA
:10381C002396E702238007045DBD73260080218A6E
:10382C0019CA732600809707002023A5C7321041C0
:10383C005D9A731006800F10000023009400230083
:10384C0064010F1000000356C9021376F60F33669D
:10385C007601420641822316C90223000400732814
:10386C0000801041218A3366060173100680970789
:10387C00002023A1072E0F100000850993F9F90FE2
:10388C0079B8F3270080A18B99CBF3270080170719
:10389C0000202321F72C1C41DD9B739007800F1017
:1038AC000000B7170040130770052380E7041307C7
:1038BC0080FA2380E7040F10000003D7C702160616
:1038CC003A96420641822396C702A9B7914763EE06
:1038DC00B70217A70100130727088A05BA959C4160
:1038EC00BA978287B717004003A7470B1345F5FF1C
:1038FC00698F23AAE70A03A7070B698F23A8E70A96
:10390C0003A7070A798D23A0A70A8280B717004066
:10391C0083A6470B1347F5FFF98E23AAD70A83A674
:10392C00070B558D23A8A70A83A6070A758F23A01A
:10393C00E70A8280B717004003A7470B498F23AAD9
:10394C00E70A03A7070B1345F5FF45BFB717004060
:10395C0083A6470B1347F5FF758F23AAE70A03A726
:10396C00070A598D4DB7B717004003A7470B498F6E
:10397C00EDB7914763EEB70217A70100130707FFD6
:10398C008A05BA959C41BA978287B717004003A75E
:10399C00470D1345F5FF698F23AAE70C03A7070D05
:1039AC00698F23A8E70C03A7070C798D23A0A70C1C
:1039BC008280B717004083A6470D1347F5FFF98E99
:1039CC0023AAD70C83A6070D558D23A8A70C83A675
:1039DC00070C758F23A0E70C8280B717004003A754
:1039EC00470D498F23AAE70C03A7070D1345F5FFD5
:1039FC0045BFB717004083A6470D1347F5FF758FDA
:103A0C0023AAE70C03A7070C598D4DB7B717004035
:103A1C0003A7470D498FEDB79D4763E3A70217A78F
:103A2C0001001307E7F50A053A951C41BA97375779
:103A3C00004082878347270093F7070F2301F70085
:103A4C0082808347270093F7070F93E71700FDB792
:103A5C008347270093F7070F93E74700C5B78347C2
:103A6C00270093F7070F93E75700C9BF8347270039
:103A7C0093F7070F93E78700D1B78347270093F796
:103A8C00070F93E797005DBF8347270093F7070F56
:103A9C0093E7C70065B78347270093F7070F93E7B2
:103AAC00D70069BF99EAB757004003C70700134511
:103ABC00F5FF798D2380A70082803757004005CE13
:103ACC0083471700C98FA300F70037570040814781
:103ADC0011072146B356F540858A89C6B386E7009F
:103AEC002380B6008507E397C7FEB757004003C78E
:103AFC000700598DC1B7834617009347F5FFF58F23
:103B0C00D9B7411122C43717004006C68347270294
:103B1C0003570702170400201304C40393F7F70F8D
:103B2C004207418325ED1377F79F420793F7F70779
:103B3C004183F3260080A18A99CAF32600801706D8
:103B4C0000202329D6001440DD9A739006800F10B4
:103B5C000000B7160040130670052380C604130638
:103B6C0080FA2380C6040F10000093F7F70F23810F
:103B7C00F6022390E60223800604732700801C4083
:103B8C00A18BD98F739007809707002023A407FC83
:103B9C000F100000B24022444101828093E70708D5
:103BAC0013670740F3260080A18A99CAF326008088
:103BBC00170600202320D6FA1440DD9A7390068055
:103BCC000F100000B7160040130670052380C604C2
:103BDC00130680FA2380C6040F1000002381F6021E
:103BEC002390E60223800604732700801C40A18BDF
:103BFC00D98F739007809707002023AD07F40F101F
:103C0C000000294597F0FF1FE7806010F327008024
:103C1C00A18B99CBF327008017070020232CF7F2F8
:103C2C001C40DD9B739007800F100000B7170040FD
:103C3C00130770052380E704130780FA2380E70439
:103C4C000F10000003D70702136707202390E70229
:103C5C00238007041DB7B717004003D58700420522
:103C6C0041819377050491EB9377F5013755E80182
:103C7C00130505803345F50282809377050C1307F5
:103C8C0000046397E7009377F50137459C1CCDB78B
:103C9C002165130505D0828037E700E01C435443AF
:103CAC00A183E206D58F1CC1FD572320F7182322D0
:103CBC00F7180F100000828013178500B7E700E09B
:103CCC0023A0E710618123A2A7108280B7F700E040
:103CDC008847CC47828097070020938767E39C43F3
:103CEC00173700201307C7163E95636EE50017477C
:103CFC000020130767106368A7001707002023290B
:103D0C00A7E03E858280FD57EDBF2D4559EF03C5D9
:103D1C00050009476317E50803A84500411106C6CD
:103D2C000347180032850346080022074168518F6B
:103D3C00930828FE6308170363E9E800051863037A
:103D4C0007052390060029451DA8130648FE630BA2
:103D5C00C7021518E31707FF15463E87637BF6026B
:103D6C00154705A83E8691C30546B7E70400FC47F6
:103D7C002390C6004206CC45418282970145B24051
:103D8C00410182801306700F3E876374F60013079F
:103D9C00700FB7E704002390E600FC4713160701E9
:103DAC00D9BF239006000545828082804167791730
:103DBC006304E504411122C406C685472A84639F27
:103DCC00F500B7E7040022852244B24003A3871311
:103DDC0097050020938585D8410102838947639913
:103DEC00F500B7E7040083A7070B8545829771D9C7
:103DFC00B2402244410182808280797122D452CC1B
:103E0C002E842A8A97A501009385C5BA17A50100AF
:103E1C00130505BC06D63AC626D24AD0B6843289DA
:103E2C004ECEEF80417CA68517A50100130545BB3E
:103E3C00EF80617B2945EF80217F8347840093F7D6
:103E4C000702F1E38349040089470545324763962D
:103E5C00F908544083C7160083C60600A207D58F05
:103E6C00C166138616FE638CC7028D16638FD70648
:103E7C008D669386269029456391D706B7E7040093
:103E8C00A285225403A34714B250F249A6864A864F
:103E9C00925402595285624A8547456102832D45E9
:103EAC000DEF9307700F354563E99702B7E70400F0
:103EBC00FC4748441306700FCA85829781499707BF
:103ECC000020938767CA9C43014581CB9C4391C7D3
:103EDC004E852686CA8582970145B250225492544B
:103EEC000259F249624A456182802D457DF7D547DA
:103EFC003545E3E497FEB7E70400FC4748445546D4
:103F0C00CA8582976DBF2145C9BF411122C437E4D0
:103F1C0004008327841326C2AA84416506C697052C
:103F2C0000209385A5C37D1582978327C40A1705A6
:103F3C0000001305E5E78588829795C003230413D9
:103F4C002244B240924497F6FF1F9386E66D414699
:103F5C00C54517F5FF1F1305255C41010283B240CF
:103F6C002244924401454101828019C597070020E3
:103F7C0023ACA7BE0145828045458280114763680A
:103F8C00A70A97A601009386A6A10A0536951841A3
:103F9C00411106C63697AE87B28502871307700F9C
:103FAC006145639DE700B7E70400FC471306700FFB
:103FBC0017050020130505C982970145B240410140
:103FCC00828005476145E39BE7FEB7E70400FC47A9
:103FDC00054617050020130525B8F9BF554761455F
:103FEC00E39EE7FCB7E70400FC47554617050020A5
:103FFC001305C5D4D1B71307700F6145E390E7FCE7
:10400C00B7E70400FC471306700F170500201305D3
:10401C0065D45DB715476145E392E7FAB7E704004D
:10402C00FC47154617050020130585B371B70945E4
:10403C008280411126C2B7E4040083A7C41322C4B2
:10404C004AC006C62E8497050020938525B12A897F
:10405C008297058905C597F7FF1F9387E74B83D791
:10406C00A70BA28503A3440D2310F4002244B240F5
:10407C0092444A850249014641010283B2402244DE
:10408C009244024949454101828011456FE01FED80
:10409C00411193962500AA852D4506C697F0FF1F62
:1040AC00E780A0D8B240014541018280411126C26F
:1040BC009394250022C44AC02A843289A686AA85F4
:1040CC000146254506C697F0FF1FE78000D6A68659
:1040DC004A86A285294597F0FF1FE78000D5B2409C
:1040EC00224492440249014541018280011122CCB3
:1040FC0006CE3714004026CA4AC84EC652C4834462
:10410C007405034AB4058349840503499405EFE01B
:10411C007FB28347A40593F4F40F137AFA0F93E755
:10412C001700230DF40493F9F90F1379F90FB7174E
:10413C00004003C7A705058B6DFF03D5C705A38DED
:10414C004705238C3705A38C2705A38B9704F240D6
:10415C006244D2444249B249224A056182804111EB
:10416C009397050122C406C626C2C1872E8463D04C
:10417C000702B7E40400FC54829719C1BC5482971F
:10418C002165218DB240224492444101828093F7F3
:10419C00150013C51500FDF79397250163D507028C
:1041AC00B7E4040083A7C41E8297C535BC4C37F610
:1041BC000200130606E08965170500200345059BE0
:1041CC00829709657DBF939715010145E3DC07FADA
:1041DC00B7E70400BC4F1306006491651705002077
:1041EC000345C5988297116569BF1D71A2CC37E450
:1041FC0004005C5C485886CE494697A5010093851F
:10420C006580829711E101A0B7F600E0795798CA52
:10421C00FD57DCCA0567B7E700E023A0E7101306DB
:10422C00F00290C223A0E7180F1000003C441306C4
:10423C00C0038145480882979717002093870799F8
:10424C003ECA8967938707BD231CF100A16793873A
:10425C0007E03ECEB7070105938707103ED09307C2
:10426C00B00F2312F10285472303F10297070000D8
:10427C00938747E2BEC497070000938767E3BEC6E7
:10428C00970700009387C7A43EDA9707000093872F
:10429C0027E63EDE97070000938767DFBEC0B7377F
:1042AC00020D9387D7E3B7F507003ED481469707F5
:1042BC000000938707207000E10519453EDC97F05C
:1042CC00FF1FE78080B658088147994670003E96DC
:1042DC000346060085070507A30CC700E398D7FE25
:1042EC00D24791C70357810185676373F70001A01B
:1042FC00B7E7040083A7470A4808829711C101A0B9
:10430C00F640664425618280411126C2B7E4040060
:10431C0083A7040806C622C417050000130565E42C
:10432C00829717040020130464842300A4005920EE
:10433C00212C03450400224403A38405B24092447B
:10434C0013060032896541010283F3270080A18B9B
:10435C00170700201307078099CBF327008097F6E7
:10436C00FF1F23A9F67E1C43DD9B739007800F1063
:10437C000000B7170040930670052380D7049306FE
:10438C0080FA2380D7040F100000C8DB23800704B9
:10439C00F32600801C43A18BD58F7390078097F771
:1043AC00FF1F23A9077A0F10000097F7FF1F23A107
:1043BC00077C8280411106C6F3270080A18B17F77A
:1043CC00FF1F1307277999CBF327008097F6FF1F60
:1043DC0023A2F6781C43DD9B739007800F1000001E
:1043EC00B7170040930670052380D704930680FA14
:1043FC002380D7040F10000083C6F70293F6A60F94
:10440C00A387D70223800704F32600801C43A18BCB
:10441C00D58F7390078097F7FF1F23AD07720F108E
:10442C000000F3270080A18B99CBF327008097F62F
:10443C00FF1F23A1F6721C43DD9B739007800F10A6
:10444C000000B7170040930670052380D70493062D
:10445C0080FA2380D7040F10000083C6F70293E67E
:10446C002600A387D70223800704F32600801C4371
:10447C00A18BD58F7390078097F7FF1F23AC076C28
:10448C000F1000000545EFE0BF8401318147130593
:10449C00407E0147814605468545EFE0BF8AB7E778
:1044AC000400B24003A347070145410102830111F7
:1044BC0022CC2A84680006CE26CAEFF0EFFD97E0E6
:1044CC00FF1FE780C0BFB307A4406376A400B70703
:1044DC00C0A8A297898F3707B8A19387F7FD130758
:1044EC00F7FD637BF7003245EFF00FFD0945F24015
:1044FC006244D244056182802285813D324597F425
:10450C00FF1F9384E466EFF02FFB9C400D45E5F311
:10451C00694597E0FF1FE780A0DE9C408DC3130523
:10452C00E402B707C0A863F7A70037054057130587
:10453C00E5022295193D97E0FF1FE780C0B90545BC
:10454C00EFE0CFF1014565B7F3270080A18B17F79A
:10455C00FF1F1307276099CBF327008097F6FF1FE7
:10456C0023AAF65E1C43DD9B739007800F1000009E
:10457C00B7170040930670052380D704930680FA82
:10458C002380D7040F10000083C6E70093E6860053
:10459C002387D70023800704F32600801C43A18BBC
:1045AC00D58F7390078097F7FF1F23A5075A0F101D
:1045BC000000F3270080A18B99CBF327008097F69E
:1045CC00FF1F23A9F6581C43DD9B739007800F1027
:1045DC000000B7170040930670052380D70493069C
:1045EC0080FA2380D7040F10000083C6170393E6CC
:1045FC000602A388D70223800704F32600801C43FD
:10460C00A18BD58F7390078097F7FF1F23A40754B6
:10461C000F100000B7E700E03707001023A0E710E9
:10462C0082804111979501009385C554179501001F
:10463C001305053A06C6EF70117B1795010013059B
:10464C00256AEF70517AB240294541016F70D17DD6
:10465C00411197950100938525531795010013057A
:10466C00253706C6EF7031781795010013050566DE
:10467C00EF707177B240294541016F70F17A4111A9
:10468C0022C406C6834705002A849DC39795010062
:10469C00938545551795010013058533EF70B1745B
:1046AC004C40179501001305E571EF70D1731DA0F7
:1046BC0058411DE7979501009385C5521795010048
:1046CC0013050531EF703172179501001305057153
:1046DC00EF7071712244B240294541016F70D17461
:1046EC00A1679386D7036311D70297950100938531
:1046FC00654F179501001305A52DEF70D16E179519
:10470C0001001305A56EE9B7ED0797950100938598
:10471C00654D179501001305A52B6319F700EF7074
:10472C00916C179501001305A56D5DB7EF70B16B1A
:10473C004C40179501001305A56E85BF4111979547
:10474C0001009385A545179501001305652806C63C
:10475C00EF707169B240294541016F70F16C4111E4
:10476C0006C6170700200347672E9307F00A631F3E
:10477C00F7009307F0088945170500201305052D50
:10478C00170700202314F72CEF30A04BEF30C05A42
:10479C008145014597F7FF1F23AA073E97F7FF1F97
:1047AC002393073E97F7FF1F2380073E97F7FF1FC2
:1047BC002399073C97F7FF1F2394073C97F7FF1F9C
:1047CC002392073C97F7FF1F2394073CEF20400EE2
:1047DC000145EF30004D979501009385A53E179547
:1047EC0001001305E51EEF7011601795010013050C
:1047FC00E56DEF70515FB240294541016F70D16298
:10480C00411122C406C626C293F715002E84638775
:10481C00070E814617F6FF1F1306C6FD854517F5D3
:10482C00FF1F0355A535EF80901305C59795010023
:10483C009385053A1795010013058519EF70B15A48
:10484C001795010013050524EF70F1592945EF70F8
:10485C00B15D979501009385A53717950100130558
:10486C002517EF705158179501001305E522EF70CD
:10487C0091572945EF70515B17F5FF1F130505FA8A
:10488C005C4505472390E700EF00413997950100FF
:10489C00938505341795010013058513EF70B154FA
:1048AC001795010013058520EF70F1532945EF7022
:1048BC00B157930710F8170700202309F71897F73B
:1048CC00FF1F83D7672B17070020A301F7181705C5
:1048DC0000201305A517A183914517070020230875
:1048EC00F71697070020A3840716EF308035134581
:1048FC001400B240224492444101828093F7250077
:10490C00D5C717F7FF1F0357072851CF97F6FF1F7F
:10491C009386C6279442979701009387275D17F6D5
:10492C00FF1F034666268145170500201305452801
:10493C00EF403010AA8425C9979501009385453224
:10494C00179501001305C508EF70F149A685179559
:10495C00010013052517EF7011492945EF70D14C53
:10496C0097F7FF1F23910722930710F817070020D2
:10497C00230EF70C97F7FF1F83D70720170700208C
:10498C00A306F70CA183170700202302F70C91450F
:10499C008D47170500201305650B17070020A3088A
:1049AC00F70AEF30002A13452400A1B793F745000E
:1049BC00A5CB979501009385A52A179501001305A2
:1049CC002501EF7051421795010013056511EF7029
:1049DC0091412945EF705145930720F817070020A6
:1049EC002306F70697F7FF1F83D7A7191707002091
:1049FC00A30EF704A18317070020230AF7048547A9
:104A0C0017070020A305F704EF20902817050020B6
:104A1C001305C5039145EF30C02213454400D1BDA9
:104A2C0093F785008DCF9795010093856523179596
:104A3C0001001305E5F9EF70113B17950100130503
:104A4C00650BEF70513A2945EF70113E97F7FF1F38
:104A5C00239B0712EF40D00A1345840059BD93F7EE
:104A6C000501A5CB854517F5FF1F03558511EF10E3
:104A7C00116A979501009385A51E179501001305E2
:104A8C0025F5EF705136179501001305E507EF700A
:104A9C0091352945EF705139930730F817070020ED
:104AAC002306F7FA97F7FF1F83D7A70D17070020E8
:104ABC00A30EF7F817050020130545F9A1838D45C2
:104ACC00170700202305F7F8EF30A0171345040152
:104ADC000DB593F70502A5CF979501009385451861
:104AEC00179501001305C5EEEF70F12F1795010016
:104AFC001305C503EF70312F2945EF70F132930781
:104B0C0040F8170700202303F7F497F7FF1F83D70C
:104B1C00270717070020A30BF7F2A1831707002024
:104B2C002307F7F2854717070020A302F7F297F740
:104B3C00FF1F23970704EF20B0151705002013055E
:104B4C00E5F09145EF30E00F134504025DB393F7A8
:104B5C000504E9CB97950100938585101795010005
:104B6C00130505E7EF70312817950100130585FD36
:104B7C00EF7071272945EF70312B9707002083C701
:104B8C00E7EC1307700A6382E7061307800A638851
:104B9C00E7081307600A6391E704930720F81707E7
:104BAC0000202305F7EA97F7FF1F83D7A7FD170708
:104BBC000020A30DF7E8A183170700202309F7E8CD
:104BCC00854717070020A308F7E8B1451705002013
:104BDC001305C5E7EF30E006EF20900B13450404F6
:104BEC0097F7FF1F239007FA29B3930770F817075D
:104BFC000020230DF7E497F7FF1F83D7A7F81707BB
:104C0C000020A305F7E4A183170700202301F7E494
:104C1C00854717070020A30DF7E2994545BF930779
:104C2C0080F8F1B793F70508A5CF97950100938508
:104C3C002503179501001305A5D9EF70D11A179507
:104C4C0001001305A5F1EF70111A2945EF70D11D64
:104C5C009307A0F817070020230AF7DE97F7FF1F2A
:104C6C0083D707F317070020A302F7DEA1831707EA
:104C7C000020230EF7DC854717070020A309F7DC7B
:104C8C0097F7FF1F239607F0EF20900017050020E1
:104C9C001305C5DB9145EF20D07A1345040891B973
:104CAC0093F7051095C3EF20401FB7E70400BC4FE6
:104CBC00130640069305001017F5FF1F034585EBFF
:104CCC0082971345041035B193F7052099C7014518
:104CDC00EF10907E1345042029B993F70540014548
:104CEC00E38907C00545EF10307D1345044011B131
:104CFC00411122C497950100938505F02A841795DC
:104D0C0001001305E5CC06C6EF70F10D4C4017956C
:104D1C0001001305A508EF70110D2945EF70D11096
:104D2C00034704009307F00F6319F70297950100EE
:104D3C00938585EC17950100130585C9EF70B10AB1
:104D4C004C401795010013056506EF70D1092244FC
:104D5C00B240294541016F70310DB24022444101EE
:104D6C00828085CD411122C417950100130545C6DB
:104D7C002E8497950100938525E306C6EF70B10646
:104D8C00A285179501001305A513EF70D1052244D8
:104D9C00B240294541016F7031098280411126C210
:104DAC0006C622C48547AA84639AF502979501002A
:104DBC009385C5E717950100130585C1EF70B10206
:104DCC00A6851795010013052507EF70D101224424
:104DDC00B2409244294541016F7011052E848947D8
:104DEC0097950100938585E417950100130545BE41
:104DFC00631AF400EF70217FA68517950100130547
:104E0C00A506E1B7EF70217EA28517950100130569
:104E1C00A50865BF411122C426C22E84AA84979589
:104E2C000100938525D917950100130565BA06C6AF
:104E3C00EF70617B2945EF70217F97F7FF1F239F50
:104E4C0097D297F7FF1F239987D285478545014550
:104E5C0017F7FF1F2313F7D2EF1090250545EF200E
:104E6C00506497F7FF1F9387679BDC4703D70700B6
:104E7C00C167FD176312F7022244B7E70400B24082
:104E8C00924403A3870517F5FF1F0345A5CE130610
:104E9C00000A854541010283B240224492444101FB
:104EAC008280397106DE22DC26DAEF30001259C519
:104EBC00930750FAA306A10021812306F1002307D2
:104ECC00A100930720F889440545A307F1002308A6
:104EDC009100EF10302B3335A000A308A10005453D
:104EEC00EF1090282309A100EFC0005021C5714696
:104EFC0081454808EFD0AFF397F7FF1F93870792D0
:104F0C00DC477D5483D70700231C8100231BF10051
:104F1C00EF20C04593074006230DA100A30D91007F
:104F2C003ECE23028102EF20A0561D466C0048089D
:104F3C00EF20A0469D456800EF20B050F25062541F
:104F4C00D25421618280011122CC37E404005C5CD4
:104F5C0006CE3546979501009385C5D917A5010056
:104F6C001305C5AC829711E101A097F7FF1F93873A
:104F7C00E7ED3EC48567938707C0970500009385CE
:104F8C0025E217A500001305455A3EC6EFA0805830
:104F9C00B7F5070081460A86E105194597E0FF1F22
:104FAC00E780A0E87C4419468A8517050020130584
:104FBC0065B9829734000A86979501009385856FB1
:104FCC001795010013058570EF30307F2A840DC9C9
:104FDC0097950100938585C6179501001305459F8C
:104FEC00EF706160A285179501001305A5D1EF70D4
:104FFC00815F2945EF704163F24062440561828014
:10500C00EFB06019179501001305C5C6EF30E01914
:10501C00EF706004EF10713817E5FF1F1305C57CA6
:10502C00EF105125179501001305C5C5EF10B138C8
:10503C002A84EF308074EFD0C05DEF301158EF4010
:10504C005011EF30D053EFF0B03A979501009385A3
:10505C00E5BE179501001305A59709C8EF70A15877
:10506C00A28517950100130525CC51B7EF70A157F8
:10507C0017950100130585CDEF70E1562945EF70AA
:10508C00A15AEFF0501DEFC0203629C985450145C6
:10509C00EF10100297950100938545BA1795010002
:1050AC0013050593EF70215417950100130585CB5B
:1050BC00EF7061532945EF70215797950100938547
:1050CC00E5B7179501001305A590EF70C151179521
:1050DC000100130565CBEF70015121BF8145EF1025
:1050EC00207D97950100938565B5179501001305F3
:1050FC00258EEF70414F17950100130525DDEF70DC
:10510C00814E2945EF7041520145EF20903975B71A
:10511C00011122CC37E404008327041A06CE8297AF
:10512C00EF2030128327040817F5FFFF1305856D58
:10513C00829797F7FF1F238FA7A217E5FF1F130571
:10514C00E56DEF20E0610135EF2030682A84EFC077
:10515C00A02997950100938565AF55C5179501005A
:10516C0013050587EF702148A285179501001305DB
:10517C00A58AEF7041472945EF70014BB7F5070041
:10518C0030008146E105194597E0FF1FE780E0C933
:10519C0097950100938585AB179501001305458301
:1051AC00EF7061440348D1008347C1000347B1004D
:1051BC008346A100034691008345810017950100A9
:1051CC0013058589EF7021422945EF70E145EF10F9
:1051DC008062EF107024EF10102C172500001305BF
:1051EC00C5A0EF10F008B7E70400BC4F130620036E
:1051FC009305001017F5FF1F0345C5978297F240E2
:10520C00624405618280178501001305657CEF708F
:10521C00813D1795010013052582EF70C13CA1BF9C
:10522C009946AA872E87328863F5B6028348050013
:10523C009306500A639FD8008348350093062008D4
:10524C006399D8008348450089466394D800814609
:10525C00CDA281464286BA853E8595AE411122C4C7
:10526C0006C6834705002A849DC397950100938544
:10527C00E599178501001305A575EF70C1364C40F3
:10528C0017950100130585C7EF70E135D9A058417A
:10529C00B707CF009387777D6310F70897950100C8
:1052AC009385C5961785010013058572EF70A133A0
:1052BC001C448356E4008355C40003C607001795AD
:1052CC000100130525C5EF7001322945EF70C1357A
:1052DC000356E4008355C40008449937EF20F04E80
:1052EC008357E4006383A70A4DC118449307500AFF
:1052FC0083460700639BF608834727008346170005
:10530C00A207D58F6303F5088355C4002244B2402D
:10531C003A8541016F20F012B707CC009387777D57
:10532C00631FF702979501009385458E1785010041
:10533C001305056AEF70212B1C448356E40083553A
:10534C00C40003C60700179501001305A5BCEF7038
:10535C0081292244B240294541016F70E12CB707E5
:10536C00CE009387777D6302F702979501009385B2
:10537C00E589178501001305A565EF70C1264C4022
:10538C00179501001305C5A901B7B240224441018C
:10539C0082809946AA872E8763F6B60203460500DB
:1053AC009306500A6310D602034635009306200874
:1053BC00631AD6000346450089466315D600854618
:1053CC00014685A885460146BA853E8509A47971B2
:1053DC0022D426D24AD02E842A898145B284480010
:1053EC00714606D6EFD0AFA497E7FF1F938707430C
:1053FC00DC4783D70700231421012313F100EF109E
:10540C00F0768947A305F100930740063EC6FD5789
:10541C002305A100230AF100EF2080072686A28530
:10542C004800EF109077B2502254925402594561C3
:10543C008280994763FCB718797106D622D426D29C
:10544C004AD04ECE52CC56CA5AC8034B05009307CD
:10545C00500A6312FB060347350093072008631CB0
:10546C00F7040347450089476317F7048344250075
:10547C0083471500B689A204B28A2E8A2A84DD8C51
:10548C00EF20B0342A896391090C63105505979568
:10549C000100938565B81785010013056553EF70FE
:1054AC008114CA8517950100130585BAEF70A113F5
:1054BC002945EF706117B250225492540259F249A7
:1054CC00624AD24A424B45618280639EA404834760
:1054DC00340097950100938525B4178501001305B9
:1054EC00254F2306F10083474400A306F1008347B0
:1054FC0054002307F10083476400A307F100EF7009
:10550C00810E5686A68517950100130565B6EF70BA
:10551C00810D2945EF704111A6865686914568008C
:10552C00EF10301B49BF83470400E39667F98347AC
:10553C00240003471400A207D98FE30EF5F6D28599
:10554C002285EF20007085BF6399A4048347340043
:10555C0097950100938545AC1785010013054547C8
:10556C002306F10083474400A306F100834754004F
:10557C002307F10083476400A307F100EF70A10635
:10558C00A68517950100130565B2EF70C105294575
:10559C00EF708109A686014651B797950100938556
:1055AC00A5A7178501001305A542EF70C103A685B9
:1055BC00179501001305C5B2EF70E1022945EF7094
:1055CC00A1065286A28526851935F5B5828099E10A
:1055DC006F10A002B7E704001171FC47A2DD2E8406
:1055EC0086DFAA85A6DBCAD9CED717F5FF1F130510
:1055FC00E545D2D5D6D3DAD1B2842286B689829744
:10560C0097950100938545A3178501001305453C2B
:10561C0017F9FF1F03498943EF60F17C17970100CD
:10562C001307C7AE6386090017970100130787AEEF
:10563C00A6862286CA8517950100130525AEEF6054
:10564C00917A2945EF60517EE39A09129307E90795
:10565C0093F7F70F13078002E362F7101797010017
:10566C001307478D8A07BA979C43BA9782878D4751
:10567C006303F402979501009385059C178501003F
:10568C0013050535EF60317617950100130505AC50
:10569C00EF6071753DA6979501009385E599178587
:1056AC0001001305E532EF60117417950100130525
:1056BC0065ABEF6051732945EF601177930720F8C4
:1056CC00114697F5FF1F93856538268517F7FF1F41
:1056DC00230EF73697F7FF1FA38B0736CD392A8495
:1056EC000DC5979501009385259517850100130528
:1056FC00252EEF60516FA28517950100130545AA61
:10570C00EF60716E2945EF603172979501009385BA
:10571C00A592178501001305A52BEF60D16C179589
:10572C000100130525A9EF60116C2945EF60D16FBD
:10573C004165930730FA054697F5FF1F93850531B0
:10574C007D1517F7FF1F2303F73051312A840DC540
:10575C00979501009385458E178501001305452704
:10576C00EF607168A28517950100130565A3EF60C2
:10577C0091672945EF60516BB7E70400BC4F056694
:10578C00130606C8A14517E5FF1F0345A53E8297E2
:10579C006DA591476301F402979501009385C58926
:1057AC00178501001305C522EF60F1631795010001
:1057BC00130585A3F1BDB7E70400FC4F914517E530
:1057CC00FF1F0345253B8297979501009385C5865E
:1057DC00178501001305C51FEF60F16017950100D7
:1057EC00130545A2EF6031602945EF60F163EF10BE
:1057FC00304A9145EDA485476301F4029795010069
:10580C0093858583178501001305851CEF60B15DB9
:10581C0017950100130585A0A5BD97E7FF1F2392DF
:10582C009736B7E704000566BC4F130606C8C1459A
:10583C0099BF8D476301F402978501009385C57F5D
:10584C00178501001305C518EF60F1591795010074
:10585C001305859E35BD930740F8114697F5FF1F3C
:10586C009385C51E268517F7FF1F2301F71E97F793
:10587C00FF1FA38E071CEFF09FB52A84630F055AF8
:10588C00978501009385457B178501001305451409
:10589C00EF607155A2851795010013056590EF60B7
:1058AC00915405A291476301F402978501009385F9
:1058BC00A578178501001305A511EF60D152179536
:1058CC0001001305E598E9B3B7E70400FC4F930515
:1058DC00000217E5FF1F0345E52982979785010014
:1058EC0093858575178501001305850EEF60B14F03
:1058FC001795010013058597F5B5894763E1870274
:10590C009785010093854573178501001305450C98
:10591C00EF60714D179501001305859695BB17F92E
:10592C00FF1F0349C91297F7FF1F83C737129785CB
:10593C00010093856570220917850100130545093F
:10594C003369F900EF60314AA28517950100130500
:10595C006594EF6051494209294513590941EF609B
:10596C00B14C131A09019D47135A0A0163F98708B0
:10597C0017F7FF1F0347B70D9307500A6311F7087A
:10598C0017FBFF1F034BCB0C97F9FF1F83C9590C57
:10599C00EF20A063AA8A635A20036302AA069785A4
:1059AC000100938565691785010013056502EF6099
:1059BC0091435686D285179501001305658FEF60CC
:1059CC0091422945EF6051468DA9C167FD176318B7
:1059DC00FA02A209B3E969016393A9029785010050
:1059EC009385856517850100130585FEEF60B13F32
:1059FC004E86CE85179501001305858EC9B7930584
:105A0C00D4FFD286268693F5F50F17F5FF1F1305E5
:105A1C001504EF10004C63502009930750F817F74A
:105A2C00FF1F2305F70297F7FF1F9387270283C7F2
:105A3C003700228697F5FF1F93854501850726853C
:105A4C0017F7FF1FA305F700EFF07F982A840DC509
:105A5C00978501009385455E17850100130545F771
:105A6C00EF607138A285179501001305E58BEF6087
:105A7C0091372945EF60513B978501009385C55BB4
:105A8C00178501001305C5F4EF60F135179501007A
:105A9C001305858AF5BE978501009385E559178511
:105AAC0001001305E5F2EF601134179501001305A1
:105ABC002589F9BE894763E18702978501009385A3
:105ACC00A557178501001305A5F0EF60D131179587
:105ADC000100130565876DBEEF10901BA28517F5AD
:105AEC00FF1F1305A5F6EF20C01581AE8D4763018E
:105AFC00F402978501009385255417850100130541
:105B0C0025EDEF60512E179501001305A58549B6BB
:105B1C00B76602000146B7750200054597D0FF1F16
:105B2C00E780A030930760F817F7FF1F2300F7F208
:105B3C0097F7FF1FA38D07F09307000617F7FF1FBA
:105B4C002308F7F0894717F7FF1FA303F7F097F720
:105B5C00FF1F238007F097F7FF1FA38C07EEC147A9
:105B6C0017F7FF1F2308F7EE930730F817F7FF1FFF
:105B7C00A302F7EE314697F7FF1FA38EA7EC97F51C
:105B8C00FF1F9385A5EC268597F7FF1F238507EC50
:105B9C00EFF0FF832A846302052A97850100938521
:105BAC00A549178501001305A5E2EF60D123A28555
:105BBC00178501001305857CDDB1B1476301F40243
:105BCC00978501009385454717850100130545E02E
:105BDC00EF607121178501001305057C55BCB7E7F3
:105BEC000400FC4F9305000417E5FF1F034585F8DF
:105BFC008297EF10F009B145DDB5914763E187025B
:105C0C00978501009385454317850100130545DCF5
:105C1C00EF60711D178501001305C57995BC17F947
:105C2C00FF1F0349E9E297F7FF1F83C757E22209D9
:105C3C003369F900B7E70400FC476D14228697F529
:105C4C00FF1F9385F5E028008297931604010E0937
:105C5C00B7650200C1823000CA95094597D0FF1F75
:105C6C00E780A01C930770F817F7FF1F2300F7DEDF
:105C7C00194697F7FF1FA38DA7DC97F5FF1F938598
:105C8C00E5DC2685EFF0AFF42A846308051A9785C6
:105C9C0001009385653A17850100130565D3EF6004
:105CAC009114A2851785010013050572CDBE994785
:105CBC00630DF40E97850100938505381785010057
:105CCC00130505D1EF6031121785010013054571DD
:105CDC00C1B2914763E18702978501009385C53571
:105CEC00178501001305C5CEEF60F10F1785010074
:105CFC001305857071BA17F9FF1F034969D597F71A
:105D0C00FF1F83C7D7D422093369F900B7E7040012
:105D1C00FC476D14228697F5FF1F938575D32800D9
:105D2C008297931604010E09B7650200C1823000F8
:105D3C00CA950D4597D0FF1FE780200F930780F879
:105D4C0017F7FF1F2304F7D0194697F7FF1FA381FE
:105D5C00A7D097F5FF1F938565CF2685EFF02FE72A
:105D6C002A8461CD978501009385052D1785010047
:105D7C00130505C6EF603107A285178501001305D1
:105D8C00E56831BE99476302F4029785010093855B
:105D9C00A52A178501001305A5C3EF60D10417854B
:105DAC000100130525686FF0BF8EB7E70400FC4FA8
:105DBC009305000417E5FF1F0345C5DB8297EF1021
:105DCC00206D994529BB8D476302F402978501002C
:105DDC009385852617850100130585BFEF60B100FB
:105DEC0017850100130585656FF09F8A0145EFD07B
:105DFC00BFEA914630009D652D4597D0FF1FE78087
:105E0C00C0029306001001469D65254597D0FF1FE3
:105E1C00E780A001914630009D652945230481004F
:105E2C0097D0FF1FE7806000294597D0FF1FE780C0
:105E3C00E0EE97D0FF1FE78080D8FE506E54DE5402
:105E4C004E59BE592E5A9E5A0E5B1161828099474B
:105E5C006302F402978501009385051E17850100E6
:105E6C00130505B7EF602178178501001305055E52
:105E7C006FF01F8217F7FF1F034797BD97F7FF1FA0
:105E8C0083C707BD22075D8F9166BA96C20611665D
:105E9C00C1821306F6EF8D476366D60297E7FF1FA4
:105EAC009387C7979C4B17F6FF1F034656BA9386EA
:105EBC00C70029CE03D60700630D066C8907E39B48
:105ECC00D7FE89471307A0F8114697F5FF1F938556
:105EDC00E5B7268597F6FF1F238AE6B617F7FF1F4F
:105EEC00A307F7B6EFF0AFCE2A8421D9978501002E
:105EFC009385851417850100130585ADEF60A16EA0
:105F0C00A285178501001305A55551BA03D60700C4
:105F1C00630EE66A8907E39BF6FE8D4765B79147EA
:105F2C006302F40297850100938505111785010022
:105F3C00130505AAEF60216B178501001305C553E6
:105F4C006FF00FF5B7E70400FC4F9305000817E559
:105F5C00FF1F034525C282976FF07F89978501004B
:105F6C009385850D17850100130585A6EF60A16744
:105F7C00CA85178501001305A55115B293070906AB
:105F8C0093F7F70F3D476365F75E1787010013071B
:105F9C00A7048A07BA979C43BA9782879D476302E6
:105FAC00F4029785010093852509178501001305D7
:105FBC0025A2EF604163178501001305254F6FF093
:105FCC002FED97F7FF1F83C777A8C9CF17F7FF1FD0
:105FDC000347F7A797F7FF1F83C767A722075D8FB4
:105FEC0097F7FF1F83C7C7A6C2075D8F97F7FF1FE1
:105FFC0083C717A6E207D98F17E7FF1F2328F7B827
:10600C0097F7FF1F938787A483C7670097850100C5
:10601C0093858502178501001305859B17E7FF1FE4
:10602C002304F7B6EF60215C97E7FF1F938707B651
:10603C008C4317E6FF1F034626B517850100130591
:10604C00A548EF60415A2945EF60015E97F7FF1FA5
:10605C00A38E079E930700F817F7FF1F2308F79EE0
:10606C009D45B5BCEF30603597F7FF1F2381A79E88
:10607C009357850017F7FF1FA30BF79C9357050148
:10608C002A8417F7FF1F2305F79C93578501179553
:10609C0001000355453C17F7FF1FA30BF79AEF3090
:1060AC00803297F7FF1F2386A79A97850100938567
:1060BC00A5F8178501001305A591EF60C15217F6DD
:1060CC00FF1F03460699A28517850100130545415C
:1060DC008DBFCD476302F402978501009385C5F50A
:1060EC00178501001305C58EEF60E14F1785010080
:1060FC00130585406FF0CFD937E404007C4441464A
:10610C0097F5FF1F9385959417F5FF1F130545AA67
:10611C00829797F7FF1F83C7879417F7FF1F0347D3
:10612C00F793A207D98F17E7FF1F231EF7A41306B7
:10613C00000A3C4C89456FF00FE58D47631CF4D287
:10614C0017F4FF1F0344A49097F7FF1F83C7179002
:10615C0097850100938545EE2204178501001305F0
:10616C0025875D8CEF602148A285178501001305FA
:10617C00253AEF6041472945EF60014B0D4697F5F5
:10618C00FF1F9385A58C2285EFF06FA4AA8415C1FF
:10619C0097850100938545EA178501001305458312
:1061AC00EF606144A685178501001305E5376FF094
:1061BC000FEF97E7FF1F2396879CB7E70400116644
:1061CC00BC4F130606E891456FF0EFDB8D47631566
:1061DC00F4E617F4FF1F0344848797F7FF1F83C768
:1061EC00F78697850100938525E522041775010034
:1061FC001305057E5D8CEF60013FA28517850100BC
:10620C001305C533EF60213E2945EF60E1410D4692
:10621C0097F5FF1F938585832285EFF04F9BAA840A
:10622C0015C197850100938525E1177501001305AC
:10623C00257AEF60413BA685178501001305853152
:10624C006FF0EFE597E7FF1F239C8792B7E70400F9
:10625C001166BC4F130606E8930500026FF0AFD22F
:10626C00894763FF87E897E4FF1F83C4447E97E761
:10627C00FF1F83C7B77D978501009385E5DBA204DB
:10628C00177501001305C574DD8CEF60C135A6854B
:10629C00178501001305852DEF60E1342945EF606A
:1062AC00A138228697E5FF1F9385457A2685EFF066
:1062BC000F922A84E30305B8978501009385C5D70F
:1062CC00177501001305C570EF60E131A2851785C4
:1062DC0001001305252B6FF08FDC8D47E31BF48039
:1062EC0017E4FF1F0344A47697E7FF1F83C71776B5
:1062FC0097850100938545D4220417750100130579
:10630C00256D5D8CEF60212EA2851785010013058C
:10631C00A528EF60412D2945EF6001310D4697E529
:10632C00FF1F9385A5722285EFF06F8AAA8415C191
:10633C0097850100938545D01775010013054569B4
:10634C00EF60612AA68517850100130565266FF09D
:10635C000FD597E7FF1F23978782B7E704001166D5
:10636C00BC4F130606E8930500046FF0CFC19147AC
:10637C0097850100938545CC17750100130545657C
:10638C00E3F88788EF602126A285178501001305A5
:10639C00A523EF6041252945EF60012997E4FF1FF4
:1063AC0083C4E46A97E7FF1F83C7576AA204DD8C96
:1063BC00228697E5FF1F938565692685EFF02F816F
:1063CC002A8435C997850100938505C71775010087
:1063DC0013050560EF602121A285178501001305C7
:1063EC00E51F6FF0CFCB9147E3F8878E97E4FF1F43
:1063FC0083C4E46597E7FF1F83C75765A204DD8C50
:10640C00228697E5FF1F938565642685EFE03FFCA8
:10641C002A8415C197850100938505C21775010063
:10642C001305055BEF60211CA28517850100130580
:10643C00251C6FF0CFC697D7FF1F2395977431BFDC
:10644C008D47E315F49897E7FF1F83C74760A207B2
:10645C0017E5FF1F0345955F0D4697E5FF1F9385D5
:10646C00E55E5D8DEFE0BFF62A84E308059C978519
:10647C000100938565BC1775010013056555EF6028
:10648C008116A285178501001305C5176FF02FC162
:10649C009947E311F49C17E4FF1F0344445B97E70F
:1064AC00FF1F83C7B75A978501009385E5B822046F
:1064BC00177501001305C5515D8CEF60C112A285E3
:1064CC001785010013050515EF60E1112945EF60F3
:1064DC00A115194697E5FF1F938545572285EFE0D7
:1064EC001FEFAA8415C1978501009385E5B4177534
:1064FC0001001305E54DEF60010FA685178501001E
:10650C00130585126FF0AFB997D7FF1F23928768D9
:10651C00B7E704001166BC4F130606E893050008A4
:10652C006FF06FA68547978501009385E5B01775C9
:10653C0001001305E549630AF400EF60C10A1785F1
:10654C0001001305A50F6FF0AF94EF60C10917851B
:10655C00010013052510EF6001092945EF60C10CFE
:10656C0097D7FF1F23910762EF2090596FF0FF8C94
:10657C0097850100938545AC1775010013054545BA
:10658C00EF606106CA85178501001305E50D6FF0F4
:10659C000FB12390E70017D5FF1F13052528EFE057
:1065AC00806997850100938525A91775010013054E
:1065BC002542EF604103178501001305A50CEF6020
:1065CC0081022945EF6041068147EDB82390070011
:1065DC0017D5FF1F13058524EFE0E06597850100B3
:1065EC00938585A5177501001305853EEF50B17F86
:1065FC00178501001305850AD9B78280411126C27F
:10660C0017D7FF1F1307872393144500B307970071
:10661C00944706C622C405466382C60889CA094740
:10662C006386E610B2402244924441018280038585
:10663C0047003A847D57630CE50003C6570081463A
:10664C008145133616001375F50FEFD0AFC5330522
:10665C00940083461500034755008357250085E2B7
:10666C00B716004019C703A7C60AD98F23A6F60A86
:10667C0055BF03A7860AD98F23A4F60A65B7B716A8
:10668C00004019C703A7C60CD98F23A6F60C59BF17
:10669C0003A7860CD98F23A4F60C69B70385470092
:1066AC007D5783C65700630CE50283C5C70093076B
:1066BC00F00F1375F50FB385F50293074006B3C5BC
:1066CC00F50293F5F50F89CA854601462244B2407E
:1066DC00924441016FD00FBD85460546C5BF03D717
:1066EC00270083C7170095E389CAB716004083A714
:1066FC00860A5D8F23A4E60A35B7B716004083A738
:10670C00C60A5D8F23A6E60A31BF89CAB7160040B8
:10671C0083A7860C5D8F23A4E60C29B7B71600401F
:10672C0083A7C60C5D8F23A6E60CEDBD0385470041
:10673C007D57E309E5EE83C5C7001307F00F83C748
:10674C005700B385E502130740061375F50F854610
:10675C00B3C5E50293F5F50FC9D385BF93F71500C3
:10676C00C9CB797122D426D24AD04ECE52CC56CA3D
:10677C005AC85EC606D6AE892A8917D4FF1F1304E1
:10678C00E40B8144894A130B3006854B0D4A1C449B
:10679C00639257030347D4008347C40029E7636619
:1067AC00FB0085072306F40019A0A306740113F55A
:1067BC00F40FA93585044104E39B44FDB7E70400BD
:1067CC00BC4F4A851306000285458297B25022546D
:1067DC0013C5190092540259F249624AD24A424BEB
:1067EC00B24B4561828099C3FD176DBFA3060400AF
:1067FC007DBF01458280411122C426C24AC006C613
:10680C0017D4FF1F1304840317D9FF1F130909069C
:10681C00B714004083471400035524008D45B5E799
:10682C00EFD0CF8A034754008357240029CB03A70A
:10683C00C40AD98F23A6F40A4104E31D24FDB757DB
:10684C0000403547A381E7000145EFD0EF9C37E4CA
:10685C0004008327040817050000130565F08297D0
:10686C0097D7FF1FA387A732032384052244B24086
:10687C00924402491306000285454101028303A795
:10688C00840AD98F23A4F40A45BFEFD08F8E034717
:10689C0054008357240019C703A7C40CD98F23A60F
:1068AC00F40C59BF03A7840CD98F23A4F40C69B73B
:1068BC000947636DA7069316450097D7FF1F93876B
:1068CC00E7F7B6974111944722C406C68CC72A84B1
:1068DC0097D7FF1F83C7E72B17D5FF1F0345752BD2
:1068EC00639CE6026388D50085CFFD1717D7FF1F81
:1068FC002301F72A97D7FF1F83C7A72995C3B7E7AB
:10690C000400BC4F13060002854582972285224461
:10691C00B24041016FF09FCEE39EE5FC8507F9B7CD
:10692C00B7E70400FC4F85458297CDB78280894735
:10693C0063EBA70297D7FF1F938747F01317450008
:10694C00130840063386E700AE866374B8009306DE
:10695C004006BA979C472306D6000547FD1763648B
:10696C00F7006FF0BFC98280894763EBA70097D708
:10697C00FF1F9387A7EC12053E950345C500828047
:10698C0001458280894763EAA70097D7FF1F938749
:10699C00E7EA12053E950845828001458280011187
:1069AC0022CC37E404005C5C06CE354697750100BA
:1069BC00938545341785010013054507829711E12E
:1069CC0001A08327041C82972AC6EF205102EF20D6
:1069DC008160EF70B02DF2406244324505618280D7
:1069EC004111054506C6EFD0CF911305800497C021
:1069FC00FF1FE780E0DFEFD04FFFEFD0FF90453770
:106A0C00EFE00FF197C0FF1FE780603501458280F2
:106A1C004111B2862E86AA852D4506C697C0FF1F4A
:106A2C00E780A040B240014541018280AE8601461C
:106A3C00AA85254517C3FF1F6700233F9307000452
:106A4C0063E6C7021D71A2CC2A84080886CE32C622
:106A5C00EF50112EB2461008A285294597C0FF1F92
:106A6C00E780A03CF64066442561828039558280DF
:106A7C0097D7FF1F23A2A7128280411106C6EFB041
:106A8C005FE517D7FF1F13072711032307006309BF
:106A9C00030019C505476308E50009476305E500D0
:106AAC00B24041018280B24041010283411126C2B1
:106ABC0006C622C493F71500AE849DCB97D7FF1F53
:106ACC009387C70E9C4381E7EFB01FE57D37B7E78F
