:041000006F10C04E5F
:10100400000000000000000090200020442C00207C
:10101400A9BDF9F3942000200000000000000000A6
:10102400962000209820002000000000000000000E
:101034009A200020000000009C20002000000000F6
:101044009E200020A0200020A2200020A420002018
:10105400A6200020A8200020AA200020AC200020E8
:10106400AE200020B0200020B2200020B4200020B8
:101074004C2D0020B8200020BA200020BC200020E5
:10108400BE200020C0200020C2200020C420002058
:1010940001A001A001A001A001A001A001A001A044
:1010A40001A001A001A001A001A001A001A001A034
:1010B40001A001A001A001A001A001A001A001A024
:1010C40001A001A001A04111B7170040985F3AC6E2
:1010D400945F3247E39CE6FE324541018280411130
:1010E400814601468145114506C6EF009054B72755
:1010F400004011472383E780B7F700E003A707D137
:101104006D9B23A8E7D003A707D15D9B23A8E7D055
:101114007300501001000100B2404101828041116E
:10112400814601468145114506C6EF009050B72718
:10113400004011472383E780B717004003C7E70245
:1011440003C6E70483D7870391661377F70F136603
:10115400360063E5D700719B13671700F326008000
:10116400A18A972700009387A79E99CAF326008037
:101174009725000023AED59C9443DD9A7390068096
:101184000F100000B7160040930570052380B604C5
:10119400930580FA2380B6040F1000002382060210
:1011A40023800604F32500809443A18ACD8E739096
:1011B40006809726000023AD06980F100000F32642
:1011C4000080A18A99CAF32600809725000023A1F4
:1011D400D5989443DD9A739006800F100000B716DB
:1011E4000040930570052380B604930580FA23809C
:1011F400B6040F1000002387E6022387C604238069
:101204000604F32600809843218B558F73100780C2
:1012140017270000232E07920F1000007327008069
:10122400218B19CB732700809726000023A2E69216
:1012340098435D9B731007800F1000003717004020
:10124400930670052300D704930680FA2300D7047D
:101254000F1000008346B70493E60602A305D704E3
:1012640023000704F32600809843218B558F7310C5
:10127400078017270000232D078C0F10000037F775
:1012840000E0832607D193E646002328D7D083269F
:1012940007D1DD9A2328D7D0730050100100010034
:1012A40073270080218B19CB7327008097260000B9
:1012B40023A0E68A98435D9B731007800F100000FB
:1012C40037170040930670052300D704930680FA6D
:1012D4002300D7040F1000008346B70493F6F60DDD
:1012E400A305D70423000704732700809C43A18B24
:1012F400D98F739007809727000023AB07840F10C2
:101304000000B240410182800111B7F5070026CAEE
:101314008146AA840A86E105194506CE22CC4AC82C
:1013240002C023120100EF00D030B717004003C7FA
:10133400E70413673700F3270080A18B172400000C
:101344001304048199CBF32700809726000023A17E
:10135400F6801C40DD9B739007800F100000B717C8
:101364000040930670052380D704930680FA2380F7
:10137400D7040F1000002382070223800704F326FA
:1013840000801C40A18BD58F7390078097170000B5
:1013940023A0077C0F100000F3270080A18B99CBBA
:1013A400F32700809716000023A4F67A1C40DD9BE7
:1013B400739007800F100000B71700409306700564
:1013C4002380D704930680FA2380D7040F100000EB
:1013D4002387E70423800704F32600801840218B29
:1013E400558F7310078017170000232307760F10FB
:1013F4000000B7F600E003A706D11367470023A84F
:10140400E6D003D50702E577910713750560458D8E
:101414005D8D420541810100F3270080A18B99CBAA
:10142400F3270080171700002324F7721C40DD9B6C
:10143400739007800F100000B71700401307700562
:101444002380E704130780FA2380E7040F100000C9
:1014540003C7F70013670704A387E70003C7B704AC
:1014640013670702A385E7042390A70223800704D8
:10147400732700801C40A18BD98F73900780971726
:10148400000023A7076C0F100000B7F4070037F91A
:1014940000E0E104832709D1DD9B2328F9D0730000
:1014A4005010010001001305C012EF00D006814660
:1014B4003000A685194502C423160100EF007017F9
:1014C40022478247E318F7FCF3270080A18B99CBCE
:1014D400F327008017170000232CF7661C40DD9BC0
:1014E400739007800F100000B717004013077005B2
:1014F4002380E704130780FA2380E7040F10000019
:1015040003D70702460745832390E7022380070495
:10151400732700801C40A18BD98F73900780971785
:10152400000023A707620F100000F3270080A18B9F
:1015340099CBF327008017170000232BF7601C407A
:10154400DD9B739007800F100000B717004013074E
:1015540070052380E704130780FA2380E7040F1043
:10156400000003C7B7041377F70DA385E7042380AE
:101574000704732700801C40A18BD98F73900780C8
:101584009717000023A6075C0F1000005145612740
:10159400F2406244D244424905618280411126C22C
:1015A40081460146AA848145114506C622C4EF003E
:1015B4005008371700408347E7028346E704035780
:1015C4008703116693F7F70F93E636006365C70048
:1015D400F19B93E7170073270080218B17140000F9
:1015E4001304045719CB7327008017160000232116
:1015F400E65618405D9B731007800F1000003717E4
:101604000040130670052300C704130680FA230064
:10161400C7040F10000023020702230007047326E7
:1016240000801840218B518F73100780171700001A
:10163400232007520F10000073270080218B19CB41
:1016440073270080171600002324E65018405D9B82
:10165400731007800F100000371700401306700541
:101664002300C704130680FA2300C7040F100000E8
:101674002307F7022307D7042300070473270080F6
:101684001C40A18BD98F739007809717000023A16A
:10169400074C0F10000013055002B92A37F700E079
:1016A400832707D193E747002328F7D0F327008047
:1016B400A18B99CBF327008017170000232AF74842
:1016C4001C40DD9B739007800F100000B71700408B
:1016D400130770052380E704130780FA2380E704C7
:1016E4000F10000003C7F70013670704A387E70080
:1016F40023800704732700801C40A18BD98F73902B
:1017040007809717000023A507440F100000F32754
:101714000080A18B99CBF3270080171700002329A1
:10172400F7421C40DD9B739007800F100000B71731
:101734000040130770052380E704130780FA238011
:10174400E7040F1000002567D98C239097022380AB
:101754000704732700801C40A18BD98F73900780E6
:101764009717000023A6073E0F10000037F700E08C
:10177400832707D1DD9B2328F7D073005010010085
:10178400010081460146814511456525F327008006
:10179400A18B99CBF327008017170000232AF73A6F
:1017A4001C40DD9B739007800F100000B7170040AA
:1017B400130770052380E704130780FA2380E704E6
:1017C4000F10000003C76704136717002383E7049F
:1017D40023800704732700801C40A18BD98F73904A
:1017E40007809717000023A507360F100000B240AA
:1017F400224492444101828073270080218B9717F1
:1018040000009387E73419CB7327008097160000F4
:1018140023A0E63498435D9B731007800F100000EB
:1018240037170040930670052300D704930680FA07
:101834002300D7040F1000008346B70493F6F60D77
:10184400A305D70423000704732600809443A18AC8
:10185400D18E739006809716000023AB062E0F10CE
:101864000000937605026384061A0347A700118BD0
:1018740025EB73270080218B19CB732700809716E3
:10188400000023A7E62C98435D9B731007800F107C
:10189400000037170040930670052300D704930611
:1018A40080FA2300D7040F1000008346A70093E6B4
:1018B40046002305D70023000704F326008098433D
:1018C400218B558F731007801717000023220728D8
:1018D4000F1000001307004B010001007D176DFF7E
:1018E40073270080218B19CB732700809716000083
:1018F40023A0E62698435D9B731007800F10000019
:1019040037170040930670052300D704930680FA26
:101914002300D7040F1000007D892314A7000100C1
:1019240001000100010023000704F326008098430E
:10193400218B558F7310078017170000232A072067
:101944000F10000073270080218B19CB73270080B0
:101954009716000023AEE61E98435D9B7310078024
:101964000F10000037170040930670052300D704BA
:10197400930680FA2300D7040F1000000F10000014
:10198400B726004013061005A383C680230007046E
:10199400F32600809843218B558F73100780171707
:1019A40000002327071A0F10000073270080218BE3
:1019B40019CB732700809716000023ABE6189843D1
:1019C4005D9B731007800F100000371700409306CB
:1019D40070052300D704930680FA2300D7040F1060
:1019E40000008346B70493E60608A305D704230042
:1019F4000704732700809C43A18BD98F73900780C1
:101A04009717000023A607140F1000008280937616
:101A14000504638706160347A700418B25EB73274C
:101A24000080218B19CB732700809716000023A117
:101A3400E61298435D9B731007800F100000371760
:101A44000040930670052300D704930680FA230010
:101A5400D7040F1000008346A70093E60601230570
:101A6400D70023000704F32600809843218B558F69
:101A74007310078017170000232C070C0F100000A9
:101A84001307007D010001007D176DFF732700809F
:101A9400218B19CB732700809716000023AAE60A2E
:101AA40098435D9B731007800F10000037170040A8
:101AB400930670052300D704930680FA2300D70405
:101AC4000F1000009376F50193E606042314D70063
:101AD400010001000100010023000704F326008037
:101AE4009843218B558F731007801717000023210B
:101AF40007060F100000130760046312E504732740
:101B04000080218B19CB732700809716000023A136
:101B1400E60498435D9B731007800F10000037178D
:101B24000040930670052300D704930680FA23002F
:101B3400D7040F100000B72600400946B1B573273B
:101B44000080218B19CB732700809716000023A1F6
:101B5400E60098435D9B731007800F100000371751
:101B64000040930670052300D704930680FA2300EF
:101B7400D7040F100000B72600401306200529B52E
:101B840073270080218B19CB7327008097160000E0
:101B940023A0E6FC98435D9B731007800F100000A0
:101BA40037170040930670052300D704930680FA84
:101BB4002300D7040F1000008356870093E6060C19
:101BC4002314D700E1B341118146014681451145F3
:101BD40006C68524F3270080A18B97160000938600
:101BE40026F799CBF3270080171700002322F7F676
:101BF4009C42DD9B739007800F100000B7170040D4
:101C0400130770052380E704130780FA2380E70491
:101C14000F10000003C76704136717002383E7044A
:101C240023800704732700809C42A18BD98F739073
:101C340007809717000023AD07F00F100000B24093
:101C4400410182808146014681451145DD22F32709
:101C54000080A18B17170000130787EF99CBF32798
:101C640000809716000023A5F6EE1C43DD9B7390BD
:101C740007800F100000B7170040930670052380FB
:101C8400D704930680FA2380D7040F100000FD5672
:101C94002396D70223800704F32600801C43A18BDC
:101CA400D58F739007809717000023A307EA0F10BE
:101CB4000000F3270080A18B99CBF32700809716AF
:101CC400000023A7F6E81C43DD9B739007800F10E8
:101CD4000000B7170040930670052380D7049306CD
:101CE40080FA2380D7040F10000083C6670493E6AC
:101CF40016002383D70423800704F32600801C43A3
:101D0400A18BD58F739007809717000023A207E457
:101D14000F10000001A0BD473305F50201007D1539
:101D240075FD8280411122C426C206C6AA840144DC
:101D340063179400B2402244924441018280050416
:101D44001305803E4204C13F4180DDB7B717004010
:101D5400130700032388E70285471717000023278A
:101D6400F7E073002030411122C406C63704002076
:101D74001C408297F5BF2303048015472303E480A6
:101D840001002302A480828083076480E3CE07FEDF
:101D940023030480828083076480E3CE07FE034527
:101DA4004480828083076480E3CE07FE2302A480FC
:101DB4008280411126C44AC24EC006C61377F50B71
:101DC400AD47AA892E8995446306F70019456537FE
:101DD400653F8D444E854537FD59FD1463983401A4
:101DE400B240A2441249824941018280135509013B
:101DF4001375F50F453F2209CDB7011126CC06CE48
:101E0400B704080051371545BD37713769372AC6FD
:101E1400A53F32459377150089EB136515001375BB
:101E2400F50FF240E24405618280FD14E9FC0145AE
:101E3400CDBF397126DC4ADA4ED852D656D45AD29E
:101E44005ED006DE62CE66CCB7E700E07D5783AA9B
:101E5400070022C603AA470023A0E71823A2E71815
:101E6400B7170040130770052380E704130780FAAF
:101E74002380E70483C74704930B75FFB684E20706
:101E840093FBFB0F8546AA892E8B328937240040A9
:101E9400E187015763FA76016308D5008946130781
:101EA40000026313D5000157D98F93F7F70FB71CBE
:101EB40000402382FC0411472303E4801305F00F40
:101EC4005D3D094CD135636D7C11B7050700DA958A
:101ED40037870700795563F2E504B3879500636E8D
:101EE400F702370B0800A94733EB65016399F9063C
:101EF40089E48144513D26850DA0DA850945553D87
:101F040005090345F9FFFD14050B693D81C4937769
:101F1400FB0FFDF7DD3569FD7D55B717004013074D
:101F240070052380E704130780FA2380E70403C7BE
:101F34004704418B2382E704F250B7E700E023A073
:101F4400571123A24711E25432445259C259325A0A
:101F5400A25A125B825B724CE24C21618280A547DB
:101F64006395F90685691309F00FB3069900B374F4
:101F74002B01B6941349F9FFB3749900856B337937
:101F84006901416B9387F9FFB3F7270199E363FC78
:101F9400340193D94900C147E3E637FF99BF056986
:101FA400C1697D19D9B71305800D638869011305CB
:101FB40000026384790113051008CA85DD3B353DB1
:101FC40021DD4E99B3843441D9B7DA852D45D53313
:101FD400CA94E30099F205097D3BA30FA9FED5BF7E
:101FE4009387F9FF93F7F70F6361FC0C83C71C0415
:101FF40013073008631FF70437070800636BEB040B
:10200400B3079B00B706100063F5D704334BEB000E
:1020140089476393F9068980D549E38C04ECDA8512
:102024000945413B11090327C9FF91472320E48057
:1020340003076480E34E07FE23033481FD17EDFBA1
:10204400FD14110B81C49377FB0FE9FF7D3371F508
:10205400E1B5B717004003C75704B7070800137763
:10206400070219E3B78707007955E378FBEA3307DA
:102074009B00E3FFE7F855B58547E382F9F2DA857B
:102084002D45053B9389F4FFE38504E6293393F753
:10209400390091EB83260480032709009307490044
:1020A400E39AE6E43E89CE84F1BFB5476396F9002E
:1020B4001305900BC93135BDB1471305B00AE38B45
:1020C400F9FE99476391F904B7050800B365BB00AD
:1020D4002D45C53181448D4BA149753963967401F1
:1020E400832704802320F9008504E39834FF8327A1
:1020F400048013172B01635507002312F900D5BB85
:102104002322F900FDB39D476399F9028145130524
:10211400B0044531BD442320090023220900FD59A0
:102124009D3993F77400CA9703C70700FD14398DCE
:102134002380A700E39634FF6DBBA1476392F904A3
:102144006D398144630D0B008D479304C00363080C
:10215400FB009304000563048B019304400413758E
:10216400C507E30895D81945393139390545213171
:1021740026850D3909453D314931E31C05D669BB36
:1021840091476399F90013056006F536F53E13058A
:1021940090090DB7E38F09D4F154A9BBBD6601477B
:1021A400173600001306867C938606A6854583476A
:1021B400060093F7F70F91C382800507E3F9E6FE63
:1021C400973700002384B77ADDB77D1662066186EF
:1021D40093178601E18763D4070001458280931732
:1021E40026003307F500AE9718439C4363E7E700E6
:1021F4007D16E37FF7FC7D55828005458280FD15C1
:10220400E205E18513978501618793F7F50F63482C
:102214000700FD15139725002A97584365D71385A2
:1022240017006205618582803308B5021C4283A8C9
:102234000600B335B502C29733B50701AE9846958B
:1022440085486367B5006394A50063E3070181488B
:102254000C43C6950CC388C21CC282808147139765
:10226400870161876343B7008280139727002A9709
:10227400232007008507E5B7814701479396870127
:10228400E18663C5B6001335170082809396270054
:10229400AA9694428507558FD5B793D755408A0798
:1022A400AA979C4305453315B5007D8D828017F3AD
:1022B400FFDFE702C3352A84993705C59317250044
:1022C4003E940327C4FF814711EB7D1516053E9507
:1022D4004205418517F3FFDF6700A33505838507B2
:1022E400E5B70145C5BF81471397870161876343FC
:1022F400C700828013972700B386E50094422A978B
:10230400850714C3D5B77D16620661860147931706
:102314008601E18763D50700133517008280931780
:102324002600B306F500AE9794429C437D16B58F04
:102334005D8FF1BF8A05AA9501476363B50082806A
:1023440083A6C5FFF11593D71600D98F9CC11397A7
:10235400F601E5B72A830148014701456343D700E5
:102364008280B387050183A80700B30706019C4355
:10237400C697AA976384F80033B517010507B30815
:102384000301620723A0F80061871108C1BF2A83F3
:1023940001478147014563C3D70082803388E50044
:1023A40083280800330EE600032E0E003388A8406D
:1023B4003308C8416384080133B508018507B308AD
:1023C400E300E20723A00801E1871107E9B717F347
:1023D400FFDFE702C3230111B286B2842E86AA85E9
:1023E4000A8575372A84A6850A85793533348000B1
:1023F400060413351500018D056117F3FFDF67002F
:10240400432317F3FFDFE702031E4111AA89AE8AB3
:10241400328BB68402C202C402C60144131C840176
:10242400135C8C4163499C02939B1400FD1B05497A
:10243400138CF4FFF15C3304890162046184634DFD
:10244400740592478E04CE9423AEF4FE410117F333
:10245400FFDF6700C31C13192400B30B2B01014ACF
:1024640093172A00D69783A50B008843780034007D
:1024740050005D3B050A93178A01E187F11BE35184
:10248400FCFE92474E9905042320F900A2473EC260
:10249400B24702C63EC459B7131A8901135A8A4176
:1024A400131D240093178A01E18763CF9700924795
:1024B4000A044E941CC0A24705091379F90F3EC2C1
:1024C400B24702C63EC485BFB3079A0313152A0058
:1024D40056950841780034005000050AEA97DA97C7
:0824E4008C439933C1B70000DD
:1024EC0097010020938141B1176100201301C1B005
:1024FC0017F5FFFF130585B0970500209385C5AF31
:10250C00171600201306C6FD63FAC50083220500CA
:10251C0023A0550011059105E3EAC5FE17D501006E
:10252C001305851997150020938585FB1716002038
:10253C001306866063FAC5008322050023A05500AC
:10254C0011059105E3EAC5FE171500201305C55EBC
:10255C00975500209385C5906377B500232005001F
:10256C001105E36DB5FEFD42739002BC8D42739074
:10257C004280B722000093828288739002309702C7
:10258C000020938262A793E2320073905230371787
:10259C000040930770052300F704930780FA23008B
:1025AC00F7040F1000003C47B70600FAE116F58F50
:1025BC00B70600069506D58F3CC79742000093825C
:1025CC00A255739012346FB0F4227300203039711D
:1025DC0001436EC619A0397141536AC866CA62CCF0
:1025EC005ECE19A0397101535AD056D252D44ED660
:1025FC004AD826DA22DC06DE3301614082824111A0
:10260C004AC026C222C406C68282B24D4101024D86
:10261C00924C224CB24B4101024B924A224AB24993
:10262C004101024992442244B240410182803D431F
:10263C002A876373C3029377F700BDEFADE59376FA
:10264C0006FF3D8ABA960CC34CC30CC74CC7410756
:10265C00E36BD7FE11E28280B306C3408A06970271
:10266C00000096966780A6002307B700A306B70064
:10267C002306B700A305B7002305B700A304B700D2
:10268C002304B700A303B7002303B700A302B700CA
:10269C002302B700A301B7002301B700A300B700C2
:1026AC002300B700828093F5F50F93968500D58DA6
:1026BC0093960501D58D61B793962700970200007C
:1026CC0096968682E78086FA9680C1171D8F3E9675
:1026DC00E374C3F8A5B73367B500FD530D8B79E7E9
:1026EC00B7877F7F9387F7F710419441B372F60059
:1026FC003363F600BE92B3E262006397720C631808
:10270C00D6065041D441B372F6003363F600BE9244
:10271C00B3E262006398720A631BD60410459445B9
:10272C00B372F6003363F600BE92B3E262006391BB
:10273C00720A631ED6025045D445B372F600336359
:10274C00F600BE92B3E26200639A72086311D6027D
:10275C0010499449B372F6003363F600BE92B3E2AB
:10276C006200639372085105D105E30FD6F6131777
:10277C00060193970601631CF7001357060193D7C4
:10278C0006013305F7409375F50F91E9828041837B
:10279C00C1833305F7409375F50F91E18280137770
:1027AC00F70F93F7F70F3305F740828003460500C8
:1027BC0083C60500050585056313D60065FA330548
:1027CC00D640828011059105E312D6FE0145828028
:1027DC002105A105E31CD6FC014582803105B1051C
:1027EC00E316D6FC014582804105C105E310D6FCF9
:1027FC000145828017150020034505340589828028
:10280C00171500200355453305810589828017155E
:10281C000020035565320981058982801715002037
:10282C00035585310D8105898280171500200355CC
:10283C00A530118105898280171500200355C52FFD
:10284C00158105898280171500200355E52E198105
:10285C0005898280171500200355052E1D810589D9
:10286C008280171500200355252D21810589828032
:10287C00171500200355452C2581058982801715D5
:10288C0000200355652B29810589828017150020AE
:10289C000355852A2D81058982809717002083C7CF
:1028AC003739171700201307A7343E9785072300E5
:1028BC00A70093F7F70F1307F0036367F7001717D9
:1028CC000020A307F736828097170020A3820736D3
:1028DC0082809717002083C7A7351717002003475E
:1028EC00373501456309F7021717002013074730E6
:1028FC003E9785070345070093F7F70F1307F0037F
:10290C006367F700171700202304F73282809717AC
:10291C000020238F07308280411106C6EF90E1180A
:10292C00EF904134971700202398A72019C59307DF
:10293C002003171700202306F720971700209387F2
:10294C00272A9C4382970547AA876316E508171721
:10295C0000200347872911E7171700202307F728C2
:10296C002D3F171700200357272821CF971700203A
:10297C0083D7672763F3E7028507C207C1839716DE
:10298C0000202392F626631EF702894717170020B2
:10299C00230DF7240D4511372DA0171700200347E1
:1029AC00D72405C3971700209387872383C7C700B5
:1029BC00850793F7F70F63FAE70017170020230733
:1029CC00F722B24041016F90210497170020238F0A
:1029DC0007200545C9B79717002083C7072199C75A
:1029EC0009459717002023820720453D97170020A3
:1029FC00239B071E97170020238A071ED9B797170A
:102A0C0000209387A7139443B717004003A6070B26
:102A1C0013C7F6FF798E23A8C70A03A6470B718F3D
:102A2C0023AAE70A03A7070A558F23A0E70A03A7DF
:102A3C00C70A558F23A6E70A828097170020938731
:102A4C00E70F9C435971A6D28564C58F17170020D8
:102A5C002326F70E9717002083D7870E93E71700CE
:102A6C0086D617170020231DF70CCAD0A2D4CECEC1
:102A7C00D2CCD6CA231F0102231001042311010456
:102A8C0023120104231301049D3F8D47A30FF10270
:102A9C009D472300F1041307803E93071010514605
:102AAC006C18231EF102BAC42312F10405479717C0
:102ABC000020938767110808A301E104BEC6EF90BC
:102ACC0031440808EF80D164314697B501009385F5
:102ADC00A5FC0A85EF90D1420A85EF80E1069306AA
:102AEC00803E0D4685450945EF9041037D7993075E
:102AFC00892BAA97C207C183130700196363F70CCC
:102B0C00AA850145EF802118EF80117097170020DE
:102B1C00239007128547171700202305F70C9717EA
:102B2C00002023A3070C971700202381070C97176D
:102B3C0000209387E79A9C43B65026541717002021
:102B4C002320F70A96540659F649664AD64A656117
:102B5C00828063FDB4007D141374F40FA285D146FA
:102B6C000D460945EF80917BAA853DA005041374A1
:102B7C00F40F630B3403A2859306803E0D46094582
:102B8C00EF80D179AA8519E063E0AA02B387250109
:102B9C00C207C183E36FFAFA0145EF80C10E0D46FF
:102BAC00A2850145EF80E1128D450565EF00B0521D
:102BBC00371700408327C70A8566D58F2326F70A67
:102BCC00A1B7353D81450565938A84EDEF00B05082
:102BDC0001441309F937130A6025938474ED9309A2
:102BEC00000251BF17150020035585F51345F5FF5D
:102BFC009307200342054111171700202303F7F414
:102C0C004181854706C617170020A30CF7F2EF8009
:102C1C00A10BEF80715FB2404101D5B3411106C6E3
:102C2C00EF80915EE93BB24097170020A38B07F031
:102C3C00171500200355C5F041016F80E108B71747
:102C4C00004003C777051377E70FA38BE70413073F
:102C5C0000F8A38DE7043D47238CE70413075003CA
:102C6C00A38CE7048280B717004083C7E7040D8963
:102C7C0093F7C70FC98F73270080218B97160020FD
:102C8C00938646EC19CB7327008017160020232B54
:102C9C00E6EA98425D9B731007800F10000037170F
:102CAC000040130670052300C704130680FA2300A6
:102CBC00C7040F1000002307F70423000704732731
:102CCC0000809C42A18BD98F7390078097170020AE
:102CDC0023AA07E60F1000008280B717004083C7B5
:102CEC00E7020D8993F7C70FC98F73270080218BDB
:102CFC0097160020938606E519CB732700801716CC
:102D0C0000202321E6E498425D9B731007800F108E
:102D1C00000037170040130670052300C704130684
:102D2C0080FA2300C7040F1000002307F7022300CA
:102D3C000704732700809C42A18BD98F7390078066
:102D4C009717002023A007E00F100000828041118C
:102D5C002A83014E930E407E130F0019930F4006E9
:102D6C0063EE6E149308001913034006B378150331
:102D7C00854E0D4FA14F337365020D891335150028
:102D8C0063E8BE161308F6FF79467298420813588A
:102D9C0008013307C70213D61700BE0732976146E6
:102DAC00B3F6C60213068070B386C6023697A166C8
:102DBC00F58F42075D8FB716004083C7F60293F775
:102DCC000708A307F1000346F10083C7F60293F747
:102DDC000708E394C7FE8347F100B716004093F74A
:102DEC00F70F63810716F3270080A18B971600203D
:102DFC00938646D5639E07140F100000B71700404A
:102E0C00130670052380C704130680FA2380C704B9
:102E1C000F10000023AA070303C617031366060846
:102E2C00A388C70223800704732600809C42A18BD1
:102E3C00D18F739007809717002023A507D00F1010
:102E4C0000001166B71500407D16DC59C85DA98FCE
:102E5C00F18FE5FFF3270080A18B99CBF32700803E
:102E6C00171600202320F6CE9C42DD9B7390078022
:102E7C000F100000B7170040130670052380C7041D
:102E8C00130680FA2380C7040F100000D8DB03C799
:102E9C00170313670704A388E7022380070473272B
:102EAC0000809C42A18BD98F7390078097170020CC
:102EBC0023AA07C80F100000410182807D133368DC
:102ECC00E3039308E016630E08003368F3039308DA
:102EDC00D016630808009378330093B818009388D1
:102EEC00D81633081E01131E0801135E0E018DBD8A
:102EFC006393E503054863860800014863030300F8
:102F0C002A8871087298FD15131E0801C205135EFC
:102F1C000E01C181B5B513F8150063F4BF00790833
:102F2C00D5B713381800E5BF83C7F60293F7070827
:102F3C00A307F1000346F10083C7F60293F70708D5
:102F4C00E394C7FE8347F10093F7F70FF1DF61BD00
:102F5C00F3270080171600202326F6BE9C42DD9B2B
:102F6C007390078051BD5971E2C486D6A2D4A6D203
:102F7C00CAD0CECED2CCD6CADAC8DEC6E6C2EAC039
:102F8C006EDE2A8C02D6EF00B04DF3270080A18BA9
:102F9C00171D0020130D0DBB81CFF32700801717D1
:102FAC0000202321F7BA83270D00DD9B7390078047
:102FBC000F100000B7170040130770052380E704BB
:102FCC00130780FA2380E7040F10000003C7F702F1
:102FDC001377770FA387E70203C7F70213678700FE
:102FEC00A387E702238007047327008083270D0043
:102FFC00A18BD98F739007809717002023A407B457
:10300C000F100000F3270080A18B81CFF3270080E5
:10301C00171700202328F7B283270D00DD9B739030
:10302C0007800F100000B7170040130770052380AE
:10303C00E704130780FA2380E7040F10000003C78E
:10304C00E7021377C70F2387E70203C7E70213676B
:10305C0017002387E7022380070473270080832748
:10306C000D00A18BD98F739007809717002023AB8D
:10307C0007AC0F1000001308803E3346050393077E
:10308C00007D2167930550023D6937440F001304FE
:10309C000424856B130BA004916A8149014A9304A3
:1030AC007005FD1AB307F602B3C7E702130780C118
:1030BC003347E5023EC2930709A605493319890136
:1030CC00135939403307B7023347F70233458502AA
:1030DC003AC413840BFA33148401811BB305B60272
:1030EC0033C7F50233048502130500103AC6330BBF
:1030FC0066033344A4023347FB02130B80FA3304F8
:10310C0004033AC8130700083347E4023309C90221
:10311C003ACA130760553309E902B347F902371964
:10312C000040130409043ECC73260080218A01CE92
:10313C00732600809717002023A6C7A003260D0036
:10314C005D9A731006800F10000093077005230022
:10315C00F400230064010F100000034639051376B8
:10316C00860FA309C9040346390513661600A30983
:10317C00C904230004007325008003260D00218A56
:10318C00498E731006809717002023AD079A0F10F5
:10319C000000916CE17D73260080218A01CE73269C
:1031AC0000809717002023AFC79803260D005D9A67
:1031BC00731006800F100000930770052300F400B5
:1031CC00230064010F100000034639051366060244
:1031DC00A309C90403560905336696012318C904CB
:1031EC00035609053366B601420641822318C90409
:1031FC00230004007325008003260D00218A498ECC
:10320C00731006809717002023AE07920F10000052
:10321C000346390513760602630F06160346390575
:10322C00218A6DDE6810EF00D02773260080218A7A
:10323C0001CE732600809717002023A5C790032684
:10324C000D005D9A731006800F100000230094008F
:10325C00230064010F100000034639051376F60DA8
:10326C00A309C9040346390513660602A309C90458
:10327C0003560905336696012318C904035609053C
:10328C003366B601420641822318C90423000400A8
:10329C007325008003260D00218A498E7310068049
:1032AC009717002023A0078A0F100000034639054A
:1032BC0013760602630F061003463905218A6DFE4C
:1032CC0097F0FF1FE780A0DF2A8632CE97F0FF1F12
:1032DC00E780E0DE7246E30AC5FE03560905325567
:1032EC00336696012318C904EF00B01D0346390557
:1032FC00218A6DDE0355090503462905924733F5EE
:10330C00AA003386CA0232951D8DA24763D5A70049
:10331C00B247634EF50E0946636D460FC247050A68
:10332C0013161500137AFA0F3346F6026352A03EB9
:10333C00050609453346A60273250080218901CD77
:10334C00732500809707002023AEA77E03250D0070
:10335C005D99731005800F1000002300940023006A
:10336C0064010F1000000355C9022A9642064182DF
:10337C002316C902230004007325008003260D00C8
:10338C00218A498E731006809707002023AC077A98
:10339C000F10000009B573260080218A01CE732618
:1033AC0000809707002023AFC77803260D005D9A95
:1033BC00731006800F10000023009400230064019A
:1033CC000F1000000346390513660602A309C90451
:1033DC0005B573260080218A01CE732600809707DD
:1033EC00002023A1C77603260D005D9A731006807A
:1033FC000F10000023009400230064010F10000044
:10340C000346390513660602A309C90441B5E3074F
:10341C000AF073260080218A01CE7326008097075C
:10342C00002023A1C77203260D005D9A731006803D
:10343C000F10000023009400230064010F10000003
:10344C00034639051375FC0F1376860FA309C904BF
:10345C0003463905498EA309C904230004007328C7
:10346C00008003260D00218A336606017310068046
:10347C009707002023A8076C0F100000034639059E
:10348C001D8A6319862973260080218A01CE732632
:10349C0000809707002023A7C76A03260D005D9ABA
:1034AC00731006800F1000002300940023006401A9
:1034BC000F1000000346390511651376F60DA309AC
:1034CC00C9040346390513660602A309C904035649
:1034DC000905498E2318C904035609052165498E2F
:1034EC002318C904230004007325008003260D0053
:1034FC00218A498E731006809707002023A4076445
:10350C000F1000000346390513760602630E0622DF
:10351C0003463905218A6DDE681061277326008009
:10352C00218A01CE732600809707002023ACC76048
:10353C0003260D005D9A731006800F100000230007
:10354C009400230064010F10000003463905116537
:10355C001376F60DA309C904034639051366060252
:10356C00A309C90403560905498E2318C904035637
:10357C0009052165498E2318C9042300040073250D
:10358C00008003260D00218A498E73100680970750
:10359C00002023A9075A0F100000034639051376A3
:1035AC0006026301061E03463905218A6DFE97F05B
:1035BC00FF1FE780C0B0AA8C97F0FF1FE78020B0F8
:1035CC00E30C95FF035609051165498E32552318F6
:1035DC00C904C52D03463905218A6DDE732600808A
:1035EC00218A170500201305E55519CA732600809A
:1035FC009707002023A8C75410415D9A73100680CA
:10360C000F10000023009400230064010F10000031
:10361C00034639051376F60DA309C90423000400EB
:10362C00732800801041218A3366060173100680CE
:10363C009707002023A807500F1000000358090516
:10364C0003462905D24733F80A013386CA02329859
:10365C003308F8401306800C3306C802E2473346A1
:10366C00F602635F00150506094833460603635BE3
:10367C00C0140358C9029308F00F1358580032981D
:10368C0063D608210946637F3619F3270080A18B86
:10369C0099CBF3270080170700202325F74A1C41FC
:1036AC00DD9B739007800F100000371700409307C5
:1036BC0070052300F704930780FA2300F7040F101A
:1036CC0000008356C70289678117D58FC207C18353
:1036DC002316F70223000704732700801C41A18BDB
:1036EC00D98F739007809707002023AD07440F10E4
:1036FC000000B650265496540659F649664AD64AE6
:10370C00464BB64B264C964C064DF25D656182805D
:10371C007D1605B173260080218A01CE73260080A8
:10372C009707002023A0C74203260D005D9A731053
:10373C0006800F10000023009400230064010F107A
:10374C0000000346390539B373260080218A01CE67
:10375C00732600809707002023A6C73E03260D0082
:10376C005D9A731006800F10000023009400230054
:10377C0064010F1000000346390513660602A30905
:10378C00C9048DB373260080218A01CE7326008074
:10379C009707002023A8C73A03260D005D9A7310E3
:1037AC0006800F10000023009400230064010F100A
:1037BC0000000346390513660602A309C90475BB4C
:1037CC007D165DB561C60358C902B308C0401358D5
:1037DC005800635D180B094663763605F3270080A5
:1037EC00A18B99CBF327008017070020232CF734EB
:1037FC001C41DD9B739007800F100000B717004031
:10380C00130770052380E704130780FA2380E7046D
:10381C000F10000003D7C7027D8B2396E70223808D
:10382C0007045DBD73260080218A19CA73260080A7
:10383C009707002023A8C73010415D9A73100680AB
:10384C000F10000023009400230064010F100000EF
:10385C000356C9021376F60F33667601420641828F
:10386C002316C90223000400732800801041218A0A
:10387C0033660601731006809707002023A4072CDB
:10388C000F100000850993F9F90F79B8F327008020
:10389C00A18B99CBF3270080170700202324F72A4C
:1038AC001C41DD9B739007800F100000B717004080
:1038BC00130770052380E704130780FA2380E704BD
:1038CC000F10000003D7C70216063A964206418233
:1038DC002396C702A9B7914763EEB70217A7010059
:1038EC00130787248A05BA959C41BA978287B71724
:1038FC00004003A7470B1345F5FF698F23AAE70A7E
:10390C0003A7070B698F23A8E70A03A7070A798D7A
:10391C0023A0A70A8280B717004083A6470B134742
:10392C00F5FFF98E23AAD70A83A6070B558D23A87A
:10393C00A70A83A6070A758F23A0E70A8280B71708
:10394C00004003A7470B498F23AAE70A03A7070BDD
:10395C001345F5FF45BFB717004083A6470B134728
:10396C00F5FF758F23AAE70A03A7070A598D4DB7F0
:10397C00B717004003A7470B498FEDB7914763EE8C
:10398C00B70217A701001307671B8A05BA959C415C
:10399C00BA978287B717004003A7470D1345F5FF69
:1039AC00698F23AAE70C03A7070D698F23A8E70CDF
:1039BC0003A7070C798D23A0A70C8280B7170040B2
:1039CC0083A6470D1347F5FFF98E23AAD70C83A6C0
:1039DC00070D558D23A8A70C83A6070C758F23A064
:1039EC00E70C8280B717004003A7470D498F23AA25
:1039FC00E70C03A7070D1345F5FF45BFB7170040AC
:103A0C0083A6470D1347F5FF758F23AAE70C03A771
:103A1C00070C598D4DB7B717004003A7470D498FB9
:103A2C00EDB79D4763E3A70217A7010013074712E1
:103A3C000A053A951C41BA9737570040828783474D
:103A4C00270093F7070F2301F70082808347270095
:103A5C0093F7070F93E71700FDB78347270093F7FA
:103A6C00070F93E74700C5B78347270093F7070F66
:103A7C0093E75700C9BF8347270093F7070F93E7D6
:103A8C008700D1B78347270093F7070F93E7970079
:103A9C005DBF8347270093F7070F93E7C70065B710
:103AAC008347270093F7070F93E7D70069BF99EA7D
:103ABC00B757004003C707001345F5FF798D2380E6
:103ACC00A70082803757004005CE83471700C98F67
:103ADC00A300F70037570040814711072146B35622
:103AEC00F540858A89C6B386E7002380B600850732
:103AFC00E397C7FEB757004003C70700598DC1B7FE
:103B0C00834617009347F5FFF58FD9B7411122C4AF
:103B1C003717004006C683472702035707021704CE
:103B2C0000201304240293F7F70F4207418325ED7D
:103B3C001377F79F420793F7F7074183F32600802B
:103B4C00A18A99CAF326008017060020232CD6FEE2
:103B5C001440DD9A739006800F100000B7160040D9
:103B6C00130670052380C604130680FA2380C6044E
:103B7C000F10000093F7F70F2381F6022390E60253
:103B8C0023800604732700801C40A18BD98F73906F
:103B9C0007809707002023A707FA0F100000B240F8
:103BAC0022444101828093E7070813670740F326FC
:103BBC000080A18A99CAF3260080170600202323CF
:103BCC00D6F81440DD9A739006800F100000B716DB
:103BDC000040130670052380C604130680FA238068
:103BEC00C6040F1000002381F6022390E602238006
:103BFC000604732700801C40A18BD98F739007801B
:103C0C009707002023A007F40F100000294597F018
:103C1C00FF1FE780C00FF3270080A18B99CBF32700
:103C2C00008017070020232FF7F01C40DD9B7390BA
:103C3C0007800F100000B717004013077005238092
:103C4C00E704130780FA2380E7040F10000003D762
:103C5C000702136707202390E702238007041DB790
:103C6C00B717004003D587004205418193770504BF
:103C7C0091EB9377F5013755E80113050580334532
:103C8C00F50282809377050C130700046397E70015
:103C9C009377F50137459C1CCDB72165130505D0ED
:103CAC00828037E700E01C435443A183E206D58FA2
:103CBC001CC1FD572320F7182322F7180F10000002
:103CCC00828013178500B7E700E023A0E71061811D
:103CDC0023A2A7108280B7F700E08847CC478280E8
:103CEC00970700209387C7E19C43173700201307E1
:103CFC0027173E95636EE500174700201307C70F83
:103D0C006368A70017070020232CA7DE3E8582805E
:103D1C00FD57EDBF2D4559EF03C505000947631746
:103D2C00E50803A84500411106C603471800328573
:103D3C000346080022074168518F930828FE630848
:103D4C00170363E9E80005186303070523900600D1
:103D5C0029451DA8130648FE630BC7021518E31767
:103D6C0007FF15463E87637BF602154705A83E867E
:103D7C0091C30546B7E70400FC472390C6004206F2
:103D8C00CC45418282970145B240410182801306A5
:103D9C00700F3E876374F6001307700FB7E70400CB
:103DAC002390E600FC4713160701D9BF23900600A9
:103DBC00054582808280416779176304E5044111CF
:103DCC0022C406C685472A84639FF500B7E7040022
:103DDC0022852244B24003A38713970500209385C4
:103DEC00E5D64101028389476399F500B7E70400E2
:103DFC0083A7070B8545829771D9B24022444101B4
:103E0C0082808280797122D452CC2E842A8A97A502
:103E1C000100938525D717A50100130565D806D693
:103E2C003AC626D24AD0B68432894ECEEF80B1182B
:103E3C00A68517A501001305A5D7EF80D117294535
:103E4C00EF80911B8347840093F70702F1E38349CA
:103E5C0004008947054532476396F908544083C7E7
:103E6C00160083C60600A207D58FC166138616FE00
:103E7C00638CC7028D16638FD7068D66938626904A
:103E8C0029456391D706B7E70400A285225403A302
:103E9C004714B250F249A6864A869254025952856A
:103EAC00624A8547456102832D450DEF9307700FDC
:103EBC00354563E99702B7E70400FC47484413060D
:103ECC00700FCA8582978149970700209387C7C8CE
:103EDC009C43014581CB9C4391C74E852686CA8560
:103EEC0082970145B250225492540259F249624AC7
:103EFC00456182802D457DF7D5473545E3E497FE36
:103F0C00B7E70400FC4748445546CA8582976DBF05
:103F1C002145C9BF411122C437E40400832784130F
:103F2C0026C2AA84416506C697050020938505C262
:103F3C007D1582978327C40A170500001305E5E752
:103F4C008588829795C0032304132244B24092447F
:103F5C0097F6FF1F9386466D4146C54517F5FF1F23
:103F6C001305855B41010283B24022449244014512
:103F7C004101828019C59707002023AFA7BC0145DA
:103F8C0082804545828011476368A70A97A6010085
:103F9C00938606BE0A0536951841411106C636971A
:103FAC00AE87B28502871307700F6145639DE700EA
:103FBC00B7E70400FC471306700F17050020130524
:103FCC0065C782970145B240410182800547614532
:103FDC00E39BE7FEB7E70400FC4705461705002006
:103FEC00130585B6F9BF55476145E39EE7FCB7E776
:103FFC000400FC47554617050020130525D3D1B7FF
:10400C001307700F6145E390E7FCB7E70400FC472A
:10401C001306700F170500201305C5D25DB71547A1
:10402C006145E392E7FAB7E70400FC47154617052C
:10403C0000201305E5B171B709458280411126C2F4
:10404C00B7E4040083A7C41322C44AC006C62E8456
:10405C0097050020938585AF2A898297058905C528
:10406C0097F7FF1F9387474B83D7A70BA28503A313
:10407C00440D2310F4002244B24092444A85024974
:10408C00014641010283B24022449244024949450F
:10409C004101828011456FE01FED4111939625007F
:1040AC00AA852D4506C697F0FF1FE78000D8B240C1
:1040BC00014541018280411126C29394250022C4FE
:1040CC004AC02A843289A686AA850146254506C699
:1040DC0097F0FF1FE78060D5A6864A86A285294502
:1040EC0097F0FF1FE78060D4B2402244924402490B
:1040FC00014541018280011122CC06CE37140040CB
:10410C0026CA4AC84EC652C483447405034AB40531
:10411C008349840503499405EFE07FB28347A405E6
:10412C0093F4F40F137AFA0F93E71700230DF404AA
:10413C0093F9F90F1379F90FB717004003C7A705C7
:10414C00058B6DFF03D5C705A38D4705238C37055C
:10415C00A38C2705A38B9704F2406244D2444249B6
:10416C00B249224A0561828041119397050122C40C
:10417C0006C626C2C1872E8463D00702B7E40400AA
:10418C00FC54829719C1BC5482972165218DB24091
:10419C00224492444101828093F7150013C5150007
:1041AC00FDF79397250163D50702B7E4040083A7B5
:1041BC00C41E8297C535BC4C37F60200130606E0C8
:1041CC0089651705002003456599829709657DBFB0
:1041DC00939715010145E3DC07FAB7E70400BC4FE0
:1041EC0013060064916517050020034525978297F7
:1041FC00116569BF1D71A2CC37E404005C5C4858A2
:10420C0086CE494697A501009385C59C829711E1FE
:10421C0001A0B7F600E0795798CAFD57DCCA0567CC
:10422C00B7E700E023A0E7101306F00290C223A02A
:10423C00E7180F1000003C441306C00381454808E2
:10424C00829797170020938767973ECA8967938751
:10425C0007BD231CF100A167938707E03ECEB7078B
:10426C000105938707103ED09307B00F2312F1027C
:10427C0085472303F10297070000938747E2BEC4EA
:10428C0097070000938767E3BEC6970700009387E4
:10429C00C7A43EDA97070000938727E63EDE970710
:1042AC000000938767DFBEC0B737020D9387D7E353
:1042BC00B7F507003ED48146970700009387072087
:1042CC007000E10519453EDC97F0FF1FE780E0B573
:1042DC0058088147994670003E96034606008507AC
:1042EC000507A30CC700E398D7FED24791C7035725
:1042FC00810185676373F70001A0B7E7040083A70A
:10430C00470A4808829711C101A0F640664425610E
:10431C008280411126C2B7E4040083A7040806C6B4
:10432C0022C417050000130565E4829717040020CA
:10433C001304C4822300A4005920212C034504003B
:10434C00224403A38405B2409244130600328965CB
:10435C0041010283F3270080A18B17F7FF1F13077E
:10436C00677E99CBF327008097F6FF1F23ACF67C72
:10437C001C43DD9B739007800F100000B7170040A3
:10438C00930670052380D704930680FA2380D70404
:10439C000F100000C8DB23800704F32600801C43A9
:1043AC00A18BD58F7390078097F7FF1F23AC0778ED
:1043BC000F10000097F7FF1F23A4077A828041118A
:1043CC0006C6F3270080A18B17F7FF1F130787770B
:1043DC0099CBF327008097F6FF1F23A5F6761C4395
:1043EC00DD9B739007800F100000B71700409306F9
:1043FC0070052380D704930680FA2380D7040F100E
:10440C00000083C6F70293F6A60FA387D70223807A
:10441C000704F32600801C43A18BD58F7390078073
:10442C0097F7FF1F23A007720F100000F3270080DF
:10443C00A18B99CBF327008097F6FF1F23A4F6706E
:10444C001C43DD9B739007800F100000B7170040D2
:10445C00930670052380D704930680FA2380D70433
:10446C000F10000083C6F70293E62600A387D7023D
:10447C0023800704F32600801C43A18BD58F7390F7
:10448C00078097F7FF1F23AF076A0F100000054541
:10449C00EFE0BF84013181471305407E014781461F
:1044AC0005468545EFE0BF8AB7E70400B24003A399
:1044BC004707014541010283011122CC2A8468007F
:1044CC0006CE26CAEFF0EFFD97E0FF1FE78020BF76
:1044DC00B307A4406376A400B707C0A8A297898F3E
:1044EC003707B8A19387F7FD1307F7FD637BF70038
:1044FC003245EFF00FFD0945F2406244D2440561AC
:10450C0082802285813D324597F4FF1F9384446558
:10451C00EFF02FFB9C400D45E5F3694597E0FF1F3D
:10452C00E78000DE9C408DC31305E402B707C0A8EA
:10453C0063F7A700370540571305E5022295193D8F
:10454C0097E0FF1FE78020B90545EFE0CFF101456B
:10455C0065B7F3270080A18B17F7FF1F1307875E42
:10456C0099CBF327008097F6FF1F23ADF65C1C4315
:10457C00DD9B739007800F100000B7170040930667
:10458C0070052380D704930680FA2380D7040F107C
:10459C00000083C6E70093E686002387D7002380BC
:1045AC000704F32600801C43A18BD58F73900780E2
:1045BC0097F7FF1F23A807580F100000F327008060
:1045CC00A18B99CBF327008097F6FF1F23ACF656EF
:1045DC001C43DD9B739007800F100000B717004041
:1045EC00930670052380D704930680FA2380D704A2
:1045FC000F10000083C6170393E60602A388D702A8
:10460C0023800704F32600801C43A18BD58F739065
:10461C00078097F7FF1F23A707520F100000B7E77B
:10462C0000E03707001023A0E71082804111979516
:10463C00010093852571179501001305655606C673
:10464C00EF80611717A5010013058586EF80A11671
:10465C00B240294541016F80211A41119795010003
:10466C009385856F179501001305855306C6EF805A
:10467C00811417A5010013056582EF80C113B240A8
:10468C00294541016F804117411122C406C6834759
:10469C0005002A849DC3979501009385A5711795F4
:1046AC0001001305E54FEF8001114C4017A50100E7
:1046BC001305458EEF8021101DA058411DE79795DD
:1046CC0001009385256F179501001305654DEF804B
:1046DC00810E17A501001305658DEF80C10D2244D5
:1046EC00B240294541016F802111A1679386D70300
:1046FC006311D702979501009385C56B179501003F
:10470C001305054AEF80210B17A501001305058B36
:10471C00E9B7ED07979501009385C56917950100D9
:10472C00130505486319F700EF80E10817A5010090
:10473C001305058A5DB7EF8001084C4017A50100F1
:10474C001305058B85BF4111979501009385056273
:10475C00179501001305C54406C6EF80C105B2408C
:10476C00294541016F804109411106C617070020F8
:10477C000347C72C9307F00A631FF7009307F00851
:10478C008945170500201305652B170700202317F3
:10479C00F72AEF300068EF3020778145014597F715
:1047AC00FF1F23AD073C97F7FF1F2396073C97F796
:1047BC00FF1F2383073C97F7FF1F239C073A97F7AC
:1047CC00FF1F2397073A97F7FF1F2395073A97F791
:1047DC00FF1F2397073AEF20E0200145EF30606977
:1047EC00979501009385055B179501001305453BD3
:1047FC00EF70717C17A501001305458AEF70B17B32
:10480C00B240294541016F70317F411122C406C667
:10481C0026C293F715002E846387070E814617F680
:10482C00FF1F130626FD854517F5FF1F035505349D
:10483C00EF80F02F05C59795010093856556179568
:10484C0001001305E535EF7011771795010013057D
:10485C006540EF7051762945EF70117A97950100FC
:10486C00938505541795010013058533EF70B174CA
:10487C00179501001305453FEF70F1732945EF7053
:10488C00B17717F5FF1F130565F95C4505472390B4
:10489C00E700EF00A155979501009385655017959A
:1048AC0001001305E52FEF70117117950100130529
:1048BC00E53CEF7051702945EF701174930710F8B7
:1048CC0017070020230CF71697F7FF1F83D7C7296C
:1048DC0017070020A304F71617050020130505166B
:1048EC00A183914517070020230BF714970700208D
:1048FC00A3870714EF30E05113451400B240224453
:10490C0092444101828093F72500D5C717F7FF1F0A
:10491C000357672651CF97F6FF1F9386262694429E
:10492C00979701009387877917F6FF1F0346C624D4
:10493C008145170500201305A526EF40902CAA846D
:10494C0025C9979501009385A54E17950100130570
:10495C002525EF705166A685179501001305853343
:10496C00EF7071652945EF70316997F7FF1F23943C
:10497C000720930710F8170700202301F70C97F76F
:10498C00FF1F83D7671E17070020A309F70AA1830F
:10499C00170700202305F70A91458D4717050020BE
:1049AC001305C50917070020A30BF708EF30604665
:1049BC0013452400A1B793F74500A5CB97950100AB
:1049CC0093850547179501001305851DEF70B15EA2
:1049DC00179501001305C52DEF70F15D2945EF709A
:1049EC00B161930720F8170700202309F70497F704
:1049FC00FF1F83D7071817070020A301F704A18313
:104A0C0017070020230DF702854717070020A3087E
:104A1C00F702EF20303B17050020130525029145C6
:104A2C00EF30203F13454400D1BD93F785008DCF67
:104A3C00979501009385C53F179501001305451601
:104A4C00EF707157179501001305C527EF70B1561C
:104A5C002945EF70715A97F7FF1F239E0710EF40FF
:104A6C0030271345840059BD93F70501A5CB854527
:104A7C0017F5FF1F0355E50FEF2061069795010011
:104A8C009385053B1795010013058511EF70B15205
:104A9C001795010013054524EF70F1512945EF706E
:104AAC00B155930730F8170700202309F7F897F74B
:104ABC00FF1F83D7070C17070020A301F7F8170572
:104ACC0000201305A5F7A1838D45170700202308A7
:104ADC00F7F6EF300034134504010DB593F70502DA
:104AEC00A5CF979501009385A53417950100130563
:104AFC00250BEF70514C1795010013052520EF7015
:104B0C00914B2945EF70514F930740F81707002040
:104B1C002306F7F297F7FF1F83D7870517070020A7
:104B2C00A30EF7F0A18317070020230AF7F085479F
:104B3C0017070020A305F7F097F7FF1F239A07022A
:104B4C00EF20502817050020130545EF9145EF3055
:104B5C00402C134504025DB393F70504E9CB9795FC
:104B6C0001009385E52C1795010013056503EF7083
:104B7C009144179501001305E519EF70D1432945B0
:104B8C00EF7091479707002083C747EB1307700A14
:104B9C006382E7061307800A6388E7081307600A35
:104BAC006391E704930720F8170700202308F7E820
:104BBC0097F7FF1F83D707FC17070020A300F7E820
:104BCC00A18317070020230CF7E685471707002061
:104BDC00A30BF7E6B14517050020130525E6EF30CA
:104BEC004023EF20301E1345040497F7FF1F239337
:104BFC0007F829B3930770F8170700202300F7E490
:104C0C0097F7FF1F83D707F717070020A308F7E2D2
:104C1C00A183170700202304F7E28547170700201C
:104C2C00A300F7E2994545BF930780F8F1B793F7D6
:104C3C000508A5CF979501009385851F1795010051
:104C4C00130505F6EF703137179501001305050EA6
:104C5C00EF7071362945EF70313A9307A0F81707BA
:104C6C000020230DF7DC97F7FF1F83D767F1170799
:104C7C000020A305F7DCA183170700202301F7DC34
:104C8C00854717070020A30CF7DA97F7FF1F239926
:104C9C0007EEEF20301317050020130525DA914598
:104CAC00EF3020171345040891B993F7051095C3FD
:104CBC00EF20E031B7E70400BC4F13064006930524
:104CCC00001017F5FF1F0345E5E982971345041003
:104CDC0035B193F7052099C70145EF2020111345F5
:104CEC00042029B993F705400145E38907C0054520
:104CFC00EF20C00F1345044011B1411122C4979508
:104D0C0001009385650C2A8417950100130545E96C
:104D1C0006C6EF70512A4C40179501001305052566
:104D2C00EF7071292945EF70312D0347040093076B
:104D3C00F00F6319F702979501009385E508179515
:104D4C0001001305E5E5EF7011274C4017950100A4
:104D5C001305C522EF7031262244B240294541018A
:104D6C006F709129B24022444101828085CD41115E
:104D7C0022C4179501001305A5E22E849795010016
:104D8C00938585FF06C6EF701123A2851795010048
:104D9C0013050530EF7031222244B2402945410100
:104DAC006F7091258280411126C206C622C48547A8
:104DBC00AA84639AF50297950100938525041795AB
:104DCC0001001305E5DDEF70111FA6851795010095
:104DDC0013058523EF70311E2244B24092442945BD
:104DEC0041016F7071212E8489479795010093853D
:104DFC00E500179501001305A5DA631AF400EF70AE
:104E0C00911BA6851795010013050523E1B7EF70DB
:104E1C00911AA285179501001305052565BF41114F
:104E2C0022C426C22E84AA8497950100938585F509
:104E3C00179501001305C5D606C6EF70D117294585
:104E4C00EF70911B97F7FF1F239297D297F7FF1FD5
:104E5C00239C87D085478545014517F7FF1F2316EF
:104E6C00F7D0EF1030380545EF30A00097F7FF1F53
:104E7C009387C79ADC4703D70700C167FD176312F6
:104E8C00F7022244B7E70400B240924403A387051B
:104E9C0017F5FF1F034505CD1306000A8545410193
:104EAC000283B2402244924441018280397106DE71
:104EBC0022DC26DAEF30602E59C5930750FAA30690
:104ECC00A10021812306F1002307A100930720F8FC
:104EDC0089440545A307F10023089100EF10D03D4C
:104EEC003335A000A308A1000545EF10303B230982
:104EFC00A100EFC0606C21C5714681454808EFD018
:104F0C000FF397F7FF1F93876791DC477D5483D787
:104F1C000700231C8100231BF100EF20605893072E
:104F2C004006230DA100A30D91003ECE2302810269
:104F3C00EF2040691D466C004808EF2040599D4504
:104F4C006800EF20106DF2506254D25421618280BF
:104F5C00011122CC37E404005C5C06CE35469795F3
:104F6C000100938525F617A501001305A5D282979C
:104F7C0011E101A097F7FF1F938747EC3EC48567AB
:104F8C00938707C097050000938525E217A50000BD
:104F9C001305A5763EC6EFA0E074B7F50700814671
:104FAC000A86E105194597E0FF1FE78000E87C447D
:104FBC0019468A85170500201305C5B7829734005A
:104FCC000A8697A501009385259417A50100130562
:104FDC002595EF40801B2A840DC997950100938578
:104FEC00E5E2179501001305A5BBEF70C17CA28506
:104FFC0017950100130505EEEF70E17B2945EF7065
:10500C00A17FF240624405618280EFB0C0351795F4
:10501C000100130525E3EF304036EF70C020EF1090
:10502C00D15417E5FF1F1305257CEF10B1411795DF
:10503C000100130525E2EF1011552A84EF30F01012
:10504C00EFD0207AEF307174EF40B02DEF3030702C
:10505C00EFF0105797950100938545DB17950100EC
:10506C00130505B409C8EF700175A28517950100E9
:10507C00130585E851B7EF700174179501001305FE
:10508C00E5E9EF7041732945EF700177EFF0B03926
:10509C00EFC0805229C985450145EF10B014979592
:1050AC0001009385A5D617950100130565AFEF7028
:1050BC008170179501001305E5E7EF70C16F294565
:1050CC00EF70817397950100938545D41795010076
:1050DC00130505ADEF70216E179501001305C5E79B
:1050EC00EF70616D21BF8145EF10D00F97950100D6
:1050FC009385C5D117950100130585AAEF70A16B97
:10510C0017950100130585F9EF70E16A2945EF70D9
:10511C00A16E0145EF20F05575B7011122CC37E493
:10512C0004008327041A06CE8297EF2010258327CC
:10513C00040817F5FFFF1305856D829797F7FF1F7E
:10514C002382A7A217E5FF1F1305456DEF20A0745E
:10515C000135EF3080042A84EFC00046979501009A
:10516C009385C5CB55C517950100130565A3EF7045
:10517C008164A28517950100130505A7EF70A16343
:10518C002945EF706167B7F5070030008146E105EE
:10519C00194597E0FF1FE78040C99795010093855B
:1051AC00E5C7179501001305A59FEF70C160034873
:1051BC00D1008347C1000347B1008346A1000346D9
:1051CC00910083458100179501001305E5A5EF704B
:1051DC00815E2945EF704162EF102075EF1010379A
:1051EC00EF10B03E17250000130565B3EF10901BB0
:1051FC00B7E70400BC4F130620039305001017F506
:10520C00FF1F034525968297F24062440561828018
:10521C00179501001305C598EF70E159179501001A
:10522C001305859EEF702159A1BF9946AA872E8739
:10523C00328863F5B602834805009306500A639FD3
:10524C00D80083483500930620086399D80083481A
:10525C00450089466394D8008146CDA2814642869A
:10526C00BA853E8595AE411122C406C6834705001A
:10527C002A849DC397950100938545B61795010027
:10528C0013050592EF7021534C401795010013053F
:10529C00E5E3EF704152D9A05841B707CF0093878F
:1052AC00777D6310F70897950100938525B31795C3
:1052BC0001001305E58EEF7001501C448356E40089
:1052CC008355C40003C6070017950100130585E13B
:1052DC00EF70614E2945EF7021520356E40083555F
:1052EC00C40008449937EF20506B8357E400638364
:1052FC00A70A4DC118449307500A83460700639BC5
:10530C00F6088347270083461700A207D58F63034F
:10531C00F5088355C4002244B2403A8541016F2000
:10532C00502FB707CC009387777D631FF7029795B3
:10533C0001009385A5AA1795010013056586EF70EA
:10534C0081471C448356E4008355C40003C6070000
:10535C0017950100130505D9EF70E1452244B240C1
:10536C00294541016F704149B707CE009387777D7E
:10537C006302F70297950100938545A617950100E6
:10538C0013050582EF7021434C401795010013055E
:10539C0025C601B7B2402244410182809946AA87B2
:1053AC002E8763F6B602034605009306500A631077
:1053BC00D6020346350093062008631AD60003462E
:1053CC00450089466315D6008546014685A8854665
:1053DC000146BA853E8509A4797122D426D24AD0D9
:1053EC002E842A898145B2844800714606D6EFD0B6
:1053FC000FA497E7FF1F93876742DC4783D707000B
:10540C00231421012313F100EF2080098947A30500
:10541C00F100930740063EC6FD572305A100230A61
:10542C00F100EF20201A2686A2854800EF20200AE2
:10543C00B25022549254025945618280994763FCC0
:10544C00B718797106D622D426D24AD04ECE52CC79
:10545C0056CA5AC8034B05009307500A6312FB0641
:10546C000347350093072008631CF70403474500E6
:10547C0089476317F7048344250083471500B689D1
:10548C00A204B28A2E8A2A84DD8CEF2010512A893C
:10549C006391090C6310550597950100938505D50B
:1054AC00178501001305C56FEF70E130CA8517959C
:1054BC000100130525D7EF7001302945EF70C1337A
:1054CC00B250225492540259F249624AD24A424B87
:1054DC0045618280639EA404834734009795010044
:1054EC009385C5D0178501001305856B2306F10044
:1054FC0083474400A306F100834754002307F100BF
:10550C0083476400A307F100EF70E12A5686A68555
:10551C0017950100130505D3EF70E1292945EF70AC
:10552C00A12DA686568691456800EF10D02D49BF57
:10553C0083470400E39667F983472400034714006C
:10554C00A207D98FE30EF5F6D2852285EF20700CD9
:10555C0085BF6399A4048347340097950100938514
:10556C00E5C8178501001305A5632306F1008347E1
:10557C004400A306F100834754002307F10083473E
:10558C006400A307F100EF700123A68517950100B5
:10559C00130505CFEF7021222945EF70E125A68672
:1055AC00014651B797950100938545C417850100B5
:1055BC001305055FEF702120A685179501001305D3
:1055CC0065CFEF70411F2945EF7001235286A285EC
:1055DC0026851935F5B5828099E16F104015B7E72E
:1055EC0004001171FC47A2DD2E8486DFAA85A6DBA0
:1055FC00CAD9CED717F5FF1F13054544D2D5D6D33C
:10560C00DAD1B2842286B689829797950100938568
:10561C00E5BF178501001305A55817F9FF1F0349AE
:10562C00E941EF70411917970100130767CB6386A7
:10563C00090017970100130727CBA6862286CA8577
:10564C00179501001305C5CAEF70E1162945EF70D7
:10565C00A11AE390091E9307E90793F7F70F1307B5
:10566C009002E367F71A179701001307A7A98A0797
:10567C00BA979C43BA9782878D476303F402979538
:10568C0001009385A5B81785010013056551EF70CE
:10569C008112179501001305A5C8EF70C111A9A6B9
:1056AC0097950100938585B6178501001305454F25
:1056BC00EF70611017950100130505C8EF70A10F6D
:1056CC002945EF706113930720F8114697F5FF1FDA
:1056DC009385C536268517F7FF1F2301F73697F7F5
:1056EC00FF1FA38E0734CD392A840DC59795010071
:1056FC009385C5B1178501001305854AEF70A10B81
:10570C00A285179501001305E5C6EF70C10A29455E
:10571C00EF70810E97950100938545AF17850100B9
:10572C0013050548EF702109179501001305C5C530
:10573C00EF7061082945EF70210C4165930730FA31
:10574C00054697F5FF1F9385652F7D1517F7FF1FEE
:10575C002306F72E51312A840DC5979501009385A8
:10576C00E5AA178501001305A543EF70C104A285B6
:10577C0017950100130505C0EF70E1032945EF7083
:10578C00A107B7E70400BC4F0566130606C8A14580
:10579C0017E5FF1F0345053D829785A891476301D7
:1057AC00F40297950100938565A6178501001305F2
:1057BC00253FEF70410017950100130525C0F1BD81
:1057CC00B7E70400FC4F914517E5FF1F03458539EA
:1057DC00829797950100938565A3178501001305A2
:1057EC00253CEF60517D179501001305E5BEEF6078
:1057FC00917C2945EF704100EF10D05C914517F575
:10580C00FF1F1305A523EF20C060FE506E54DE541D
:10581C004E59BE592E5A9E5A0E5B11618280854795
:10582C006301F402979501009385459E178501004D
:10583C0013050537EF60317817950100130545BB4B
:10584C00A9BD97E7FF1F23969732B7E704000566BB
:10585C00BC4F130606C8C14525BF8D476301F40232
:10586C00979501009385859A17850100130545339B
:10587C00EF60717417950100130545B939BD930795
:10588C0040F8114697F5FF1F9385451B268517F7A2
:10589C00FF1F2305F71A97F7FF1FA382071AEFF0D4
:1058AC00BFB32A843DD19795010093852596178522
:1058BC0001001305E52EEF601170A285179501000C
:1058CC00130545ABEF60316F05A291476301F402FC
:1058DC009795010093858593178501001305452C39
:1058EC00EF60716D179501001305C5B37DB3B7E774
:1058FC000400FC4F9305000217E5FF1F03458526A6
:10590C008297979501009385659017850100130583
:10591C002529EF60516A17950100130565B2C1BDC9
:10592C00894763E18702979501009385258E17853A
:10593C0001001305E526EF601168179501001305AA
:10594C0065B1A1BB17F9FF1F0349690F97F7FF1F3B
:10595C0083C7D70E979501009385458B2209178530
:10596C0001001305E5233369F900EF60D164A285CA
:10597C0017950100130545AFEF60F1634209294506
:10598C0013590941EF605167131A09019D47135AC6
:10599C000A0163F9870817F7FF1F0347570A930794
:1059AC00500A6311F70817FBFF1F034B6B0997F99C
:1059BC00FF1F83C9F908EF20407EAA8A635A20038F
:1059CC006302AA069795010093854584178501000B
:1059DC001305051DEF60315E5686D28517950100C3
:1059EC00130545AAEF60315D2945EF60F16031BDCB
:1059FC00C167FD176318FA02A209B3E96901639341
:105A0C00A902979501009385658017850100130500
:105A1C002519EF60515A4E86CE8517950100130556
:105A2C0065A9C9B79305D4FFD286268693F5F50FE1
:105A3C0017F5FF1F1305B500EF10E05C635020094C
:105A4C00930750F817F7FF1F230AF7FE97F7FF1F6E
:105A5C009387C7FE83C73700228697F5FF1F938570
:105A6C00E5FD8507268517F7FF1FA30AF7FCEFF066
:105A7C00BF962A840DC597850100938525791785D6
:105A8C0001001305E511EF601153A2851795010074
:105A9C001305C5A6EF6031522945EF60F155978586
:105AAC0001009385A576178501001305650FEF603E
:105ABC00915017950100130565A5C5B69785010092
:105ACC009385C574178501001305850DEF60B14EE4
:105ADC0017950100130505A4C9B6894763E1870230
:105AEC009785010093858572178501001305450B79
:105AFC00EF60714C17950100130545A279BEEF10AC
:105B0C00702CA285EDB98D476301F40297850100D5
:105B1C009385C56F1785010013058508EF60B149A2
:105B2C0017950100130545A18DBEB766020001460D
:105B3C00B7750200054597D0FF1FE780002F93072C
:105B4C0060F817F7FF1F230BF7EE97F7FF1FA388DB
:105B5C0007EE9307000617F7FF1F2303F7EE89479D
:105B6C0017F7FF1FA30EF7EC97F7FF1F238B07EC1C
:105B7C0097F7FF1FA38707ECC14717F7FF1F2303F6
:105B8C00F7EC930730F817F7FF1FA30DF7EA314630
:105B9C0097F7FF1FA389A7EA97F5FF1F938505EADF
:105BAC00268597F7FF1F238007EAEFF0FF822A84F0
:105BBC00E30D05C4978501009385456517850100A4
:105BCC00130505FEEF60313FA28517950100130503
:105BDC002598CDB9B1476301F402978501009385EF
:105BEC00E562178501001305A5FBEF60D13C179505
:105BFC0001001305A59755B4B7E70400FC4F9305B6
:105C0C00000417E5FF1F0345E5F58297EF10901B85
:105C1C00B145F5B6914763E18702978501009385FD
:105C2C00E55E178501001305A5F7EF60D1381795D0
:105C3C0001001305659595B417F9FF1F034949E059
:105C4C0097F7FF1F83C7B7DF22093369F900B7E75E
:105C5C000400FC476D14228697F5FF1F938555DED3
:105C6C0028008297931604010E09B7650200C182C1
:105C7C003000CA95094597D0FF1FE780001B93079A
:105C8C0070F817F7FF1F230BF7DA194697F7FF1F6A
:105C9C00A388A7DA97F5FF1F938545DA2685EFF0E1
:105CAC00AFF32A84E30305B6978501009385055667
:105CBC00178501001305C5EEEF60F12FA28517952E
:105CCC0001001305A58DFDBE9947630EF40E978553
:105CDC0001009385A55317850100130565ECEF6052
:105CEC00912D179501001305E58C45BA914763E199
:105CFC00870297850100938565511785010013056F
:105D0C0025EAEF60512B179501001305258C71B214
:105D1C0017F9FF1F0349C9D297F7FF1F83C737D263
:105D2C0022093369F900B7E70400FC476D14228699
:105D3C0097F5FF1F9385D5D0280082979316040101
:105D4C000E09B7650200C1823000CA950D4597D087
:105D5C00FF1FE780800D930780F817F7FF1F230FB5
:105D6C00F7CC194697F7FF1FA38CA7CC97F5FF1F0D
:105D7C009385C5CC2685EFF02FE62A84E30705A88A
:105D8C00978501009385854817850100130545E12A
:105D9C00EF607122A28517950100130565841DB66D
:105DAC0099476302F4029785010093852546178570
:105DBC0001001305E5DEEF601120179501001305B6
:105DCC00A5836FF09F8DB7E70400FC4F930500048B
:105DDC0017E5FF1F034505D98297EF10A07E994563
:105DEC0039BC8D476302F402978501009385054207
:105DFC00178501001305C5DAEF60F11B179501003B
:105E0C00130505816FF07F890145EFD09FE93000C4
:105E1C0091469D652D4597D0FF1FE78000019306A5
:105E2C00001001469D65254597D0FF1FE780E0FFD8
:105E3C00914630009D6529452304810097D0FF1FB2
:105E4C00E780A0FE294597D0FF1FE78020ED97D073
:105E5C00FF1FE780C0D655BA99476302F4029785B5
:105E6C0001009385A53A17850100130565D3EF60F2
:105E7C009114178501001305A57A6FF01F8217F78F
:105E8C00FF1F0347F7BB97F7FF1F83C767BB2207AB
:105E9C005D8F9166BA96C2061166C1821306F6EF43
:105EAC008D476366D60297E7FF1F938727979C4B16
:105EBC0017F6FF1F0346B6B89386C70031CE03D63C
:105ECC000700E30106008907E39BD7FE8947130708
:105EDC00A0F8114697F5FF1F938545B6268597F6D2
:105EEC00FF1F238DE6B417F7FF1FA30AF7B4EFF0DB
:105EFC00AFCE2A84E30B059097850100938505317D
:105F0C00178501001305C5C9EF60F10AA285178535
:105F1C000100130525727DB203D607006302E67EED
:105F2C008907E39BF6FE8D475DB791476302F40248
:105F3C00978501009385852D17850100130545C6AE
:105F4C00EF60710717850100130545706FF0EFF4D2
:105F5C00B7E70400FC4F9305000817E5FF1F034546
:105F6C0065C082976FF05F898D476302F402978555
:105F7C0001009385A52917850100130565C2EF6003
:105F8C009103178501001305E56D6FF00FF1930771
:105F9C00B0F817F7FF1F2303F7AA97F7FF1FA3808B
:105FAC0087AA9147194697F5FF1F938525A9268542
:105FBC0017F7FF1F2306F7A897F7FF1FA38207A861
:105FCC00EFF08FC12A84E302058497850100938545
:105FDC00E523178501001305A5BCEF60C17DA285E3
:105FEC001785010013058569F1B89947E307F4DEBD
:105FFC00978501009385852117850100130545BA06
:10600C00EF60617B17850100130505696FF0EFE800
:10601C00978501009385851F17850100130545B8E9
:10602C00EF606179CA85178501001305A5686FF0CB
:10603C007F899307090693F7F70F3D476363F7666C
:10604C0017870100130787168A07BA979C43BA97DC
:10605C0082879D476302F402978501009385051B97
:10606C00178501001305C5B3EF60E17417850100B6
:10607C00130505666FF06FE297F7FF1F83C7179C38
:10608C00D1CF17F7FF1F0347979B97F7FF1F83C7C6
:10609C00079B22075D8F97F7FF1F83C7679AC2077D
:1060AC005D8F97F7FF1F83C7B799E207D98F17E763
:1060BC00FF1F2325F7AC97F7FF1F9387279883C7FC
:1060CC0067009785010093856514178501001305FA
:1060DC0025AD17E7FF1F2301F7AAEF60C16D97E706
:1060EC00FF1F9387A7A98C4317E6FF1F0346C6A87B
:1060FC00178501001305855FEF60E16B2945EF60A3
:10610C00A16F97F7FF1FA38B0792930700F817F760
:10611C00FF1F2305F7929D456FF06FEEEF30E046C1
:10612C0097F7FF1F238DA7909357850017F7FF1F35
:10613C00A307F790935705012A8417F7FF1F230134
:10614C00F79093578501179501000355055617F7DE
:10615C00FF1FA307F78EEF30004497F7FF1F238232
:10616C00A78E978501009385650A17850100130595
:10617C0025A3EF60416417F6FF1F0346868CA285AA
:10618C00178501001305055885BFCD476302F4023E
:10619C00978501009385850717850100130545A098
:1061AC00EF60616117850100130545576FF0EFCE65
:1061BC0037E404007C44414697F5FF1F938515880E
:1061CC0017F5FF1F1305C59D829797F7FF1F83C710
:1061DC00078817F7FF1F03477787A207D98F17E7A1
:1061EC00FF1F231AF7981306000A3C4C89456FF0E1
:1061FC002FDA8D476315F4C817F4FF1F034424846A
:10620C0097F7FF1F83C79783978501009385050038
:10621C002204178501001305A5985D8CEF60A15928
:10622C00A285178501001305E550EF60C15829457B
:10623C00EF60815C0D4697F5FF1F938525802285C5
:10624C00EFF08F99AA8415C197850100938505FC01
:10625C00178501001305C594EF60E155A6851785D8
:10626C0001001305A54E6FF0EFE597E7FF1F239292
:10627C008790B7E704001166BC4F130606E89145FA
:10628C006FF00FD18D47631DF4DC17E4FF1F03443F
:10629C00047B97E7FF1F83C7777A97850100938567
:1062AC00E5F62204178501001305858F5D8CEF60E0
:1062BC008150A285178501001305854AEF60A14F17
:1062CC002945EF6061530D4697E5FF1F93850577D0
:1062DC002285EFF06F90AA8415C1978501009385F4
:1062EC00E5F2178501001305A58BEF60C14CA6855F
:1062FC0017850100130545486FF0CFDC97E7FF1FAA
:10630C0023988786B7E704001166BC4F130606E88E
:10631C00930500026FF0CFC7894763F687E097E4D7
:10632C00FF1F83C4C47197E7FF1F83C7377197851D
:10633C0001009385A5EDA204178501001305458680
:10634C00DD8CEF604147A685178501001305454498
:10635C00EF6061462945EF60214A228697E5FF1FD1
:10636C009385C56D2685EFF02F872A84630F05C8AA
:10637C0097850100938585E91785010013054582F2
:10638C00EF606143A285178501001305E5416FF0AD
:10639C006FD38D47631CF4F617E4FF1F0344246A84
:1063AC0097E7FF1F83C7976997850100938505E6DB
:1063BC002204177501001305A57E5D8CEF60A13FCB
:1063CC00A285178501001305653FEF60C13E294585
:1063DC00EF6081420D4697E5FF1F93852566228568
:1063EC00EFE09FFFAA8415C197850100938505E214
:1063FC00177501001305C57AEF60E13BA68517857B
:10640C0001001305253D6FF0EFCB97D7FF1F2393AA
:10641C008776B7E704001166BC4F130606E89305B0
:10642C0000046FF0EFB6914797850100938505DE68
:10643C00177501001305C57663F987FEEF60A13768
:10644C00A285178501001305653AEF60C136294511
:10645C00EF60813A97E4FF1F83C4645E97E7FF1FE8
:10646C0083C7D75DA204DD8C228697E5FF1F938539
:10647C00E55C2685EFE05FF62A8435C99785010037
:10648C009385C5D81775010013058571EF60A1328E
:10649C00A285178501001305A5366FF0AFC2914791
:1064AC00E3F9878497E4FF1F83C4645997E7FF1FC0
:1064BC0083C7D758A204DD8C228697E5FF1F9385EE
:1064CC00E5572685EFE05FF12A8415C19785010019
:1064DC009385C5D3177501001305856CEF60A12D4D
:1064EC00A285178501001305E5326FF0AFBD97D774
:1064FC00FF1F2391976831BF8D47E317F48E97E701
:10650C00FF1F83C7C753A20717E5FF1F034515538A
:10651C000D4697E5FF1F938565525D8DEFE0DFEB30
:10652C002A84630405AE97850100938525CE1775E3
:10653C0001001305E566EF600128A28517850100AF
:10654C001305852E6FF00FB89947E31AF49017E4F2
:10655C00FF1F0344C44E97E7FF1F83C7374E978531
:10656C0001009385A5CA2204177501001305456324
:10657C005D8CEF604124A285178501001305C52BA6
:10658C00EF6061232945EF602127194697E5FF1F2E
:10659C009385C54A2285EFE03FE4AA8415C197850F
:1065AC0001009385A5C6177501001305655FEF60A3
:1065BC008120A68517850100130545296FF08FB042
:1065CC0097D7FF1F239E875AB7E704001166BC4F6D
:1065DC00130606E8930500086FF08F9B8D47E318B0
:1065EC00F49817E4FF1F0344844597E7FF1F83C704
:1065FC00F74497850100938565C122041775010046
:10660C001305055A5D8CEF60011BA28517850100EF
:10661C0013050525EF60211A2945EF60E11D228540
:10662C000D4697E5FF1F93856541EFE0FFDA2A845D
:10663C00630D059C97850100938545BD1775010079
:10664C0013050556EF602117A28517850100130568
:10665C00A5226FF02FA7854797850100938505BB71
:10666C00177501001305C553630AF400EF60A114FC
:10667C00178501001305C5216FF02F82EF60A11360
:10668C001785010013054522EF60E1122945EF60E3
:10669C00A11697D7FF1F2390074EEF2070636FF062
:1066AC00CF9697850100938565B617750100130584
:1066BC00254FEF604110CA85178501001305052091
:1066CC006FF04FA02390E70017D5FF1F130505159A
:1066DC00EFE0607397850100938545B31775010052
:1066EC001305054CEF60210D178501001305C51E20
:1066FC00EF60610C2945EF60211081476FF02FFD91
:10670C002390070017D5FF1F13054511EFE0A06F6D
:10671C0097850100938585AF1775010013054548D2
:10672C00EF606109178501001305851CD1B78280C4
:10673C00411126C217D7FF1F1307471093144500AA
:10674C00B3079700944706C622C405466382C60861
:10675C0089CA09476386E610B2402244924441013B
:10676C008280038547003A847D57630CE50003C69D
:10677C00570081468145133616001375F50FEFD07F
:10678C000FB3330594008346150003475500835718
:10679C00250085E2B716004019C703A7C60AD98F92
:1067AC0023A6F60A55BF03A7860AD98F23A4F60A97
:1067BC0065B7B716004019C703A7C60CD98F23A617
:1067CC00F60C59BF03A7860CD98F23A4F60C69B716
:1067DC00038547007D5783C65700630CE50283C5CC
:1067EC00C7009307F00F1375F50FB385F5029307E8
:1067FC004006B3C5F50293F5F50F89CA85460146E7
:10680C002244B240924441016FD06FAA854605469E
:10681C00C5BF03D7270083C7170095E389CAB716EE
:10682C00004083A7860A5D8F23A4E60A35B7B71606
:10683C00004083A7C60A5D8F23A6E60A31BF89CA2A
:10684C00B716004083A7860C5D8F23A4E60C29B7EE
:10685C00B716004083A7C60C5D8F23A6E60CEDBDD2
:10686C00038547007D57E309E5EE83C5C700130791
:10687C00F00F83C75700B385E50213074006137565
:10688C00F50F8546B3C5E50293F5F50FC9D385BF62
:10689C0093F71500C9CB797122D426D24AD04ECEAB
:1068AC0052CC56CA5AC85EC606D6AE892A8917D4A7
:1068BC00FF1F1304A4F88144894A130B3006854B3F
:1068CC000D4A1C44639257030347D4008347C4000A
:1068DC0029E76366FB0085072306F40019A0A306CD
:1068EC00740113F5F40FA93585044104E39B44FDB1
:1068FC00B7E70400BC4F4A85130600028545829712
:10690C00B250225413C5190092540259F249624AEA
:10691C00D24A424BB24B4561828099C3FD176DBF81
:10692C00A30604007DBF01458280411122C426C20A
:10693C004AC006C617D4FF1F130444F017D9FF1F13
:10694C001309C9F2B71400408347140003552400FF
:10695C008D45B5E7EFC03FF803475400835724003B
:10696C0029CB03A7C40AD98F23A6F40A4104E31D3B
:10697C0024FDB75700403547A381E7000145EFD010
:10698C004F8A37E404008327040817050000130519
:10699C0065F0829797D7FF1FA385A71E0323840555
:1069AC002244B2409244024913060002854541013B
:1069BC00028303A7840AD98F23A4F40A45BFEFC02E
:1069CC00FFFB034754008357240019C703A7C40CCB
:1069DC00D98F23A6F40C59BF03A7840CD98F23A4F9
:1069EC00F40C69B70947636DA7069316450097D752
:1069FC00FF1F9387A7E4B6974111944722C406C69C
:106A0C008CC72A8497D7FF1F83C7A71717D5FF1FDB
:106A1C0003453517639CE6026388D50085CFFD17C7
:106A2C0017D7FF1F230FF71497D7FF1F83C76715BF
:106A3C0095C3B7E70400BC4F130600028545829747
:106A4C0022852244B24041016FF09FCEE39EE5FCCB
:106A5C008507F9B7B7E70400FC4F85458297CDB79A
:106A6C008280894763EBA70297D7FF1F938707DDC7
:106A7C0013174500130840063386E700AE8663748F
:106A8C00B80093064006BA979C472306D6000547E4
:106A9C00FD176364F7006FF0BFC98280894763EB11
:106AAC00A70097D7FF1F938767D912053E9503451B
:106ABC00C500828001458280894763EAA70097D789
:106ACC00FF1F9387A7D712053E9508458280014585
